:020000040800F2
:10000000B09A0020A90E0008590700085B070008F5
:100010005F0700086307000867070008000000008A
:100020000000000000000000000000006B07000856
:100030006D070008000000006FA10108395D00088D
:10004000C30E0008C30E0008C30E0008C30E00084C
:10005000C30E0008C30E0008C30E00089309000871
:10006000C30E0008C30E0008C30E0008C30E00082C
:10007000C30E0008C30E0008C30E0008C30E00081C
:10008000C30E0008C30E0008C30E0008C30E00080C
:10009000FF680108C30E0008C30E0008C30E000865
:1000A000C30E0008C30E0008C30E0008C30E0008EC
:1000B000C30E00086F070008C30E0008C30E000837
:1000C000C30E0008C30E0008C30E0008C30E0008CC
:1000D000C30E00087794000839950008FB950008C6
:1000E000C30E0008C30E0008C30E0008C30E0008AC
:1000F000C30E0008C30E0008C30E0008C30E00089C
:10010000C30E0008C30E000849090008C30E00080A
:10011000E196000819980008C30E0008C30E0008F5
:10012000C30E0008C30E0008C30E0008C30E00086B
:10013000C30E0008C30E0008C30E0008C30E00085B
:10014000C30E00082F690108C30E0008C30E000883
:10015000C30E0008C30E0008C30E0008B3980008C1
:10016000C30E0008C30E0008C30E0008C30E00082B
:10017000C30E0008C30E0008C30E0008C30E00081B
:10018000C30E0008C30E000800F002F800F079F872
:100190000AA090E8000C82448344AAF10107DA45E2
:1001A00001D100F06EF8AFF2090EBAE80F0013F0BB
:1001B000010F18BFFB1A43F00103184708C50100DF
:1001C00028C501000A444FF0000C10F8013B13F061
:1001D000070408BF10F8014B1D1108BF10F8015BA0
:1001E000641E05D010F8016B641E01F8016BF9D193
:1001F00013F0080F1EBF10F8014BAD1C0C1B09D1EA
:100200006D1E58BF01F801CBFAD505E014F8016B5B
:1002100001F8016B6D1EF9D59142D6D370470000ED
:100220000023002400250026103A28BF78C1FBD8FF
:10023000520728BF30C148BF0B60704767291BF0C9
:100240003C87692917F05885782917F09185002097
:1002500070471FB51BF027FF9DE8030018F024F836
:1002600018F0C4FD0400002000211BF037F8401CEA
:100270006060002000211BF047F8E0601FBD10B552
:1002800010BD19F092F81146FFF7E3FF00F06AF98C
:1002900019F0D6FA03B4FFF7F2FF03BC08F078FEBA
:1002A00030B58BB00446002500BF0DF051F80AA808
:1002B00012F083FE0AAA012108460FF027F800BFBA
:1002C00000BF00BF0DF00EF8054600BF00BFDA48C2
:1002D0000078401CD849087000BF00BF28460DF0C8
:1002E00005F800BF00BF00BF0AAB0022D3A1D6486B
:1002F00012F0D7F90AAB0022D4A1D84812F0D1F9F4
:100300000AA8032100220592CDE906210890104693
:100310004FF400713322D24BCDE90132CDE9031005
:1003200004200023CF4AD0A10090D24813F01CFA39
:100330000AA8032100220592CDE906210890104663
:100340004FF400713322CC4BCDE90132CDE90310DB
:1003500005200023C94ACAA10090CC4813F004FA32
:100360000AA8032100220592CDE906210890104633
:100370004FF400713322C64BCDE90132CDE90310B1
:1003800006200023C34AC4A10090C64813F0ECF92C
:100390000AA8032100220592CDE906210890104603
:1003A0004FF400713322C04BCDE90132CDE9031087
:1003B00007200023BD4ABEA10090C04813F0D4F925
:1003C0000AA8032100220592CDE9062108901046D3
:1003D0004FF400713322BA4BCDE90132CDE903105D
:1003E00008200023B74AB8A10090BA4813F0BCF91E
:1003F0000AA8032100220592CDE9062108901046A3
:100400004FF400713322B44BCDE90132CDE9031032
:1004100009200023B14AB2A10090B44813F0A4F916
:100420000AA8032100220592CDE906210890104672
:100430004FF400713322AE4BCDE90132CDE9031008
:100440000A200023AB4AACA10090AE4813F08CF90F
:100450000AA8032100220592CDE906210890104642
:100460004FF400713322A84BCDE90132CDE90310DE
:100470000B200023A54AA6A10090A84813F074F908
:100480000AA8032100220592CDE906210890104612
:100490004FF400713322A24BCDE90132CDE90310B4
:1004A0000C2000239F4AA0A10090A24813F05CF901
:1004B00000BF00BF00BF0CF015FF054600BF00BF26
:1004C0005D480078401E5C49087008460078A0B975
:1004D00099480088002809DD00BF00BF28460CF0BD
:1004E00005FF00BF00BF0FF0FAFA0DE000BF00BF2C
:1004F00028460CF0FBFE00BF06E000BF00BF284608
:100500000CF0F4FE00BF00BF00BF0AA9002013F0EA
:100510007FFA0BB030BD10B54FF4A06000F0E4FCE2
:1005200000F0BDFAA82005F013FC05F0DBF805F09B
:100530007BF8642005F065FC642005F062FC08F09F
:100540006CFF05F099FD09F052FD03217B4816F080
:10055000DBF803217A4816F0D7F805F07FFC0CF0A1
:1005600095FA10BD10B58AB00024FFF7D4FF09A892
:100570000EF0A8FC00BF00BF00BF0CF0B3FE0446A5
:1005800000BF00BF2C480078401C2B49087000BFFA
:1005900000BF20460CF0AAFE00BF00BF00BF09A8A4
:1005A000032100220592CDE90621089010464FF460
:1005B00000713322634BCDE90132CDE903100320F2
:1005C0000023AFF2233260A10090624813F0CCF810
:1005D00000BF00BF00BF0CF085FE044600BF00BF97
:1005E00015480078401E1449087008460078A0B9E4
:1005F00051480088002809DD00BF00BF20460CF0EC
:1006000075FE00BF00BF0FF06AFA0DE000BF00BF2B
:1006100020460CF06BFE00BF06E000BF00BF204686
:100620000CF064FE00BF00BF00BF09A80EF00EFF73
:1006300000200AB010BD00007401002053594E4341
:100640005F53454D00000000B059002073656D55A3
:100650007361727431446F6E650000008859002028
:1006600088110020D10B0008526F626F7420546112
:10067000736B3000A402002088190020ED0B0008E5
:10068000526F626F74205461736B310068030020F5
:1006900088210020E50D0008526F626F74205461BC
:1006A000736B32002C04002088290020FF0D000805
:1006B000526F626F74205461736B3300F00400203A
:1006C00088310020190E0008526F626F7420546147
:1006D000736B3400B405002088390020370E000801
:1006E000526F626F74205461736B3500780600207E
:1006F00088410020590E0008526F626F74205461C7
:10070000736B36003C07002088490020730E0008F8
:10071000526F626F74205461736B370000080020C1
:10072000885100208D0E0008526F626F7420546152
:10073000736B3800C40800203801002000680040B6
:100740000064004088090020737461727420746131
:10075000736B0000E0010020704700BFFEE700BFA0
:10076000FEE700BFFEE700BFFEE77047704710B529
:100770000121884802F03FFD00287DD001218548F5
:1007800002F04AFD84480088401C83490880834861
:10079000007820F00100401C80490870804890F8E3
:1007A0009000C0F3401088B108468078401E8870E1
:1007B0000846807850B97A4890F8900020F02000E0
:1007C000774981F89000002081F882007248008803
:1007D0000A2190FBF1F201FB120060B96F4800782A
:1007E00020F0080008306D49087009F0F5FF0AF0A4
:1007F0005AFB0BF055FF68480088142190FBF1F27A
:1008000001FB120030B96548007820F0100010306C
:100810006249087060480088322190FBF1F201FBC8
:10082000120030B95D48007820F0400040305B494C
:10083000087059480088642190FBF1F201FB120016
:1008400040B95648007820F0800080305349087045
:100850000BF00AFC50480088C82190FBF1F201FB24
:10086000120040B94D48407820F00100401C4B492F
:10087000487009F0B1FF00E065E0474800884FF498
:10088000FA7190FBF1F201FB120030B94348407855
:1008900020F00200801C414948703F480088B0F5B4
:1008A0007A7F4ED100203C4908803C48407820F0B7
:1008B0000400001D394948703A480078401C394905
:1008C000087039480088401C37490880354800784E
:1008D000062802DB002033490870334800881E28B0
:1008E00009DB0020304908802C48007820F02000E7
:1008F00020302A49087007F041FE0BF0DDFD0BF0B7
:1009000019FF07F055FE05F095F928480088FF28E3
:1009100009DD0020254908802548807A20F0020062
:10092000801C2349887223480088FF2809DD0020A5
:10093000204908801E48807A20F00400001D1C49D0
:10094000887207F0D6FE10BD10B501211A4802F0DA
:1009500052FCE8B10121184802F05EFC0121164862
:1009600002F05AFC15484088401C00B213494880E8
:100970000846B0F90200022801DB002048800F4839
:1009800090F8500020F00100401C0C4981F8500004
:1009900010BD70470004004000000020F4610020FA
:1009A00088680020040000200200002020000020B1
:1009B000D859002022000020000C0040346800209C
:1009C0000CB50020019000907648006840F480301B
:1009D0007449086000BF7348006800F4003000905C
:1009E0000198401C0190009820B94FF6FF710198C2
:1009F0008842F0D16B48006800F4003010B101204B
:100A0000009001E0002000900098012846D1654840
:100A10004030006840F080506249403108606248D0
:100A2000006840F44040604908605E480830006853
:100A30005C49083108600846006840F400400860DE
:100A40000846006840F4A05008605848091F086034
:100A5000081F006840F08070091F086000BF5148FF
:100A6000006800F000700028F9D040F2057050498D
:100A700008604C480830006820F0030049490831FC
:100A800008600846006840F00200086000BF454862
:100A90000830006800F00C000828F8D10CBD10B533
:100AA0004448006840F47000424908603D480068CE
:100AB00040F001003B49086000203A4908310860D5
:100AC000384800683C490840364908603B48091DE1
:100AD0000860081F006820F48020091F08600020BB
:100AE00030490C310860FFF76BFF4FF0006031496F
:100AF0008039086010BD70B5002000220223002458
:100B00000221284D08352D6805F00C0020B104287D
:100B100006D0082834D107E0294D2A4E356033E04D
:100B2000294D284E35602FE01E4D2D1D2D68C5F333
:100B300080541C4D2D1D2D6805F03F0154B1224DF0
:100B4000B5FBF1F5174E361D3668C6F3881605FB62
:100B500006F209E01A4DB5FBF1F5124E361D366866
:100B6000C6F3881605FB06F20E4D2D1D2D68C5F344
:100B700001456D1C6B00B2FBF3F5124E356003E0CE
:100B80000F4D104E356000BF00BF064D08352D6873
:100B9000C5F303150D4E705D0A4D2D68C540094E15
:100BA000356070BD003802400070004008544007B6
:100BB000003C024088ED00E0FFFFF6FE103000240C
:100BC0000024F4000800002000127A000C0000202D
:100BD0000EB500BF09E002A808210A230022CDE9D2
:100BE00000101146104614F05AFDF4E70EB51FE050
:100BF0007548807AC0F3400080B100200CF000F806
:100C000001200BF0FDFF7048807A20F002006E4951
:100C100088726E480078401C6C49087002A8082150
:100C200050230022CDE900101146104614F037FD84
:100C3000DEE710B5002009F03CF8152843D004DCAD
:100C4000002845D013284BD104E0172806D01C28D3
:100C500046D139E000200CF04DF841E0002009F0C9
:100C60001FF800F0010018B10121002009F0F5F88B
:100C7000002009F051F8564908600020554981F8D4
:100C8000680053480068002817DD5148008882B288
:100C9000514900200CF045F94F4805F0B5FB802183
:100CA0004D4817F050FA4848407920F00100401CA8
:100CB0004549487100204949088048480088401C3F
:100CC000464908800CE00BE000200CF0AEF807E08D
:100CD00020234EF66022012100200BF0ABFF00BF65
:100CE00000BF012008F0E5FF152843D004DC0028F0
:100CF00045D013284BD104E0172806D01C2846D134
:100D000039E001200BF0F6FF41E0012008F0C8FFB8
:100D100000F0010018B10121084609F09EF80120F9
:100D200008F0FAFF2A49086001202A4981F8680082
:100D300027480068002817DD2548008882B2264928
:100D400001200CF0EEF8244805F05EFB80212248DB
:100D500017F0F9F91C48407920F00100401C1A49AD
:100D6000487100201E4908801D480088401C1C490D
:100D700008800CE00BE001200CF057F807E020237E
:100D80004EF66122012108460BF054FF00BF00BF60
:100D900010BD10B5044642F6087101EB4410022163
:100DA00008F002FE10BD10B5044642F6087101EBD2
:100DB0004410002108F0F8FD4FF4847101EB441059
:100DC000222108F0F1FD10BDD85900202500002097
:100DD0001C00002004620020E459002020000020B4
:100DE000220000200EB509E002A8082114230022E9
:100DF000CDE900101146104614F051FCF4E70EB591
:100E000009E002A8082114230022CDE900101146B0
:100E1000104614F044FCF4E70EB50BE009F098FC22
:100E200002A80821C8230022CDE90010114610466F
:100E300014F035FCF2E70EB50DE005F024F805F0EE
:100E4000A9F802A8082132230022CDE9001011469A
:100E5000104614F024FCF0E70EB509E002A80821C2
:100E600064230022CDE900101146104614F017FC4F
:100E7000F4E70EB509E002A8082164230022CDE9B9
:100E800000101146104614F00AFCF4E70EB509E014
:100E900002A8082164230022CDE900101146104663
:100EA00014F0FDFBF4E700000948804709480047BB
:100EB000FEE7FEE7FEE7FEE7FEE7FEE7FEE7FEE70A
:100EC000FEE7FEE704480549054A064B7047000067
:100ED0009F0A000889010008B0940020B09A002001
:100EE000B0960020B096002032490143324A11608A
:100EF000704770B5002100230F22C4781CB32E4C1C
:100F0000246804F4E064C4F5E064C4F30721C1F18B
:100F10000404E3B20A4144789C40E1B2847814406E
:100F200021430C07210E254C05786155047804F007
:100F30001F050124AC4005786D11AD0005F1E025D9
:100F4000C5F8004109E0047804F01F050124AC4015
:100F50001B4D0678761145F8264070BD194A0A40A7
:100F60000243154B1B1F1A60704739B1124A121DFC
:100F700012680243104B1B1D1A6006E00E4A121D38
:100F8000126882430C4B1B1D1A607047042808D15D
:100F90004FF0E021096941F004014FF0E0221161B6
:100FA00007E04FF0E021096921F004014FF0E02251
:100FB000116170470000FA050CED00E000E400E06C
:100FC00080E100E080FFFF1F10B50446FE48844228
:100FD00009D10121480601F0B3F800214FF000705B
:100FE00001F0AEF808E00121880601F0A9F800211F
:100FF0004FF0806001F0A4F810BD30B5024600202B
:101000000023146824F002041460146844F00104FE
:10101000146000E05B1C546804F001041CB94FF636
:10102000FF74A342F6D1546804F001040CB9002007
:101030006CE08C79012C04D1146844F080041460B5
:1010400003E0146824F080041460CC79012C04D1EE
:10105000146844F04004146003E0146824F0400471
:1010600014600C7A012C04D1146844F0200414603C
:1010700003E0146824F0200414604C7A012C04D19D
:10108000146844F01004146003E0146824F01004A1
:1010900014608C7A012C04D1146844F008041460A4
:1010A00003E0146824F008041460CC7A012C04D105
:1010B000146844F00404146003E0146824F0040489
:1010C00014608C78A407CD7844EA05640D7944EA6D
:1010D00005444D7944EA05540D886D1E2C43D461B6
:1010E000146824F001041460002300E05B1C5468C1
:1010F00004F001041CB14FF6FF74A342F6D154680A
:1011000004F001040CB1002000E0012030BD10B556
:101110000021837A012202FA03F1AC4A126842F0FC
:101120000102AA4B1A60A94A1C3212688A43A74BD3
:101130001C331A60027BCAB9A44A0C3212688A4373
:10114000A24B0C331A604288C38842EA03439F4A89
:101150004032847A42F834300288838842EA03437A
:101160009A4A4032847A02EBC4025360027B012A1D
:1011700019D1964A0C3212680A43944B0C331A6008
:101180004288038842EA0343904A4032847A42F814
:101190003430C288838842EA03438C4A4032847ADE
:1011A00002EBC4025360C27A3AB9884A121D12682F
:1011B0008A43864B1B1D1A6006E0844A121D126882
:1011C0000A43824B1B1D1A60028932B97F4A1432CE
:1011D00012688A437D4B14331A600289012A06D1B2
:1011E0007A4A143212680A43784B14331A60427BED
:1011F000012A06D1754A1C3212680A43734B1C330C
:101200001A60724A126822F00102704B1A6010BD17
:1012100000218171C171017241728172C17281704C
:10122000C1700321017102214171012101807047C8
:101230006649096841F00101644A11601146096874
:1012400043F60E729143614A11601146096841EA02
:10125000002111601146096821F0010111607047F9
:1012600021B1026842F48032026003E0026822F495
:10127000803202607047E1B1026842F08002026091
:101280004FF4C272125842F480734FF4C27213507A
:101290004FF4CA72125842F480734FF4CA7213505A
:1012A0004FF4D272125842F480734FF4D27213503A
:1012B0001BE0026822F0800202604FF4C2721258F2
:1012C00022F480734FF4C27213504FF4CA72125852
:1012D00022F480734FF4CA7213504FF4D272125832
:1012E00022F480734FF4D2721350704710B5024647
:1012F0000020936803F08063B3F1806F00D110E0A9
:10130000936803F00063B3F1006F01D1012008E09E
:10131000936803F08053B3F1805F01D1022000E0B5
:101320000420042879D002F5C07303EB00131B6876
:1013300003F0010402F5C07303EB00131C600B7A89
:101340007BB94B7A0C8843EA445302F5C07404EB32
:1013500000142468234302F5C07404EB00142360D6
:1013600010E00B7A4C6843EAC4034C7A234302F53D
:10137000C07404EB00142468234302F5C07404EB2A
:10138000001423608B7A03F00F038B7202F5C07395
:1013900003EB00135B6823F00F0402F5C07303EB4B
:1013A00000135C6002F5C07303EB00135B688C7A7A
:1013B000234302F5C07404EB001463608B7B1C06AE
:1013C0004B7B44EA034403E00064004000660040B5
:1013D0000B7B44EA0323CC7A234302F5C07404EB6D
:1013E0000014A3608B7C1C064B7C44EA03440B7CFA
:1013F00044EA0323CC7B234302F5C07404EB0014BE
:10140000E36002F5C07303EB00131B6843F00104B3
:1014100002F5C07303EB00131C6010BD10B502464B
:10142000002321B1012907D002290FD109E09068DA
:10143000F94C00EA04030BE09068F84C00EA04035E
:1014400006E09068F64C00EA040301E0002300BFC8
:1014500000BFF44C181BA34216D007DC83B16FF019
:101460008060184470B1022818D111E0B0F5007FF7
:1014700010D0ED4C204448B1B0F5003F0ED10BE048
:1014800002230DE000230BE0002309E0002307E026
:10149000012305E0012303E0012301E0002300BF55
:1014A00000BFD8B210BD21B1012907D002290FD148
:1014B00009E0826842F0800282600AE0826842F4B9
:1014C0000042826005E0826842F40002826000E02F
:1014D00000BF00BF704710B500F5D87303EB0113D0
:1014E0001B6803F004031372137A53B900F5D87321
:1014F00003EB01131B6840F2FF7404EA53531360BB
:1015000009E000F5D87303EB01131B686FF060442A
:1015100004EAD303536000F5D87303EB01131B688F
:1015200003F00203537200F5D87303EB01135B68F9
:1015300003F00F03937200F5D87303EB01135B689C
:101540001B0AD37400F5D87303EB01139B68D372A5
:1015500000F5D87303EB01139B681C0A147300F5A4
:10156000D87303EB01139B681C0C547300F5D873FC
:1015700003EB01139B681B0E937300F5D87303EB09
:101580000113DB68D37300F5D87303EB0113DB6839
:101590001C0A147400F5D87303EB0113DB681C0CF0
:1015A000547400F5D87303EB0113DB681B0E9374BE
:1015B00021B9C36843F02003C36003E0036943F02B
:1015C0002003036110BD21B9C26842F02002C2604D
:1015D00003E0026942F020020261704702460020E7
:1015E00019B9D36803F0030006E0012903D1136998
:1015F00003F0030000E00020704710B502460B46E0
:1016000000204FF6FF71BBB9146824F0020444F0C7
:101610000104146000E0491E546804F00304012C26
:1016200001D00029F7D1546804F00304012C01D043
:10163000002032E0012030E0012B13D1146824F0A7
:101640000304146000E0491E546804F003040CB164
:101650000029F8D1546804F003040CB100201CE008
:1016600001201AE0022B17D1146824F0010444F081
:101670000204146000E0491E546804F00304022CC4
:1016800001D00029F7D1546804F00304022C01D0E2
:10169000002002E0012000E0002010BD01460020F3
:1016A0000A6822F0010242F002020A604A6802F06F
:1016B0000302022A00D10120704701464FF6FF7253
:1016C00000200B6823F002030B6000E0521E4B6801
:1016D00003F00203022B01D1002AF7D14B6803F07B
:1016E0000203022B00D001207047014600208A69C6
:1016F00002F070007047014600208A69100E7047A2
:10170000014600208A69C2F3074070471AB1436955
:101710000B43436102E043698B434361704710B55B
:101720000246002001F4700343B19369C1F313042E
:1017300023400BB101202DE000202BE001F080734D
:1017400043B15368C1F3130423400BB1012021E0DE
:1017500000201FE001F0006343B19368C1F313045C
:1017600023400BB1012015E0002013E001F00073CD
:1017700043B1D368C1F3130423400BB1012009E046
:10178000002007E01369C1F3130423400BB10120CB
:1017900000E0002010BD0022244B994202D100231A
:1017A000836111E0C1F3130201F000730BB1C26059
:1017B0000AE001F080630BB1026105E001F0006313
:1017C0000BB1826000E0426070470246002002EAEE
:1017D00001030BB1012000E00020704770B5044602
:1017E0000D46002660692840002872D0B5F5807F3C
:1017F00069D01DDC082D42D006DC012D2DD0022D34
:1018000031D0042D7FD134E0102D3ED0202D42D098
:10181000402D78D145E000000300000400030008DB
:1018200000000310000100080001FFF77000F03015
:10183000B5F5004F61D009DCB5F5007F4AD0B5F5AC
:10184000806F4DD0B5F5006F5DD150E0B5F5803FAC
:101850002DD0B5F5003F56D12FE0A0685549FFF7D0
:10186000B4FF064651E0E0680321FFF7AEFF0646ED
:101870004BE0E0680821FFF7A8FF064645E0E06876
:101880001021FFF7A2FF06463FE020690321FFF782
:101890009CFF064639E020690821FFF796FF0646BF
:1018A00033E020691021FFF790FF06462DE06068C5
:1018B0000821FFF78AFF064627E060681021FFF73E
:1018C00084FF064621E0A0690121FFF77EFF06465E
:1018D0001BE01BE0A0690221FFF777FF064614E03A
:1018E000A0690421FFF771FF06460EE00BE0A06936
:1018F0007021FFF76AFF064607E060680421FFF7E2
:1019000064FF064601E0002600BF00E000263046E6
:1019100070BDB1F5007F3AD00FDC202928D006DC5D
:1019200001291CD004291DD0082940D11DE04029DF
:1019300021D0B1F5807F3AD126E0B1F5004F31D00A
:1019400006DCB1F5806F25D0B1F5006F2FD124E012
:10195000B1F5803F12D0B1F5003F28D111E0154A12
:10196000826025E00822C26022E01022C2601FE0EF
:10197000082202611CE01022026119E00822426084
:1019800016E01022426013E00422426010E00422BC
:1019900042600DE0042242600AE0002282610422DB
:1019A000426005E0002282610422426000E000BF44
:1019B00000BF70470101010010B5044698488442F9
:1019C00008D10121084600F088FB0021012000F029
:1019D00084FB76E09348844208D10121022000F084
:1019E0007CFB0021022000F078FB6AE08E488442F4
:1019F00008D10121042000F070FB0021042000F038
:101A00006CFB5EE08948844208D10121082000F087
:101A100064FB0021082000F060FB52E0844884420F
:101A200008D10121102000F058FB0021102000F007
:101A300054FB46E07F48844208D10121202000F079
:101A40004CFB0021202000F048FB3AE07A48844219
:101A500008D10121402000F040FB0021402000F08F
:101A60003CFB2EE07548844208D10121802000F023
:101A700034FB0021802000F030FB22E070488442DB
:101A800008D10121801500F028FB0021A01500F0ED
:101A900024FB16E06B48844208D10121401500F078
:101AA0001CFB0021601500F018FB0AE06648844228
:101AB00007D10121001500F010FB0021201500F0D6
:101AC0000CFB10BDF0B50A4600210023002400BF26
:101AD0003DE0012505FA01F3156805EA03049C427F
:101AE00034D105684F000326BE40B5430560157923
:101AF0004E00B5400668354305601579012D02D0CA
:101B00001579022D16D185684F000326BE40B543D6
:101B1000856055794E00B5408668354385604568D7
:101B200001268E40B5434560456896798E40B6B231
:101B300035434560C5684F000326BE40B543C560C8
:101B4000D5794E00B540C6683543C560491C10299B
:101B5000BFD3F0BD4FF6FF710160002101714171EB
:101B60008171C171704708B54FF480320092009ABC
:101B70000A430092009AC261C161009AC261C269BF
:101B80000092C269009208BD0246002013690B4012
:101B90000BB1012000E0002070470146086980B2C7
:101BA00070470246002053690B400BB1012000E052
:101BB000002070470146486980B270470183704732
:101BC000418370470AB1018300E04183704741615E
:101BD000704742694A4042617047F0B500230024D3
:101BE0004D07ED0E02FA05F3CE1000F1200555F871
:101BF00026504E07F70E0F26BE40B543CF1000F11A
:101C0000200646F82750CE1000F1200555F8265042
:101C100045EA0304CE1000F1200545F82640F0BD4A
:101C2000000002400004024000080240000C024094
:101C3000001002400014024000180240001C024044
:101C4000002002400024024000280240FA480068B8
:101C500040F00100F84908600020F74908310860A9
:101C6000F5480068F5490840F3490860F448091D43
:101C70000860F448F04984310860F1481038091DC3
:101C80000860ED48006820F48020EB4908600020DF
:101C9000E9490C310860E8498C310860704700213F
:101CA000E54A921C117011460870704710B5014644
:101CB0000022002300204A11012A02D1DE4C2368B1
:101CC00008E0022A03D1DC4C7034236802E0DA4CCD
:101CD0007434236801F01F02012494401C400CB1AD
:101CE000012000E0002010BD38B500200090002445
:101CF000002500BF3120FFF7D9FF05460098401CA2
:101D000000904FF6FF710098884201D0002DF1D06D
:101D10003120FFF7CBFF08B1012400E0002420466A
:101D200038BD01460020C44A106820F0F80040EA9F
:101D3000C10010607047C449086070470021BE4A66
:101D4000703211701170012802D004280AD104E009
:101D50000121B94A7032117005E00521B64A70328E
:101D6000117000E000BF00BF7047B84908607047BD
:101D700070B5049C41EA82150126C6EB530645EA7C
:101D80000645054345EA0465AB4E361D356070BD1A
:101D9000AD4908667047820142EA0172A64B84335E
:101DA0001A607047A8498866704710B5830143EAF6
:101DB000016343EA0273A04C8834236010BDA2493A
:101DC00008677047A049C8647047024600209A4BD4
:101DD0000833186820F0EC6042EA01031843964B80
:101DE00008331860704702460020934B0833186888
:101DF00020F0784042EA010318438F4B0833186003
:101E00007047014600208C4A0832106820F0030019
:101E100008431060704788480830006800F00C00E4
:101E2000704701460020844A0832106820F0F00014
:101E3000084310607047014600207F4A083210684E
:101E400020F4E050084310607047014600207A4AB1
:101E50000832106820F4604040EAC100106070470A
:101E6000F0B5002100220024022500260223724F33
:101E700008373F6807F00C0121B1042905D0082973
:101E800037D105E0724F076036E0724F076033E0EC
:101E9000694F3F1D3F68C7F38056674F3F1D3F683E
:101EA00007F03F036EB16B4FB7FBF3F7DFF888C164
:101EB0000CF1040CDCF800C0CCF3881C07FB0CF41C
:101EC0000CE0634FB7FBF3F7DFF86CC10CF1040CC7
:101ED000DCF800C0CCF3881C07FB0CF4564F3F1D08
:101EE0003F68C7F301477F1C7D00B4FBF5F707602F
:101EF00002E0574F076000BF00BF4F4F08373F68F1
:101F000007F0F0010909544F7A5C0768D740476031
:101F1000494F08373F6807F4E051890A4E4F7A5C11
:101F20004768D7408760444F08373F6807F46041EF
:101F3000490B494F7A5C4768D740C760F0BD002124
:101F400000F44072B2F5407F0AD13B4A0832116872
:101F500021F4F811414A02401143374A0832116016
:101F6000354A70321268C0F30B031A43324B703398
:101F70001A60704735494439086070473349403921
:101F800008607047364908607047014600202A4AB9
:101F90008C32106820F01F004A1E1043264A8C32F3
:101FA0001060704701460020234A8C32106820F4EC
:101FB000F8504A1E40EA02201F4A8C3210607047D7
:101FC000014600201C4A8C32106820F4401008435F
:101FD0001060704701460020174A8C32106820F4C8
:101FE000400008431060704701460020124A8C32BE
:101FF000106820F4403008431060704719490860A9
:10200000704739B10C4A3032126802430A4B303300
:102010001A6006E0084A303212688243064B3033B9
:102020001A60704739B1044A343212680243024BD5
:1020300034331A601DE017E000380240FFFFF6EA73
:10204000103000240030002000004742800E47423C
:102050000024F40000127A0026000020FFFCFF0F8D
:102060005C014742E01147428F4A126882438E4B1F
:102070001A60704739B18C4A121D126802438A4BAC
:102080001B1D1A6006E0884A121D12688243864BA7
:102090001B1D1A60704739B1834A0C321268024323
:1020A000814B0C331A6006E07F4A0C32126882437F
:1020B0007D4B0C331A60704739B17B4A103212687D
:1020C0000243794B10331A6006E0774A10321268E7
:1020D0008243754B10331A60704739B1724A243A03
:1020E00012680243704B243B1A6006E06E4A243AA1
:1020F000126882436C4B243B1A60704739B16A4ABC
:10210000203A12680243684B203B1A6006E0664A98
:10211000203A12688243644B203B1A60704739B101
:10212000614A1C3A126802435F4B1C3B1A6006E08E
:102130005D4A1C3A126882435B4B1C3B1A60704735
:1021400039B1594A143A12680243574B143B1A608A
:1021500006E0554A143A12688243534B143B1A6006
:10216000704739B1504A103A126802434E4B103B47
:102170001A6006E04C4A103A126882434A4B103B00
:102180001A60704739B1484A1C3212680243464B04
:102190001C331A6006E0444A1C3212688243424BE8
:1021A0001C331A60704739B13F4A2032126802432B
:1021B0003D4B20331A6006E03B4A203212688243CE
:1021C000394B20331A60704739B1374A24321268CC
:1021D0000243354B24331A6006E0334A2432126836
:1021E0008243314B24331A60704739B12E4A2C3266
:1021F000126802432C4B2C331A6006E02A4A2C3218
:1022000012688243284B2C331A60704739B1264A32
:10221000303212680243244B30331A6006E0224AFF
:10222000303212688243204B30331A6070470128E5
:1022300008D11D493C31096841F008011A4A3C3275
:10224000116007E018493C31096821F00801164A7D
:102250003C321160704739B1134A273A1278024371
:10226000114B273B1A7006E00F4A273A1278824337
:102270000D4B273B1A7070470B484030006840F008
:102280008070094940310860704701460020064AC5
:10229000283A12680A400AB1012000E00020704785
:1022A00001492639087070473438024010B5044699
:1022B000FB48844208D101218014FFF752FF00211E
:1022C000A014FFF74EFF3CE0F648844208D10121FC
:1022D0000014FFF735FF00212014FFF731FF30E035
:1022E000F148844208D10121C013FFF729FF0021E2
:1022F000E013FFF725FF24E0EC48844208D10121D8
:102300004014FFF72EFF00216014FFF72AFF18E0AA
:10231000E748844209D101210805FFF722FF002187
:102320004FF48010FFF71DFF0BE0E248844208D114
:1023300001214805FFF715FF00214FF40010FFF7BA
:1023400010FF10BD10B50022028802F441520B8824
:102350004C8823438C882343CC8823430C89234314
:102360004C8923438C892343CC8923431A4302801D
:10237000838B4FF2FF74234083830B8A038210BD4B
:102380002DE9F04F0025022300244FF0010900221F
:102390000026002794469046B0F81CA04FF2400B50
:1023A0000AEA0B0AA0F81CA04FF0020AA0F820A02D
:1023B000858BD1F808A0BAF1020F01D100BF82E0ED
:1023C000B1F804A0BAF1000F02D14FF0010901E009
:1023D0004FF00209DFF8E0A2DAF800A00AF4000AE0
:1023E000BAF1000F09D0DFF8D0A2DAF800A02AF481
:1023F000000ADFF8C4B2CBF800A0DFF8BCA20AF1F3
:102400007C0ADAF800A0CAF3881CDFF8ACA20AF153
:102410007C0ADAF800A0CAF30278DFF89CA2AAF1DD
:10242000040ADAF800A00AF03F07DFF88CA2AAF14C
:10243000040ADAF800A00AF4800ABAF5800F08D17D
:10244000DFF878A2BAFBF7FA0AFB0CFABAFBF8F647
:1024500007E0DFF86CA2BAFBF7FA0AFB0CFABAFB4A
:10246000F8F6B1F806A0BAF5007F0ED14FEA162AA9
:102470000AEB8A0A4FEA4A0AD1F808B0BAFBFBFA1B
:102480000AF1050A1FFA8AF20FE04FEA491AB6FB71
:10249000FAFA0AEB8A0A4FEA4A0AD1F808B0BAFBFC
:1024A000FBFA0AF1050A1FFA8AF24FF00A0AB2FB98
:1024B000FAF202F00104A2EB040ACAF34F034FF64A
:1024C000FF7A0AEA0424022B01DBFF2B01DD022341
:1024D0000024B1F806A04AEA040A4AEA030AA0F86E
:1024E00020A0B1F804A0B1F80CB04AEA0B0AB1F888
:1024F00002B04AEA0B0AB1F800B04AEA0B0A4AF401
:10250000006A4AEA05058583BDE8F08F0021018055
:1025100041808180C180018141818181C181072108
:10252000018270470021018041808180C1800221A9
:10253000816000218181704721B1028842F0400210
:10254000028004E002884FF6BF731A400280704791
:1025500021B1828B42F48062828304E0828B4FF649
:10256000FF331A408283704702884FF2FF731A408C
:10257000028002880A4302807047B1F5804F04D17F
:10258000028842F48042028004E002884BF6FF7326
:102590001A40028070474FF6FF62914204D00288D1
:1025A00042F48072028004E002884FF6FF631A4012
:1025B0000280704721B1828842F00402828004E0E8
:1025C00082884FF6FB731A408280704721B182885F
:1025D00042F01002828004E082884FF6EF731A40C6
:1025E0008280704730B500220023848B4FF2400573
:1025F0002C40848302240484828B0C88B4F5007FF1
:1026000001D00C8814B94FF4807308E00C88B4F53D
:10261000407F03D00C88B4F5807F00D100238C88E4
:102620008D892C434D882C431C4344F40064224381
:10263000828330BD0146888970478181704721B10E
:10264000028842F40052028004E002884DF6FF73D3
:102650001A4002807047018841F480510180704720
:1026600002460020012901D0108B00E0908A7047BB
:102670000146088A70471AB183880B43838002E0C1
:1026800083888B438380704730B5002400230C116E
:102690000125A540ABB2AAB185881D43858014E011
:1026A0000030014000380040003C00400034014050
:1026B00000500140005401400838024000127A00E6
:1026C0000024F40085889D43858030BD02460020AB
:1026D00013890B400BB1012000E000207047CA4372
:1026E00002817047F0B50246002000240023002537
:1026F00001F00F070126BE40B4B20B1101269E4027
:10270000B3B2968806EA03051689264016B10DB1C4
:10271000012000E00020F0BD10B5002201F00F0400
:102720000123A3409AB2D343038110BD10B50446E0
:10273000FE48844208D101210846FFF712FD00211E
:102740000120FFF70EFD9DE0B4F1804F08D101217B
:102750000846FFF7F5FC00210120FFF7F1FC91E0AE
:10276000F348844208D101210220FFF7E9FC00214F
:102770000220FFF7E5FC85E0EE48844208D1012104
:102780000420FFF7DDFC00210420FFF7D9FC79E0ED
:10279000E948844208D101210820FFF7D1FC00213B
:1027A0000820FFF7CDFC6DE0E448844208D1012108
:1027B0001020FFF7C5FC00211020FFF7C1FC61E0ED
:1027C000DF48844208D101212020FFF7B9FC002115
:1027D0002020FFF7B5FC55E0DA48844208D10121FA
:1027E0000220FFF7BEFC00210220FFF7BAFC49E0FF
:1027F000D548844209D101210804FFF7B2FC002129
:102800004FF48030FFF7ADFC3CE0D048844209D162
:1028100001214804FFF7A5FC00214FF40030FFF729
:10282000A0FC2FE0CA48844209D101218804FFF7A7
:1028300098FC00214FF48020FFF793FC22E0C5486C
:10284000844208D101214020FFF77AFC002140207A
:10285000FFF776FC16E0C048844208D101218020B1
:10286000FFF76EFC00218020FFF76AFC0AE0BB48FE
:10287000844207D101218015FFF762FC0021A015D9
:10288000FFF75EFC10BD00220288A84B98420ED0D4
:10289000AC4B98420BD0B0F1804F08D0A44B98427B
:1028A00005D0A44B984202D0A34B984204D14FF6D6
:1028B0008F731A404B881A43A04B984207D0A04B05
:1028C000984204D04FF6FF431A400B891A43028006
:1028D0004B68C3620B880385944B984202D0994B96
:1028E000984201D18B7A03860123838270474FF08F
:1028F000FF31416000210180018141808172704778
:102900000185828270470A46002101884FF68F7345
:10291000194011430180704741627047C16270479E
:102920000146486A70470146088D704721B1028808
:1029300042F00202028004E002884FF6FD731A4062
:102940000280704721B1028842F00402028004E054
:1029500002884FF6FB731A400280704721B102884B
:1029600042F08002028004E002884FF67F731A4032
:102970000280704702884FF6F7731A40028002887F
:102980000A430280704702884FF6FF431A400280D4
:1029900002880A430280704721B1028842F0010296
:1029A000028004E002884FF6FE731A4002807047EE
:1029B00070B5002400220023058C4FF6FE763540CA
:1029C0000584028C8388048B4FF68F752C40B51ECE
:1029D0002C400D882C43751E2A408D892A434D8832
:1029E0002A43524DA84202D0564DA84213D14FF669
:1029F000F7752A40CD892A434FF6FB752A408D880A
:102A00002A434FF6FF652B404FF6FF552B400D8AAA
:102A10002B434D8A2B43838004838D684563028456
:102A200070BD70B5002400220023058C4FF6EF76B0
:102A300035400584028C8388048B48F6FF752C4052
:102A40004FF6FF452C400D884FF6FF7606EA052528
:102A50002C434FF6DF752A408D8906EA05152A4377
:102A60004D8806EA05152A43304DA84202D0354D5F
:102A7000A8421DD14FF67F752A40CD894FF6FF76CB
:102A800006EA05152A434FF6BF752A408D8806EAE7
:102A900005152A434FF6FF352B404FF2FF752B40AB
:102AA0000D8A06EA85052B434D8A06EA85052B43E8
:102AB000838004838D688563028470BD70B50024B3
:102AC00000220023058C4FF6FF6635400584028CFA
:102AD0008388848B4FF68F752C404FF6FC752C4005
:102AE0000D882C434FF6FF552A408D894FF6FF760F
:102AF00006EA05252A434D8806EA05252A430B4D9B
:102B0000A84202D00F4DA84238D14FF2FF752A409B
:102B1000CD894FF6FF7606EA05252A434FF6FF35A5
:102B20002A408D8806EA05252A4319E00000014065
:102B30000004004000080040000C0040001000406D
:102B400000140040000401400040014000440140E6
:102B50000048014000180040001C004000200040D8
:102B60004EF6FF752B404DF6FF752B400D8A06EA99
:102B700005152B434D8A06EA05152B438380848374
:102B80008D68C563028470BD70B5002200230024E7
:102B9000058C4EF6FF7635400584038C8488828B45
:102BA00048F6FF752A404FF6FF452A400D884FF63C
:102BB000FF7606EA05252A434DF6FF752B408D89E1
:102BC00006EA05352B434D8806EA05352B43FE4DB5
:102BD000A84202D0FD4DA84208D14BF6FF752C400B
:102BE0000D8A4FF6FF7606EA85152C438480828392
:102BF0008D680564038470BD00210180418081805F
:102C000081608181C18101824182704770B5034634
:102C1000002000241846183001258D40ACB21D8CD0
:102C2000A5431D8409B108290AD100EB610005689C
:102C30004FF68F76354005600568154305600FE057
:102C40000D1FC5F34E052844056848F6FF7635404C
:102C5000056005684FF6FF7606EA022635430560F3
:102C600070BD4163704781637047C1637047016401
:102C700070470A460021018B4FF68F7319401143AC
:102C8000018370470A460021018B48F6FF73194003
:102C90004FF6FF7303EA02231943018370470A4684
:102CA0000021818B4FF68F73194011438183704748
:102CB0000A460021818B48F6FF7319404FF6FF73D7
:102CC00003EA02231943818370470A460021018BDE
:102CD0004FF6F77319401143018370470A460021EC
:102CE000018B4FF2FF7319404FF6FF7303EA022383
:102CF0001943018370470A460021818B4FF6F77311
:102D000019401143818370470A460021818B4FF29D
:102D1000FF7319404FF6FF7303EA022319438183BF
:102D200070470A460021018B4FF6FB73194011438F
:102D3000018370470A460021018B4FF6FF3319408B
:102D40004FF6FF7303EA02231943018370470A46D3
:102D50000021818B4FF6FB7319401143818370472B
:102D60000A460021818B4FF6FF3319404FF6FF735F
:102D700003EA02231943818370470A460021018B2D
:102D80004FF67F7319401143018370470A460021B3
:102D9000018BC1F30E014FF6FF7303EA02231943BF
:102DA000018370470A460021818B4FF67F731940DB
:102DB0001143818370470A460021818BC1F30E01C4
:102DC0004FF6FF7303EA02231943818370470A46D3
:102DD0000021018C4FF6FD731940114301847047A7
:102DE0000A460021018C4FF6F77319401143018404
:102DF00070470A460021018C4FF6DF7319404FF6E9
:102E0000FF7303EA02131943018470470A46002145
:102E1000018C4FF67F7319404FF6FF7303EA0213DC
:102E20001943018470470A460021018C4FF6FF5375
:102E300019404FF6FF7303EA0223194301847047D8
:102E40000A460021018C4FF2FF7319404FF6FF73C1
:102E500003EA02231943018470470A460021018CCA
:102E60004DF6FF7319404FF6FF7303EA023319431F
:102E70000184704730B5002301248C40A3B2048C38
:102E80009C430484048C02FA01F5ADB22C43048403
:102E900030BD30B5002304248C40A3B2048C9C4385
:102EA0000484048C02FA01F5ADB22C43048430BDD5
:102EB000828B4FF2FF331A408283828B4FF6FF736F
:102EC00003EA01231A4382837047F0B50C46154686
:102ED000002100220026078C4EF6FF7C07EA0C0733
:102EE0000784818B028C4FF6FF7707EA043640F6A1
:102EF000FF4739404FF6FF7707EA052739434FF67A
:102F0000FF7707EA0337394345F6FF773A4046F43F
:102F100080573A4381830284F0BD828B4FF6F3736E
:102F20001A408283828B0A4382837047F0B50C4635
:102F30001546002100220026078C4FF6FF6C07EA99
:102F40000C070784818B028C4FF6FF7707EA042673
:102F50004FF60C7739404FF6FF7707EA03172F43F8
:102F600039434FF2FF573A4046F480773A43818322
:102F70000284F0BD028B4FF2FF331A400283028BB2
:102F80004FF6FF7303EA01231A4302837047F0B53B
:102F90000C461546002100220026078C4FF6EF7CD8
:102FA00007EA0C070784018B028C4FF6FF7707EACC
:102FB000041640F6FF4739404FF6FF7707EA03371C
:102FC00039434FF6FF7703E0000001400004014061
:102FD00007EA052739434FF65F773A4046F0100776
:102FE0003A4301830284F0BD028B4FF6F3731A401B
:102FF0000283028B0A4302837047F0B50C461546E4
:1030000000210022068C4FF6FE773E400684018B9D
:10301000028C4FF60C7631407E1C06EA03162E43D6
:1030200031434FF6F576324044F0010632430183D6
:103030000284F0BD70B505460C46208850B923893E
:10304000A28861882846FFF7D8FFE1882846FFF765
:10305000CBFF25E0208804280AD12389A288618833
:103060002846FFF794FFE1882846FFF783FF17E023
:10307000208808280AD12389A28861882846FFF77A
:1030800055FFE1882846FFF748FF09E02389A28819
:1030900061882846FFF719FFE1882846FFF708FFF7
:1030A00070BD002101804180012181800021C1800B
:1030B000018170472DE9F04105460C4600260127A5
:1030C000608808B9022600E00026A088012801D106
:1030D000022700E001272088A0B92389A2886188FF
:1030E0002846FFF78AFFE1882846FFF77DFF2389FE
:1030F0003A4631462846FFF74AFFE1882846FFF75F
:1031000039FF13E02389A28861882846FFF73FFF33
:10311000E1882846FFF72EFF23893A4631462846A4
:10312000FFF76BFFE1882846FFF75EFFBDE8F081FF
:103130000146486B70470146886B70470146C86B73
:1031400070470146086C70470A884B881A438B8881
:103150001A43CB881A430B891A434B891A438B892C
:103160001A43A0F8442070470021018041808180EB
:10317000C180018141818181704731B1B0F8442023
:1031800042F40042A0F8442005E0B0F84420C2F325
:103190000E02A0F84420704721B1828842F0040258
:1031A000828004E082884FF6FB731A408280704769
:1031B00021B1828842F00102828004E082884FF6C9
:1031C000FE731A40828070471AB183890B43838152
:1031D00002E083898B438381704781827047024676
:1031E0000020138A0B400BB1012000E00020704743
:1031F000CA430282704730B50246002000230024F3
:10320000158A05EA0103958905EA010413B10CB199
:10321000012000E0002030BDCA430282704741EA2D
:103220000203A0F8483070471AB183890B438381A9
:1032300002E083898B438381704721B1828842F009
:103240000802828004E082884FF6F7731A40828079
:10325000704701894FF6F8721140018170470A46A4
:10326000002101894FF68F73194011430181704786
:1032700030B504460D4629462046FFF7F0FF208969
:1032800040F00700208130BD2DE9F04104460D4695
:1032900016461F46602D06D13B4601223146204688
:1032A000FFF775FE05E03B46012231462046FFF759
:1032B000A4FE29462046FFF7D2FF208940F00700F0
:1032C0002081BDE8F08130B50C4600210189C9B2EA
:1032D0004FF6FF7505EA0325154325432943018170
:1032E00030BD2DE9F04105460E46174698460024AC
:1032F00043463A4631462846FFF7E5FF2C894FF60C
:10330000F870044044F007044FF68F70044044F016
:1033100070042C81BDE8F081F0B504460D461646D8
:103320001F463B46324629462046FFF7CCFF208900
:1033300040F480402081F0BD82884FF68F731A40A0
:10334000828082880A438280704702894FF6F87330
:103350001A40028102890A430281704702894FF6AE
:103360007F731A40028102890A4302817047F0B5D7
:103370000C4615461E460021002200230189028BBF
:10338000038C4FF6F877394021434FF6FC473A401B
:1033900040F201173A434FF6DD773B404FF6FF7797
:1033A00007EA06172F433B43018102830384F0BDE4
:1033B00021B1828842F08002828004E082884FF648
:1033C0007F731A4082807047A0F850107047000049
:1033D00010B50446FA48844208D101211020FEF7B6
:1033E000C0FE00211020FEF7BCFE57E0F5488442E5
:1033F00009D101214804FEF7A3FE00214FF400305B
:10340000FEF79EFE4AE0F048844209D1012188047B
:10341000FEF796FE00214FF48020FEF791FE3DE07E
:10342000EA48844209D10121C804FEF789FE00213F
:103430004FF40020FEF784FE30E0E548844209D1D5
:1034400001210805FEF77CFE00214FF48010FEF7F5
:1034500077FE23E0DF48844208D101212020FEF7D7
:1034600080FE00212020FEF77CFE17E0DA4884422F
:1034700009D101218807FEF763FE00214FF080404B
:10348000FEF75EFE0AE0D548844207D101214005DF
:10349000FEF756FE00216005FEF752FE10BD2DE935
:1034A000FF4705460E460024A14600BFA046B0894E
:1034B00000B100BF2C8A24F44054F08804432C82CD
:1034C000AC8941F20C608443B0883189084371892A
:1034D00008430443AC81AC8A24F44074B0890443AB
:1034E000AC826846FEF7BCFCB548854202D0B948BC
:1034F000854202D1DDF80C9001E0DDF80890A88942
:1035000000F4004040B109EBC90000EB091031683C
:103510004900B0FBF1F707E009EBC90000EB091027
:1035200031688900B0FBF1F76420B7FBF0F00401CB
:103530002009642101FB1078A88900F4004040B103
:10354000322000EBC800B0FBF1F000F007000443AC
:1035500008E0322000EB08106421B0FBF1F000F02D
:103560000F0004432C81BDE8FF874FF41651016022
:1035700000218180C18001810C2141810021818154
:10358000704710B502460020108A20F470600B8846
:103590004C8823438C882343CC88234318431082D0
:1035A00010BD0021018041808180C180704721B120
:1035B000828942F40052828104E082894DF6FF73D1
:1035C0001A4082817047028B02F47F420283028B91
:1035D0000A430283704721B1828942F4004282810A
:1035E00003E08289C2F30E028281704721B1828A90
:1035F00042F40062828204E0828A4FF2FF731A4032
:1036000082827047C1F30802828070470146888831
:10361000C0F308007047028A4FF6F0731A40028226
:10362000028A0A430282704721B1828942F0020273
:10363000828104E082894FF6FD731A4082817047CF
:1036400082894FF2FF731A40828182890A43828104
:103650007047028A4FF6DF731A400282028A0A43D9
:103660000282704721B1028A42F48042028204E061
:10367000028A4BF6FF731A4002827047818941F03B
:1036800001018181704721B1828A42F00802828261
:1036900004E0828A4FF6F7731A4082827047028BE9
:1036A000D2B20283028B42EA01220283704721B127
:1036B000828A42F02002828204E0828A4FF6DF731F
:1036C0001A408282704721B1828A42F010028282BF
:1036D00004E0828A4FF6EF731A4082827047828A32
:1036E0004FF6FB731A408282828A0A4382827047B5
:1036F00021B1828A42F00202828204E0828A4FF67D
:10370000FD731A40828270471AB1838A0B43838209
:1037100002E0838A8B4383827047F0B5034600241E
:1037200000260025002040F66A17B94200D100BFEC
:103730001846C1F3421401F01F06012707FA06F5E7
:10374000012C01D10C3004E0022C01D1103000E03A
:1037500014301AB107682F43076002E00768AF43CF
:103760000760F0BD02460020B1F5007F00D100BF28
:1037700013880B400BB1012000E00020704701F4DA
:103780000072B2F5007F00D100BFCA4302807047CB
:1037900070B50246002400230025002040F66A167A
:1037A000B14200D100BFC1F3421501F01F03012651
:1037B00006FA03F3012D13D19689334017E0000078
:1037C000001001400044004000480040004C004010
:1037D000005000400014014000780040007C004090
:1037E000022D02D1168A334001E0968A33400C1232
:1037F000012606FA04F41688344013B10CB10120F6
:1038000000E0002070BD10B50022002340F66A14CD
:10381000A14200D100BF0A1201249440A3B2DC43AC
:10382000048010BDF7480068F649496808447047AD
:1038300008B5002006230122F3A10090F54814F0FA
:103840001DFAF44808BD70B504460D4604B10DB923
:10385000012070BDAC4201D10020FAE705E02078DC
:1038600008B90020F5E7641C6D1C207814F0F8F905
:103870000646287814F0F4F98642F0D0207814F047
:10388000EFF90646287814F0EBF9301AE1E72DE954
:10389000F04104460D460026002714B90020BDE87B
:1038A000F081204614F06EFB461C3046296888479C
:1038B00007460FB90020F2E732462146384614F099
:1038C000CBFB3846EBE738B9D349D44A1160D44929
:1038D0005160D44991607047CF49D04A1160016866
:1038E00009B101681160CE49CC4A5160416809B103
:1038F000416851600021C94A916011460968C64A71
:10390000914207D1C5494968C54A914202D1C5498A
:10391000C24A916000BFDEE770B5044628202168E6
:10392000884705461DB12821284614F02EFC28465C
:1039300070BD70B50446002522E02568A08900F41A
:10394000807020B9A06810B1A068FFF7F2FFA089CD
:1039500000F4807028B9206918B1B04A2069516814
:103960008847A08900F4007028B9206A18B1AB4AD2
:10397000206A51688847A9484168204688472C46F4
:10398000002CDAD170BD2E207047F0B52DED028BE2
:1039900091B006460C469FEDA40BB0EE408AF0EEC7
:1039A000608A00201090FFF7EEFF074600250CB15B
:1039B000206820B9002011B0BDEC028BF0BD0025BD
:1039C0003CE0A16820680844405D342820D00ADC2F
:1039D000A0F12B0009282ED2DFE800F0202D212AAB
:1039E0002D1617181900382816D006DC352810D0E7
:1039F00036280FD037281ED10DE039280DD04528A4
:103A00000FD0652817D10BE000BF00BF00BF00BF7B
:103A100000BF00BF00BF00BF00BF00BF00BF00BFAE
:103A200000BFA16820680844405D0DF8050003E070
:103A30000DF8057000E00AE000BF6D1C3F2D05D2B7
:103A400024B1A068284461688842BAD300BF00202E
:103A50000DF8050010A9684617F062FAB0EE408A2A
:103A6000F0EE608A68461099884201D10020A2E7F2
:103A700086ED068B9FED6E0B53EC102B51EC180B63
:103A800018F0A8F803D86FF00040706111E09FEDC6
:103A90006A0B53EC102B51EC180B17F061FF03D895
:103AA0004FF00040706104E051EC180B17F0D0FEAD
:103AB00070610820F060A0686A461099891A08446D
:103AC000A060012077E710B52DED028B0446B0EE23
:103AD000408AF0EE608A9FED560B53EC102B51ECB0
:103AE000180B18F077F803D86FF00040606111E010
:103AF0009FED510B53EC102B51EC180B17F030FFCE
:103B000003D84FF00040606104E051EC180B17F04F
:103B10009FFE6061B0EE480AF0EE680A84ED060B85
:103B2000BDEC028B10BD2DE9F04104460D46002688
:103B300000270CB1206810B90020BDE8F081606852
:103B400028B1D4E90110884201D30020F5E7B5F18E
:103B5000004F01D30020F0E7A068401C05446068D6
:103B6000A84203D3A16820680844E6E7206908B1A9
:103B70000020E2E7B5F1804F07D3B5F1004F02D244
:103B80006FF0004702E00020D7E76F00206A60B1C5
:103B90003946226A206890470646E6B9E1692068FE
:103BA0008847002060602060C7E73846A1698847E1
:103BB000064636B9E16920688847002060602060C9
:103BC000BBE72EB1A068421C3046216814F044FACD
:103BD000E1692068884767602660A0683044ACE7E8
:103BE00070B5044600250CB1206800B970BDA1680D
:103BF00020684518284614F0C5F9A1680844A0605B
:103C000000BFF3E73800002025692E25692E2569BD
:103C100000000000E46100200F7A0108400000204D
:103C20006D7A0108BB7A0108000000000000000066
:103C30000000C0FFFFFFDF41000000000000E0C106
:103C40002DE9F0432DED048B89B080460D46002709
:103C500098ED060BB0EE408AF0EE608A0026002454
:103C6000FFF791FE81462DB9002009B0BDEC048B11
:103C7000BDE8F0831FED140B53EC102B51EC180B27
:103C800017F0AAFE41EC190B1FED190B53EC102B8A
:103C900017F0A2FD05D0F8A102A813F0EFFF064629
:103CA0001DE053EC182BF6A102A813F0E7FF06461F
:103CB0006A46F5A102A814F023F9012808D153ECB3
:103CC000182B9DED000B51EC100B17F085FD06D065
:103CD00053EC182BEDA102A813F0D0FF0646002EDE
:103CE00001DB192E01DD0020BFE731462846FFF732
:103CF0001AFF07460FB90020B7E700240BE002A81F
:103D0000005D484502D12E20385503E002A8005D31
:103D1000385500BF641CB442F1D300203855A86860
:103D20003044A8600120A0E702460023002100BF24
:103D300023E0505C302806DB505C392803DC505C03
:103D40003038034415E0505C412806DB505C4628BF
:103D500003DC505C373803440BE0505C612806DB21
:103D6000505C662803DC505C5738034401E00020B7
:103D70007047032900D21B01491C0429D9D31846D6
:103D8000F6E72DE9FF5F80468946154600240026A8
:103D9000C24600200390834602900190A9EB0A00DE
:103DA000062800DA81E00AF10200FFF7BDFF0646AF
:103DB000B6F55C4F03D3B6F5604F00D275E0B6F5AB
:103DC000584F29D3B6F55C4F26D20AF106070020DA
:103DD00000900C200290A9EB0700062800DA64E0AE
:103DE00038785C2802D17878752800D05DE0B81C5E
:103DF000FFF79AFF00900098B0F55C4F03D300984E
:103E0000B0F5604F00D350E0C6F30901009861F3AC
:103E10009F2000F5803402E0062002903446802C7A
:103E200002D20120039018E0B4F5006F04D2022002
:103E30000390C020019010E0B4F5803F04D203202D
:103E40000390E020019008E0B4F5881F04D204201C
:103E50000390F020019000E027E00398401E00F05E
:103E6000FF0B0BE004F0BF0040F08000296801F870
:103E70000B00A409ABF1010000F0FF0BBBF1000F38
:103E8000F0DC0398012804DD0198204329680870BC
:103E900003E004F07F00296808702968039808444B
:103EA0002860029804B0BDE8F09F0020FAE72DE9F1
:103EB000F84F80460C46A16820680844461CA1685B
:103EC00020680844451C002000900027A168206855
:103ED000405C222800D0A6E04FF0000AD1460DE059
:103EE00028785C2809D1681C2168401A61688842DA
:103EF00000D398E009F101096D1C6D1C2068281A97
:103F00006168884202D228782228E9D12068281ADC
:103F10006168884202D22878222800D083E0A16814
:103F200020680844281AA0EB090A0AF10100216957
:103F30008847074607B976E0009761E030785C284B
:103F400007D016F8010B009908700098401C0090EB
:103F500056E04FF00209A81B012800DA63E07078F0
:103F6000662819D008DC222832D02F2832D05C28CD
:103F70002FD0622840D108E06E2814D0722819D0C2
:103F800074281ED0752837D12BE0082000990870BE
:103F90000098401C009030E00C20009908700098B8
:103FA000401C009029E00A20009908700098401CED
:103FB000009022E00D20009908700098401C0090AD
:103FC0001BE00920009908700098401C009014E044
:103FD00000BF00BF7078009908700098401C0090E6
:103FE0000BE06A4629463046FFF7CBFE8146B9F121
:103FF000000F00D117E000E015E000BF4E4400BF05
:10400000AE429BD30020009908701020C8F80C0025
:10401000C8F810702068281AA060A068401CA06032
:104020000120BDE8F88F17B138466169884716B19D
:104030002068301AA0600020F3E72DE9F04707461A
:104040008A46002400260025A046A146BAF1000FAA
:1040500002D10020BDE8F087F7B903215046FFF7F1
:1040600062FD06460EB90020F4E70AA1304613F0BF
:1040700065FF0120EEE700006E756C6C000000002B
:1040800025312E3135670000256C670025312E3132
:1040900037670000222200003C4622E020780C28EE
:1040A00011D006DC08280DD009280FD00A2810D11D
:1040B0000AE00D2809D0222802D05C2809D100E0AE
:1040C00000BF00BF00BF00BF00BF00BF09F1010972
:1040D00005E02078202801DA09F1050900BF00BFBA
:1040E000641C20780028D9D1E01B00EB090808F1F6
:1040F00003015046FFF717FD06460EB90020A9E759
:10410000B9F1000F0FD12220307042463946701CA1
:1041100013F0A2FF222108F1010031540021401CBC
:104120003154012096E722203070751C3C463DE05A
:1041300020781F2808DD2078222805D020785C28E8
:1041400002D0207828702FE05C2005F8010B207841
:104150000C2815D006DC08280FD0092819D00A2809
:104160001AD110E00D2811D0222803D05C2813D1D9
:10417000287018E02220287015E06220287012E0D4
:10418000662028700FE06E2028700CE072202870E6
:1041900009E07420287006E02278F7A1284613F081
:1041A0006DFD2D1D00BF00BF641C6D1C2078002814
:1041B000BED1222108F1010031540021401C3154AC
:1041C000012047E770B504460D4629462069FFF7F0
:1041D00034FF70BD014609B1086808B90020704776
:1041E00002E08868401C886041B1D1E9012090421A
:1041F00004D28A680868805C2028F2DDD1E90120B9
:10420000904202D18868401E88600846E7E710B5F2
:1042100004461CB1206808B1A06808B1002010BD98
:104220007CB1A068001D616888420AD2A26821683A
:1042300088180322D2A113F0C4FE10B9A068C01CD4
:10424000A0602046EBE72DE9F04180460C460027B0
:104250000025E068B0F57A7F02D30020BDE8F08148
:10426000E068401CE06044B1D4E90110884204D207
:10427000A1682068405C7B2800D07BE0A068401CDF
:10428000A0602046FFF7A6FF4CB1D4E90110884298
:1042900005D2A1682068405C7D2800D15DE01CB19A
:1042A000D4E90110884203D3A068401EA06061E0F9
:1042B000A068401EA06000BF04F11000FFF72CFBB7
:1042C000064606B956E017B93746354602E02E6075
:1042D00075603546A068401CA0602046FFF77AFF55
:1042E00021462846FFF7E3FD00B943E02046FFF7EB
:1042F00071FF286928620020286144B1D4E90110C7
:10430000884204D2A1682068405C3A2800D031E09D
:10431000A068401CA0602046FFF75CFF21462846AD
:1043200000F0A8F800B925E02046FFF753FF44B19C
:10433000D4E90110884204D2A1682068405C2C288E
:10434000BAD044B1D4E90110884204D2A1682068EF
:10435000405C7D2800D00DE000BFE068401EE060BA
:104360004020C8F80C00C8F80870A068401CA06085
:10437000012073E717B13846FFF7DBFA00206DE73D
:104380002DE9F04107460C460026B046E068B0F53E
:104390007A7F02D30020BDE8F081E068401CE06035
:1043A000A1682068405C5B2800D05DE0A068401CEC
:1043B000A0602046FFF70EFF4CB1D4E901108842FF
:1043C00005D2A1682068405C5D2800D141E01CB1A5
:1043D000D4E90110884203D3A068401EA06043E0E6
:1043E000A068401EA06000BF04F11000FFF794FA1F
:1043F000054605B938E016B92E46A84604E0C8F8C7
:104400000050C5F80480A846A068401CA060204663
:10441000FFF7E0FE2146404600F02CF800B923E00B
:104420002046FFF7D7FE44B1D4E90110884204D2F8
:10443000A1682068405C2C28D6D044B1D4E9011092
:10444000884204D2A1682068405C5D2800D00BE05F
:1044500000BFE068401EE0602020F860BE60A068F9
:10446000401CA060012096E716B13046FFF761FAC4
:10447000002090E770B505460C460CB1206808B9DD
:10448000002070BDA4B1A068001D616888420FD8EB
:10449000A268216888180422AFF2244113F091FD2C
:1044A00030B90420E860A068001DA0600120E8E7A2
:1044B0009CB1A068401D616888420ED8A26821683E
:1044C000881805222FA113F07CFD30B90120E86087
:1044D000A068401DA0600120D3E7ACB1A068001D1A
:1044E0006168884210D8A26821688818042227A130
:1044F00013F067FD40B90220E86001206861A06800
:10450000001DA0600120BCE76CB1D4E90110884215
:1045100009D2A1682068405C222804D1214628469F
:10452000FFF7C5FCADE7BCB1D4E90110884213D256
:10453000A1682068405C2D2809D0A1682068405CF3
:10454000302809DBA1682068405C392804DC21465A
:104550002846FFF71AFA94E7E4B1D4E9011088423B
:1045600018D2A1682068405C5B2813D121462846F8
:10457000FFF706FF85E7000075253034780000005E
:10458000EFBBBF0066616C736500000074727565F7
:10459000000000006CB1D4E90110884209D2A16882
:1045A0002068405C7B2804D121462846FFF74BFE5B
:1045B00067E7002065E72DE9F04389B004460D4622
:1045C00017461C2102A813F0E0FD00260020F84940
:1045D0000860486004B934E00294204613F0D2FC2D
:1045E000401C039000200490F24A07CA06AB07C3A0
:1045F000F048FFF791F9064606B922E002A8FFF756
:1046000006FE8146FFF7E6FD804641463046FFF74D
:1046100031FF00B915E05FB102A8FFF7DBFDDDE96E
:104620000310884203D204990298405C00B108E06C
:104630001DB10499029808442860304609B0BDE8CD
:10464000F08316B13046FFF774F9C4B1009400202E
:104650000190DDE90310884202D20498019004E041
:10466000039810B10398401E01901DB1DDE90001CF
:1046700008442860CE48DDE9001206C000BF0020D3
:10468000DCE710B50446002211462046FFF793FFF1
:1046900010BD2DE9F04781460C4600250026D9F8CB
:1046A000087014B90020BDE8F087606908B10220E5
:1046B00000E001200646711C2046FFF734FA05464B
:1046C0000DB90020EFE77B2005F8010BE068401CE6
:1046D000E060606910B10A2005F8010BA068304461
:1046E000A06069E06069B8B12046E168FFF71BFA95
:1046F00005460DB90020D6E74FF0000804E0092078
:1047000005F8010B08F10108E0684045F7D8D4E945
:1047100002010844A06000BF2146386AFFF78DFC03
:1047200008B90020BFE72046FFF75AFA606908B1D0
:10473000022000E00120064631462046FFF7F3F94B
:1047400005460DB90020AEE73A2005F8010B606977
:1047500010B1092005F8010BA0683044A060214683
:10476000384600F0A9F808B900209CE72046FFF77A
:1047700037FA606908B1012000E00020396809B10A
:10478000012100E000214618711C2046FFF7CBF9FB
:1047900005460DB9002086E7386810B12C2005F8D1
:1047A000010B606910B10A2005F8010B0020287088
:1047B000A0683044A0603F68002F93D1606910B1B9
:1047C000E068401C00E0022001462046FFF7ABF9FC
:1047D00005460DB9002066E7606950B1002003E08E
:1047E000092105F8011B401CE168491E8142F7D8E8
:1047F00000BF7D2005F8010B00202870E068401EF6
:10480000E06001204FE72DE9F04107460C46002506
:10481000A846BE6814B90020BDE8F08101212046F9
:10482000FFF781F905460DB90020F5E75B202870F8
:10483000A068401CA060E068401CE06028E02146C1
:10484000304600F039F808B90020E5E72046FFF7C8
:10485000C7F93068D8B1606908B1022000E00120D2
:10486000804608F101012046FFF75DF905460DB9C4
:104870000020D1E72C2005F8010B606910B1202041
:1048800005F8010B00202870A0684044A06036683D
:10489000002ED4D102212046FFF745F905460DB977
:1048A0000020B9E75D2005F8010B00202870E068C2
:1048B000401EE0600120AFE72DE9F04104460D46BF
:1048C000002604B115B90020BDE8F081207B102836
:1048D0005FD008DC01281CD0022829D0042809D088
:1048E00008286AD133E0202858D040285BD080289F
:1048F00063D131E005212846FFF715F906460EB9C8
:104900000020E1E7AFF69001304613F017FB0120DD
:10491000DAE706212846FFF706F906460EB9002019
:10492000D2E7AFF2A031304613F008FB0120CBE70D
:1049300005212846FFF7F7F806460EB90020C3E721
:10494000AFF2B831304613F0F9FA0120BCE729463E
:104950002046FFF775F9B7E70027206930B92869C5
:1049600010B9E969286888470020ADE7206913F08D
:1049700009FB471C39462846FFF7D5F806460EB90D
:104980000020A1E73A463046216913F065FB01207B
:104990009AE729462046FFF715FC95E72946204669
:1049A000FFF731FF90E729462046FFF772FE8BE7BD
:1049B0003800002040000020FFE7002084E7F0B529
:1049C00089B007460E46144600252421684613F098
:1049D000DCFB4FF480702168884700900596D4E98D
:1049E00001022168CDE907020691009800B931E083
:1049F00069463846FFF760FF00B92BE06846FFF7CD
:104A0000EFF8A06840B1DDE90001A26890470546D3
:104A100000200090DDB91DE0029A501C21688847F3
:104A2000054605B916E0DDE90130401C834201D29C
:104A3000019801E00298401C02462846009913F0B4
:104A40000BFB00200299685400986168884728464B
:104A500009B0F0BD009810B100986168884715B1A1
:104A60002846616888470020F2E710B50446FE4AF0
:104A700001212046FFF7A3FF10BD10B50446FA4AF6
:104A800000212046FFF79BFF10BD70B58AB0064697
:104A90000C461546242101A813F077FB002C02DAFE
:104AA00000200AB070BDF048016820468847019098
:104AB000019808B90020F4E70294002003900590C3
:104AC0000695E94A07CA07AB07C301A93046FFF7B5
:104AD000F3FE28B9E44A0198516888470020E0E7CE
:104AE0000198DEE7F0B589B007460C4615461E462C
:104AF0002421684613F049FB002D00DB14B9002087
:104B000009B0F0BD009401950020029001200490AE
:104B10000596D54A07CA06AB07C369463846FFF76C
:104B2000CBFEEDE701460022002309B900207047C3
:104B30008A6801E05B1C1268002AFBD11846F6E780
:104B400002460B4600210AB900207047916801E037
:104B50005B1E096809B1002BFAD10846F5E770B56C
:104B600005460C46002C01DA002070BD214628467F
:104B7000FFF7E6FFF9E72DE9F04105460E46174637
:104B8000002405B116B90020BDE8F081AC684FB132
:104B900000E024687CB13046216A13F01DFB002838
:104BA000F7D108E000E024682CB13046216AFEF716
:104BB0004AFE0028F7D12046E6E770B504460D46C8
:104BC000002229462046FFF7D6FF70BD70B5044687
:104BD0000D46012229462046FFF7CDFF70BD70B576
:104BE00004460D4629462046FFF7E7FF08B101209D
:104BF00070BD0020FCE701604860704770B5054655
:104C00000E4600240DB9002070BD3046FEF784FE2C
:104C100004460CB90020F7E728222946204613F065
:104C200060FA00202062E06840F48070E0600020BC
:104C3000606020602046E7E770B504460E46002518
:104C400006B104B970BDA5680DB9A66008E000E022
:104C50002D6828680028FBD131462846FFF7CBFF96
:104C600000BFEFE770B506460D46144604B105B91E
:104C700070BDA08900F4007028B9206A18B17A4A82
:104C8000206A516888472562E06840F40070E0605F
:104C900021463046FFF7D0FF00BFE9E72DE9F0419C
:104CA00006460D4614460CB9BDE8F0816E4928460B
:104CB000FEF7EDFD0746224639463046FFF7D2FFA4
:104CC000E06820F40070E06000BFEDE770B50446D6
:104CD0000D4604B970BD64492846FFF78FFF0646AC
:104CE00031462046FFF7A8FF00BFF3E72DE9F0416A
:104CF00004460D46164604B10DB9BDE8F0815A4987
:104D00003046FFF77BFF07463A4629462046FFF725
:104D1000C5FF00BFF1E7024602B109B900207047A4
:104D2000486810B1D1E900031860086810B1D1E9F2
:104D3000003058609068884201D108689060002077
:104D4000486008600846EAE770B505460C46002C46
:104D500001DA002070BD21462846FFF7F1FE064625
:104D600031462846FFF7D7FFF4E770B504460D46F5
:104D700029462046FFF7E8FF0646FEF7DAFD70BD3C
:104D800070B504460D4629462046FFF716FF064635
:104D900031462046FFF7BFFF70BD70B504460D4693
:104DA00029462046FFF712FF064631462046FFF708
:104DB000B2FF70BD70B504460D4629462046FFF788
:104DC000DFFF0646FEF7B5FD70BD70B504460D4623
:104DD00029462046FFF7E1FF0646FEF7AAFD70BD13
:104DE0002DE9F04106460F4614460025002F01DA52
:104DF000BDE8F08139463046FFF7A2FE054625B9E9
:104E000021463046FFF718FFF2E7256068686060CA
:104E10006C60B068A84201D1B46001E060680460D1
:104E200000BFE5E770B506460D4614460EB104B165
:104E30000DB9002070BDAC4201D10120FAE728680D
:104E4000206068686060206808B12068446060681D
:104E500008B160680460B068A84200D1B460002066
:104E600028606860284601E040000020FEF761FDF0
:104E70000120DFE72DE9F04105460C461646002CDF
:104E800001DABDE8F08121462846FFF759FE0746C2
:104E9000324639462846FFF7C5FF00BFF1E710B597
:104EA0000446F84841682046884710BD2DE9F04186
:104EB00007460D4614461E4604B115B90020BDE84C
:104EC000F081A08900F4007020B9206A10B1206A36
:104ED000FFF7E5FFEB492846FEF7D9FC2062E068C2
:104EE00020F40070E060324629463846FFF743FE62
:104EF0008046224641463846FFF794FF0120DEE710
:104F000070B504460D461646002332462946204613
:104F1000FFF7CCFF70BD70B504460D461646012361
:104F2000324629462046FFF7C1FF70BD10B5D5486F
:104F3000FEF7F2FC04460CB10420E060204610BDF0
:104F400010B5D048FEF7E8FC04460CB10220E06042
:104F5000204610BD10B5CB48FEF7DEFC04460CB170
:104F60000120E060204610BD70B50546C548FEF73B
:104F7000D3FC044624B10DB1022000E00120E06022
:104F8000204670BD10B52DED028BB0EE408AF0EEDC
:104F9000608ABC48FEF7C0FC044614B30820E060F9
:104FA00084ED068B9FEDB80B53EC102B51EC180BD6
:104FB00016F010FE03D86FF00040606111E09FED25
:104FC000B40B53EC102B51EC180B16F0C9FC03D8A2
:104FD0004FF00040606104E051EC180B16F038FC13
:104FE00060612046BDEC028B10BD70B50546A5483A
:104FF000FEF792FC04466CB11020E060A1492846FF
:10500000FEF745FC2061206920B92046FEF791FC9F
:10501000002070BD2046FCE770B505469948FEF7B4
:105020007BFC04466CB18020E06096492846FEF780
:105030002EFC2061206920B92046FEF77AFC002072
:1050400070BD2046FCE710B58E48FEF765FC0446AF
:105050000CB12020E060204610BD10B58948FEF755
:105060005BFC04460CB14020E060204610BD2DE9F9
:10507000F0472DED028B06460F4600240025A14681
:10508000A046002F00DB26B90020BDEC028BBDE856
:10509000F087FFF7D8FF804600241CE056F8240074
:1050A00016F033FC41EC180BB0EE480AF0EE680A3B
:1050B000FFF768FF054625B94046FEF73AFC002099
:1050C000E3E714B9C8F8085003E029464846FFF75B
:1050D00092FDA946641CB8F1000F01D0BC42DDD39B
:1050E0004046D2E72DE9F0472DED028B06460F46EC
:1050F00000240025A146A046002F00DB26B9002091
:10510000BDEC028BBDE8F087FFF79DFF80460024D1
:1051100021E006EB840090ED000A10EE101A08461C
:1051200016F050FF41EC180BB0EE480AF0EE680A9A
:10513000FFF728FF054625B94046FEF7FAFB002099
:10514000DEE714B9C8F8085003E029464846FFF7DF
:1051500052FDA946641CB8F1000F01D0BC42D8D35F
:105160004046CDE72DE9F04706460F4600240025CE
:10517000A146A046002F00DB16B90020BDE8F0874D
:10518000FFF761FF804600241AE006EBC40090EDB3
:10519000001BB0EE410AF0EE610AFFF7F3FE054690
:1051A00025B94046FEF7C5FB0020E7E714B9C8F86B
:1051B000085003E029464846FFF71DFDA946641C38
:1051C000B8F1000F01D0BC42DFD34046D6E72DE94D
:1051D000F04706460F4600240025A146A046002FB2
:1051E00000DB16B90020BDE8F087FFF72CFF8046F2
:1051F000002414E056F82400FFF7F7FE054625B911
:105200004046FEF796FB0020EDE714B9C8F80850B9
:1052100003E029464846FFF7EEFCA946641CB8F1B6
:10522000000F01D0BC42E5D34046DCE72DE9F04752
:105230000446894600250027A846002604B952E006
:105240001048FEF769FB054605B94CE0E06820F41C
:105250008070E8606069686194ED060B85ED060B6F
:10526000206938B107492069FEF711FB28612869D8
:1052700000B938E0206AB8B1A08900F4007058B1D4
:10528000206A0DE0400000200000C0FFFFFFDF416A
:10529000000000000000E0C1E249206AFEF7F7FAD2
:1052A0002862286A00B91EE0B9F1000F02D1284631
:1052B000BDE8F087A76812E001213846FFF7B6FF86
:1052C000064606B90FE0B8F1000F05D0C8F8006037
:1052D000C6F80480B04601E0AE60B0463F68002FDB
:1052E000EAD12846E4E715B12846FEF722FB002064
:1052F000DEE7014600B9704755E00278202A01D167
:10530000401C50E00278092A01D1401C4BE0027891
:105310000D2A01D1401C46E002780A2A01D1401C26
:1053200041E002782F2A0BD142782F2A08D100E0E1
:10533000401C0278002A36D002780A2A33D0F7E7D8
:1053400002782F2A0ED142782A2A0BD100E0401C85
:1053500002782AB102782A2AF9D142782F2AF6D186
:10536000801C20E00278222A19D110F8012B01F8C4
:10537000012B0AE002785C2A03D110F8012B01F816
:10538000012B10F8012B01F8012B027812B10278E1
:10539000222AEFD110F8012B01F8012B03E010F8BD
:1053A000012B01F8012B0278002AA6D10A7000BF58
:1053B000A1E7014609B900207047087B08B9012020
:1053C000FAE70020F8E7014609B900207047087B9A
:1053D000012800D1FAE70020F8E7014609B90020CA
:1053E0007047087B022801D10120F9E70020F7E788
:1053F000014609B900207047087B00F0030008B19E
:105400000120F8E70020F6E7014609B900207047BF
:10541000087B042801D10120F9E70020F7E70146C5
:1054200009B900207047087B082801D10120F9E75D
:105430000020F7E7014609B900207047087B1028D3
:1054400001D10120F9E70020F7E7014609B9002062
:105450007047087B202801D10120F9E70020F7E7F9
:10546000014609B900207047087B402801D101207E
:10547000F9E70020F7E7014609B900207047087BEB
:10548000802801D10120F9E70020F7E72DE9F0415C
:1054900004460D46904644B13DB1207B297B8842AD
:1054A00003D12046FFF785FF10B10020BDE8F08151
:1054B000207B102814D008DC01280DD002280CD045
:1054C00004280BD008280FD109E020280AD0402852
:1054D00009D0802808D104E000BF00BF00BF00BF92
:1054E00000BF00BF00BF01E00020DFE700BFAC420B
:1054F00001D10120DAE7207B10282BD008DC01281D
:105500000DD002280CD004280BD0082873D10AE053
:1055100020282FD0402843D080287AD11BE000BF1C
:1055200000BF0120C2E795ED062BB0EE420AF0EE77
:10553000620A94ED062BB0EE421AF0EE621A53ECBA
:10554000102B51EC110B16F047F901D10120ADE7FA
:105550000020ABE700BF206908B1286908B9002026
:10556000A4E72969206912F037FE08B901209DE7F8
:1055700000209BE7A668AF6809E0424639463046FE
:10558000FFF784FF08B9002090E736683F680EB146
:10559000002FF2D1BE4201D0002087E7012085E72D
:1055A000002600270CB1A06800E00020064611E0AC
:1055B00042462846316AFFF7DEFA07460FB9002057
:1055C00074E7424639463046FFF760FF08B90020CD
:1055D0006CE73668002EEBD10DB1A86800E0002022
:1055E000074612E042462046396AFFF7C4FA0646EB
:1055F00016B900205AE70CE0424631463846FFF71C
:1056000045FF08B9002051E73F68002FEAD101208B
:105610004CE700204AE710B50446024801682046DE
:10562000884710BD400000201FB501210220FCF773
:1056300032FDF948FDF77AF840F2E7300290532046
:10564000ADF804000020ADF80600ADF80C0001A98B
:10565000F148FDF718F901224121EF48FDF7B4FDAB
:105660001D208DF8000002208DF8010001208DF82A
:1056700002008DF803006846FBF73BFC0121E64879
:10568000FDF78AF91FBD1FB501210820FCF703FDB6
:10569000E248FDF74BF8312002905320ADF80400AA
:1056A0000020ADF80600ADF80C0001A9DB48FDF7BD
:1056B000EAF801221146D948FDF786FD32208DF81F
:1056C000000001208DF8010003208DF80200012068
:1056D0008DF803006846FBF70CFC0121CF48FDF76D
:1056E0005BF91FBD38B5FCF7B1FA0120FCF7D7FA1A
:1056F000FCF7FAFA044600BF012CFDD12CD10020A2
:10570000FCF746FBC648006840F44040C4490860C6
:105710000020FCF786FB2003FCF797FB4FF4A0501A
:10572000FCF789FB042002234FF4A87208210090A3
:105730000005FCF71DFB0120FCF72AFB00BF392008
:10574000FCF7B4FA0028FAD00220FCF75AFB00BF9D
:10575000FCF761FB0828FBD138BD2DE9FF4F03465C
:105760000C4600250027AC46A846A946AD490226AE
:105770004FF0010A062003904FF0050B0020029025
:1057800001900090012B0ED149105E044FF4803A35
:10579000042003904FF0030B01200290042001909D
:1057A0000005009005E0022B03D0072004B0BDE8FF
:1057B000F08F192C71D2DFE804F00D17212B353F43
:1057C00049535D67717B858F99A3ADB7C1CBD5DF99
:1057D000E9F5FF009448B1FBF0F74FF0600C4FF093
:1057E00008084FF00209FBE08F48B1FBF0F74FF0DB
:1057F000600C4FF006084FF00209F1E08B48B1FB56
:10580000F0F74FF0480C4FF008084FF00309E7E0BD
:105810008648B1FBF0F74FF0600C4FF008084FF0EE
:105820000409DDE08148B1FBF0F74FF0780C4FF050
:1058300008084FF00509D3E07C48B1FBF0F74FF0C2
:10584000600C4FF006084FF00409C9E07748B1FB3F
:10585000F0F74FF0900C4FF008084FF00609BFE04A
:105860007248B1FBF0F74FF0780C4FF006084FF09C
:105870000509B5E06D48B1FBF0F74FF0A80C4FF00B
:1058800008084FF00709ABE06848B1FBF0F74FF0AC
:10589000C00C4FF00808C146A2E097E06348B1FB96
:1058A000F0F74FF0D80C4FF008084FF0090997E0D7
:1058B0005E48B1FBF0F74FF0A80C4FF006084FF030
:1058C00007098DE05948B1FBF0F74FF0780C4FF025
:1058D00004084FF0050983E05448B1FBF0F74FF09E
:1058E000C00C4FF006084FF0080979E04F48B1FBB3
:1058F000F0F74FF0900C4FF004084FF006096FE0FE
:105900004A48B1FBF0F74FF0F00C4FF006084FF0AB
:105910000A0965E04548B1FBF0F74FF0A80C4FF0DD
:1059200004084FF007095BE04048B1FBF0F74FF087
:10593000C00C4FF004084FF0080951E03B48B1FBA0
:10594000F0F74FF0D80C4FF004084FF0090947E08A
:105950003648B1FBF0F74FF0780C4FF002084FF0EB
:1059600005093DE03148B1FBF0F74FF0900C4FF0E6
:1059700002084FF0060933E02C48B1FBF0F74FF076
:10598000A80C4FF002084FF0070929E02748B1FBA7
:10599000F0F74FF0C00C4FF002084FF008091FE07D
:1059A0000AE0FFE72148B1FBF0F74FF0D80C4FF0C9
:1059B00002084FF0090913E01C48B1FBF0F74FF063
:1059C000F00C4FF002084FF00A0909E01748B1FB4C
:1059D000F0F74FF0F00C4FF002084FF00A0900BF4B
:1059E00000BF1348006800EA0602A2B91048006828
:1059F00040EA0A00DFF838E0CEF8000000BF0C48AB
:105A0000006800EA06026D1C12B9B5F5C06FF6D346
:105A10000AB90398CAE60DE000040040000C0040FB
:105A2000007000400024F40040420F0080841E00FB
:105A300000380240B048006820F00300DFF8B8E208
:105A4000CEF8000070460068DDF808E040EA0E007D
:105A5000DFF8A4E2CEF8000000BFA748006800F01D
:105A60000C0E01988645F8D1A3480838006820F04C
:105A70008070DFF884E2AEF1080ECEF800007046C8
:105A8000006820F08060CEF8000047EA8C104FF0EC
:105A9000010ECEEB580E40EA0E4040EA0960DDF8F8
:105AA00000E040EA0E00DFF850E2AEF1040ECEF85E
:105AB0000000AEF10400006840F08070AEF1040E0A
:105AC000CEF8000000BF8C480838006800F0007075
:105AD0000028F8D088480838006840F08060DFF877
