:020000040800F2
:10000000D013002029020008F5060008F7060008B2
:10001000FB060008FF0600080307000800000000B8
:1000200000000000000000000000000007070008BA
:1000300009070008000000003F0200084102000814
:10004000430200084302000843020008430200087C
:10005000430200084302000843020008E1080008C8
:10006000430200084302000843020008430200085C
:10007000430200084302000843020008430200084C
:10008000430200084302000843020008430200083C
:10009000430200084302000843020008331200082C
:1000A000430200084302000843020008430200081C
:1000B0000B07000861110008430200084302000812
:1000C00043020008430200084302000843020008FC
:1000D0004302000885180008711900081F1A00085B
:1000E00043020008430200084302000843020008DC
:1000F00043020008430200084302000843020008CC
:1001000043020008430200084302000843020008BB
:10011000CD1A0008B11B0008430200084302000882
:10012000430200084302000843020008430200089B
:10013000430200084302000843020008430200088B
:10014000430200084302000843020008430200087B
:10015000430200084302000843020008F51C00089F
:10016000430200084302000843020008430200085B
:10017000430200084302000843020008430200084B
:10018000430200084302000800F002F800F03CF8C7
:100190000AA090E8000C82448344AAF10107DA45E2
:1001A00001D100F031F8AFF2090EBAE80F0013F0F8
:1001B000010F18BFFB1A43F001031847FC6F000042
:1001C0001C700000103A24BF78C878C1FAD85207D2
:1001D00024BF30C830C144BF04680C6070470000C1
:1001E0000023002400250026103A28BF78C1FBD840
:1001F000520728BF30C148BF0B6070471FB506F0DB
:10020000D5FF1FBD10B510BD06F0D1FA1146FFF79E
:10021000F5FF00F051FA06F0EFFA03B4FFF7F2FF32
:1002200003BC01F047F8000009488047094800472F
:10023000FEE7FEE7FEE7FEE7FEE7FEE7FEE7FEE796
:10024000FEE7FEE704480549054A064B70470000F3
:100250004703000889010008D0070020D0130020C0
:10026000D00B0020D00B00200CB500200190009096
:100270007648006840F480307449086000BF7348D5
:10028000006800F4003000900198401C0190009834
:1002900020B94FF6FF7101988842F0D16B48006891
:1002A00000F4003010B10120009001E00020009027
:1002B0000098012846D165484030006840F08050E1
:1002C0006249403108606248006840F4404060493B
:1002D00008605E48083000685C49083108600846DC
:1002E000006840F4004008600846006840F4A050F0
:1002F00008605848091F0860081F006840F08070B7
:10030000091F086000BF5148006800F00070002815
:10031000F9D040F20570504908604C480830006838
:1003200020F003004949083108600846006840F0A1
:100330000200086000BF45480830006800F00C006B
:100340000828F8D10CBD10B54448006840F470008E
:10035000424908603D48006840F001003B490860A0
:1003600000203A4908310860384800683C49084094
:10037000364908603B48091D0860081F006820F4E2
:100380008020091F0860002030490C310860FFF709
:100390006BFF4FF0006031498039086010BD70B5C7
:1003A00000200022022300240221284D08352D6858
:1003B00005F00C0020B1042806D0082834D107E04D
:1003C000294D2A4E356033E0294D284E35602FE007
:1003D0001E4D2D1D2D68C5F380541C4D2D1D2D68FF
:1003E00005F03F0154B1224DB5FBF1F5174E361D16
:1003F0003668C6F3881605FB06F209E01A4DB5FB10
:10040000F1F5124E361D3668C6F3881605FB06F266
:100410000E4D2D1D2D68C5F301456D1C6B00B2FB03
:10042000F3F5124E356003E00F4D104E356000BFFE
:1004300000BF064D08352D68C5F303150D4E705DE0
:100440000A4D2D68C540094E356070BD0038024028
:100450000070004008544007003C024088ED00E076
:10046000FFFFF6FE103000240024F40000000020FE
:1004700000127A00040000209B48007800F0010080
:1004800028B19948007820F001009749087070471A
:1004900010B595480078C0F3C00078B19248007854
:1004A00020F0080090490870904901F1C50003F060
:1004B000ABFB1D218D48253803F072FB10BD10B534
:1004C00089480078C0F3801060B18748007820F038
:1004D000400085490870854AA632072102F1840050
:1004E00003F00EFC10BD10B57F4800780121B1EB80
:1004F000D01F54D17C48007820F080007A490870E1
:100500007A48253890F8640100F00100002846D0B0
:1005100077480068401C764908600868C11700EBFE
:1005200091718910A0EB8101012904D108216F4844
:10053000973003F0AFFD6E490868C11700EB917169
:100540008910A0EB8101022904D108216748973066
:1005500003F0B6FD66490868C11700EB9171891078
:10056000A0EB8101032904D108216048973003F0F2
:10057000BDFD5F490868C11700EB91718910A0EBC0
:10058000810161B900205A4908605848253890F81F
:10059000640120F001005549253981F8640110BD3E
:1005A00010B55148407800F0010058B14E484078ED
:1005B00020F001004C49487002F015FE02F025FEC3
:1005C00002F031FE10BD10B547484078C0F340003E
:1005D00038B14548407820F002004349487003F0A4
:1005E0005AFC10BD10B540484078C0F3800090B16F
:1005F0003D48407820F004003B494870052207211F
:100600003A485A3002F061FF382138485F3002F032
:100610004CFE02F0E5FE10BD33484078C0F3C00048
:1006200028B13148407820F008002F4948707047C1
:1006300010B52D484078C0F3001098B12A48407892
:1006400020F010002849487009212848303003F074
:10065000F0FC03F0D5FC092124481E3003F013F808
:1006600002F0F2FF10BD10B500F0D4FCFFF76BFEF6
:10067000A82000F007FC00F0A0F900F03FF901F01D
:100680004CFD4FF4FA7000F05FFC01F06AF803F0E3
:100690000FFC01F051FB4FF4FA7000F055FC03F031
:1006A000E1FB4FF4FA7000F04FFC02F0B1F802F0F9
:1006B00079FF00F04FFD10BDFFF7D5FF03F035FCCB
:1006C00011E0FFF7D9FEFFF7E3FEFFF7F8FEFFF7B3
:1006D0000AFFFFF765FFFFF776FFFFF783FFFFF7DE
:1006E0009BFFFFF7A5FFECE72000002001010020A1
:1006F00014000020704700BFFEE700BFFEE700BF08
:10070000FEE700BFFEE77047704710B5012188077C
:1007100005F071FC00287CD00121880705F07CFCE5
:1007200070480088401C6F4908806F48007820F0AE
:100730000100401C6C4908706A480088052190FB44
:10074000F1F201FB120030B96748007820F0040094
:10075000001D65490870634800880A2190FBF1F28A
:1007600001FB120030B96048007820F00800083022
:100770005D4908705B480088142190FBF1F201FB91
:10078000120030B95848007820F010001030564957
:10079000087054480088322190FBF1F201FB1200EE
:1007A00030B95148007820F0400040304E49087080
:1007B0004C480088642190FBF1F201FB120030B933
:1007C0004948007820F0800080304749087045484B
:1007D0000088C82190FBF1F201FB120030B94248B9
:1007E000407820F00100401C3F4948703D48008897
:1007F0004FF4FA7190FBF1F201FB120030B93A4864
:10080000407820F00200801C374948703548008845
:1008100000E064E0B0F57A7F52D13348407820F0B0
:100820000400001D3049487030480078401C2F49B2
:1008300008702F4890F86401C0F3C00020B109216E
:100840002B484C3002F0DBFE294890F86401C0F3DD
:10085000001060B1264890F8640120F0100024498F
:1008600081F86401092122485E3003F0A4FB1F488F
:100870000078052190FBF1F201FB120048B900203D
:100880001A4908701848407820F0100010301649B6
:10089000487015484078C0F3401088B1154800787A
:1008A000401C1449087008460078032808DB002023
:1008B00008701148007820F00100401C0E490870B3
:1008C00008480088B0F5966F09D1002005490880D6
:1008D0000548407820F0080008300349487010BDF2
:1008E000704700001C000020200000201E00002097
:1008F000DC0000201F000020260000201FB5012181
:10090000084604F0BEFC4FF0804004F00FFE40F2B9
:10091000E73002905320ADF804000020ADF8060047
:10092000ADF80C0001A94FF0804004F0ACFE0122AC
:100930004121880705F048FB1C208DF800000120AC
:100940008DF801008DF802008DF80300684603F071
:1009500030FC0121880704F01FFF1FBD1FB50121D6
:10096000082004F08EFCFE4804F0E0FD31200290E7
:100970005320ADF804000020ADF80600ADF80C00DF
:1009800001A9F74804F07FFE01221146F44805F062
:100990001BFB32208DF8000001208DF801000320A0
:1009A0008DF8020001208DF80300684603F001FC79
:1009B0000121EB4804F0F0FE1FBD38B504F03CFA0D
:1009C000012004F062FA04F085FA044600BF012C0D
:1009D000FDD12CD1002004F0D1FAE248006840F4A7
:1009E0004040E0490860002004F011FB200304F0BF
:1009F00022FB4FF4A05004F014FB042002234FF418
:100A0000A87208210090000504F0A8FA012004F063
:100A1000B5FA00BF392004F03FFA0028FAD00220CE
:100A200004F0E5FA00BF04F0ECFA0828FBD138BD69
:100A30002DE9FF4F03460C4600250027AC46A8468B
:100A4000A946C94902264FF0010A062003904FF03B
:100A5000050B0020029001900090012B0ED149104F
:100A60005E044FF4803A042003904FF0030B012002
:100A70000290042001900005009005E0022B03D0B5
:100A8000072004B0BDE8F08F192C71D2DFE804F024
:100A90000D17212B353F49535D67717B858F99A3D6
:100AA000ADB7C1CBD5DFE9F5FF00B048B1FBF0F73A
:100AB0004FF0600C4FF008084FF00209FBE0AB4824
:100AC000B1FBF0F74FF0600C4FF006084FF0020951
:100AD000F1E0A748B1FBF0F74FF0480C4FF00808E1
:100AE0004FF00309E7E0A248B1FBF0F74FF0600CCC
:100AF0004FF008084FF00409DDE09D48B1FBF0F726
:100B00004FF0780C4FF008084FF00509D3E09848F3
:100B1000B1FBF0F74FF0600C4FF006084FF00409FE
:100B2000C9E09348B1FBF0F74FF0900C4FF0080884
:100B30004FF00609BFE08E48B1FBF0F74FF0780C9C
:100B40004FF006084FF00509B5E08948B1FBF0F712
:100B50004FF0A80C4FF008084FF00709ABE08448AD
:100B6000B1FBF0F74FF0C00C4FF00808C146A2E00F
:100B700097E07F48B1FBF0F74FF0D80C4FF0080832
:100B80004FF0090997E07A48B1FBF0F74FF0A80C55
:100B90004FF006084FF007098DE07548B1FBF0F7FC
:100BA0004FF0780C4FF004084FF0050983E07048CF
:100BB000B1FBF0F74FF0C00C4FF006084FF00809FA
:100BC00079E06B48B1FBF0F74FF0900C4FF0040860
:100BD0004FF006096FE06648B1FBF0F74FF0F00CFC
:100BE0004FF006084FF00A0965E06148B1FBF0F7E5
:100BF0004FF0A80C4FF004084FF007095BE05C4889
:100C0000B1FBF0F74FF0C00C4FF004084FF00809AB
:100C100051E05748B1FBF0F74FF0D80C4FF0040803
:100C20004FF0090947E05248B1FBF0F74FF0780C5C
:100C30004FF002084FF005093DE04D48B1FBF0F7D9
:100C40004FF0900C4FF002084FF0060933E048488F
:100C5000B1FBF0F74FF0A80C4FF002084FF0070976
:100C600029E04348B1FBF0F74FF0C00C4FF0020809
:100C70004FF008091FE00AE0FFE73D48B1FBF0F73D
:100C80004FF0D80C4FF002084FF0090913E0384834
:100C9000B1FBF0F74FF0F00C4FF002084FF00A09EB
:100CA00009E03348B1FBF0F74FF0F00C4FF00208C9
:100CB0004FF00A0900BF00BF2E48006800EA060294
:100CC000A2B92C48006840EA0A00DFF8A8E0CEF894
:100CD000000000BF2748006800EA06026D1C12B938
:100CE000B5F5C06FF6D30AB90398CAE621480830B3
:100CF000006820F00300DFF87CE00EF1080ECEF86B
:100D0000000070460068DDF808E040EA0E00DFF8F9
:100D100064E00EF1080ECEF8000000BF1548083060
:100D2000006800F00C0E01988645F7D11148006864
:100D300020F08070DFF83CE0CEF8000070460068DC
:100D400020F08060CEF8000047EA8C104FF0010ED2
:100D5000CEEB580E40EA0E4040EA09600CE000007D
:100D6000000C0040007000400024F40040420F00DE
:100D700080841E0000380240DDF800E040EA0E00EA
:100D8000DFF8F4E0CEF80000AEF10400006840F0B7
:100D90008070AEF1040ECEF8000000BF3648001F90
:100DA000006800F000700028F8D03348001F006889
:100DB00040F08060DFF8C0E0AEF1040ECEF8000035
:100DC00000BF2D48001F006800F000600028F8D028
:100DD0002948001D006820F00300DFF89CE00EF1B8
:100DE000040ECEF800007046006840F00200CEF815
:100DF000000000BF2048001D006800F00C0008281B
:100E0000F8D10BF0FF003CE610B5002100220023D2
:100E100000241948001D006800F00C00042801D1CE
:100E2000164810BD1448001D006800F00C0008B9F9
:100E30001348F6E71048006800F03F010E480068CC
:100E4000C0F388120C480068C0F30140401C430006
:100E50000948006800F4800434B909485043B0FBE5
:100E6000F1F0B0FBF3F0DCE704485043B0FBF1F0E5
:100E7000B0FBF3F0D5E700000438024000127A001E
:100E80000024F40010B504466FF0040003F0DEF90E
:100E9000E11704EB5171C1F3C701394A11701046D3
:100EA000007800EB4001C1EBC0104FF6FF7101EA82
:100EB000C0003449088010BD0146314A12784A43C7
:100EC0004FF0E0235A6100229A611A46126942F0FB
:100ED00001021A6100BF4FF0E022106900F0010228
:100EE0001AB100F48032002AF5D04FF0E0221269E6
:100EF00022F001024FF0E0231A6100229A6170474C
:100F00000146204A12884A434FF0E0235A610022EA
:100F10009A611A46126942F001021A6100BF4FF04D
:100F2000E022106900F001021AB100F48032002AB8
:100F3000F5D04FF0E022126922F001024FF0E023D9
:100F40001A6100229A61704770B504464FF4077029
:100F500094FBF0F0C6B24FF4077094FBF0F100FB85
:100F6000114085B205E04FF40770FFF7C9FF701E0E
:100F7000C6B2002EF7D115B12846FFF7C1FF70BDEC
:100F8000220000202400002010B503F055FF10BD02
:100F900010B52120FFF7D8FF00E010BDFDE738B500
:100FA00003F04AFF012003F070FF03F093FF0446B3
:100FB00000BF012CFDD12CD1002003F0DFFF184829
:100FC000006840F4404016490860002004F01FF813
:100FD000200304F030F84FF4A05004F022F804206D
:100FE00002234FF4A87208210090000503F0B6FF19
:100FF000012003F0C3FF00BF392003F04DFF00289C
:10100000FAD0022003F0F3FF00BF03F0FAFF082834
:10101000FBD138BD10B54FF4A06003F0C5F810BD8A
:10102000007000401CB50121042004F0E0F84FF4EA
:101030008070009002208DF8040000208DF80600DA
:1010400002208DF807008DF805006946904803F0EE
:101050002FFE1CBD00B587B00121022004F011F95C
:101060008C4804F063FA40F2E73005905320ADF865
:1010700010000020ADF81200ADF8180004A9854852
:1010800004F001FB0820ADF804000220ADF80600D2
:101090000120ADF808000020ADF80A00ADF80C0002
:1010A00001A97C4804F0C6FE02220821784803F01A
:1010B0008AFE1D208DF8000000208DF8010001201F
:1010C0008DF802008DF80300684603F072F80122E3
:1010D0000821704804F078FF01216E4804F05CFBA1
:1010E0006D48407820F0200020306B49487007B0F0
:1010F00000BD0EB50121880304F0D4F808210220B8
:1011000004F0DBF94FF4807003F043FD00208DF80C
:1011100008000C208DF809004FF480700190012028
:101120008DF80A0001A803F0C3FC17208DF8000019
:1011300001208DF801008DF802008DF8030068464B
:1011400003F037F85448407820F02000203052490E
:1011500048700EBD10B5FFF765FFFFF77BFF10BDB0
:1011600010B508214B4804F046FF30B30821494828
:1011700004F052FF48484078C0F3401020B147487F
:101180000088401C454908804548007800F001006F
:1011900098B1424800884349088000203F490880B0
:1011A0003D48407820F020003B4948703C4800789A
:1011B00020F00200801C3A49087010BD38480078C1
:1011C000C0F3400028B33648007820F001003449CD
:1011D00008703448008800EB80004FF6FF7101EA88
:1011E000800030494880084640882F49A1F8AE0069
:1011F0002B48007820F002002949087026484078E2
:1012000020F0200020302449487000202749086041
:101210000EE026480068401C244908600846006823
:10122000322805D900202049A1F8AE001F490860E6
:10123000704710B54FF4807003F0A0FC38B34FF442
:10124000807003F097FC4FF4807003F0A2FC12480A
:101250004078C0F3401020B115480088401C144964
:1012600008800F48007800F0010080B11048008825
:101270000C4908800848407820F020000649487052
:101280000748007820F00200801C0549087010BD56
:101290000008024000040040200000202C00002034
:1012A00026000020280000208002002030000020BE
:1012B0003400002000BF704700BF704700BFFE4AE7
:1012C000128802F04002002AF9D0C2B2FB4B9A8089
:1012D000704710B588B004460121084603F087FF27
:1012E0000121102003F0DEFF07220921F44803F05A
:1012F0006AFD07220A21F24803F065FD4FF4C06041
:10130000069002208DF81C0003208DF81D0000209F
:101310008DF81E0001208DF81F0006A9E84803F093
:10132000C7FC4FF40060069001208DF81C000220DD
:101330008DF81D0000208DF81E0001208DF81F0083
:1013400006A9DF4803F0B4FC02940020ADF80C00BD
:10135000ADF80E00ADF81000ADF814000C20ADF89B
:10136000120002A9D44804F09AFF0121D24805F0E6
:101370001EF8012240F22551CF4805F0CEF8012297
:1013800040F22441CC4805F0C8F801226021CA4847
:1013900005F0C3F825208DF8040001208DF8050024
:1013A00003208DF8060001208DF8070001A802F047
:1013B00000FF08B010BD10B588B004460121082018
:1013C00003F015FF0121480403F05BFF072205210C
:1013D000BC4803F0F8FC07220621BA4803F0F3FCEE
:1013E0006020069002208DF81C0003208DF81D005F
:1013F00000208DF81E0001208DF81F0006A9B148BD
:1014000003F056FC02940020ADF80C00ADF80E007D
:10141000ADF81000ADF814000C20ADF8120002A9D0
:10142000A94804F03CFF0121A74804F0C0FF0122B5
:1014300040F22551A44805F070F826208DF80400EC
:1014400003208DF805008DF8060001208DF80700B7
:1014500001A802F0AEFE08B010BD10B588B0044679
:101460000121022003F0C3FE0121880403F009FFDB
:1014700007220A21954803F0A6FC07220B21934876
:1014800003F0A1FC4FF44060069002208DF81C0090
:1014900003208DF81D0000208DF81E0001208DF81E
:1014A0001F0006A9894803F003FC02940020ADF850
:1014B0000C00ADF80E00ADF81000ADF814000C20D3
:1014C000ADF8120002A9824804F0E9FE012180482B
:1014D00004F06DFF012240F225517D4805F01DF812
:1014E00027208DF8040002208DF8050003208DF8D8
:1014F000060001208DF8070001A802F05AFE08B08E
:1015000010BD10B588B004460121084603F06FFEF7
:101510000121C80403F0B5FE08220021684803F049
:1015200052FC08220121664803F04DFC032006907E
:1015300002208DF81C008DF81D0000208DF81E0083
:1015400001208DF81F0006A95D4803F0B1FB02944D
:101550000020ADF80C00ADF80E00ADF81000ADF8AD
:1015600014000C20ADF8120002A95A4804F097FEAE
:101570000121584804F01BFF012240F22551554833
:1015800004F0CBFF34208DF8040001208DF8050015
:101590008DF806008DF8070001A802F00AFE08B0D9
:1015A00010BD10B588B0044601210C2003F01FFEC9
:1015B0000121080503F065FE08220C21464803F0CE
:1015C00002FC082202213F4803F0FDFB4FF480504B
:1015D000069002208DF81C008DF81D0000208DF86B
:1015E0001E0001208DF81F0006A93B4803F060FB98
:1015F0000420069002208DF81C008DF81D000020AC
:101600008DF81E0001208DF81F0006A92D4803F05B
:101610004FFB02940020ADF80C00ADF80E00ADF8C1
:101620001000ADF814000C20ADF8120002A92348F8
:1016300004F035FE0121214804F0B9FE012240F2F8
:1016400025511E4804F069FF35208DF80400032061
:101650008DF805008DF8060001208DF8070001A81F
:1016600002F0A7FD08B010BD10B588B004460121F6
:101670000C2003F0BCFD0121202003F013FE082202
:101680000621154803F09FFB08220721124803F0AA
:101690009AFBC020069002208DF81C008DF81D00DA
:1016A00000208DF81E0001208DF81F0006A90A48B1
:1016B00003F0FEFA12E0000000100140005000406C
:1016C00000000240000C02400044004000040240C0
:1016D00000480040004C0040000802404FF4004029
:1016E000069001208DF81C0002208DF81D000020BE
:1016F0008DF81E0001208DF81F0006A9FE4803F09A
:10170000D7FA02944FF48050ADF80C000020ADF8E9
:101710000E004FF48060ADF810000020ADF814000A
:101720000C20ADF8120002A9F44804F0B8FD012124
:10173000F24804F03CFE012240F22551EF4804F04B
:10174000ECFE47208DF8040003208DF805000120F1
:101750008DF806008DF8070001A802F02AFD08B0F8
:1017600010BD10B54FF41650FFF7B3FD4FF41650EF
:10177000FFF721FE4FF41650FFF76FFE4FF416509F
:10178000FFF7BFFE4FF41650FFF70BFF4FF49640E4
:10179000FFF76AFF0120DA490860DA49C1F8BC02A4
:1017A000D94890F8650120F010001030D64981F832
:1017B000650110BD10B504460020D14908608021A4
:1017C000D24804F0DCFE4021D04804F0D8FE214687
:1017D000CE4804F017FE00BF4021CC4804F0C2FE02
:1017E0000028F9D00120C649086010BD70B5054633
:1017F0000E46002400BF08E0285DFFF7DBFF4FF432
:10180000FA70FFF759FB601CC4B2B442F4DB70BD40
:1018100010B50446BC4890F8DF00BB4991F8E010D1
:10182000884204D1B84890F8DF10EA304454B648F2
:1018300090F8E010EA304454EA3890F8E000401C98
:10184000652190FBF1F201FB1200AF4981F8E00045
:10185000084690F8E000401C652190FBF1F201FB86
:101860001200A94991F8DF1088420AD10020A64948
:1018700081F8DF0081F8E0006521A348EA3004F038
:1018800017FF10BD10B50821A04804F06BFE30B161
:101890009E4804F0BBFD08219C4804F070FE022124
:1018A0009A4804F05FFE30B1984804F0AFFD022181
:1018B000964804F064FE0421944804F053FE30B1CD
:1018C000924804F0A3FD0421904804F058FE102132
:1018D0008E4804F047FE30B18C4804F097FD10218B
:1018E0008A4804F04CFE40F22551884804F050FE2E
:1018F000B8B12021854804F042FE40F225518348CA
:1019000004F081FE814804F081FDC4B22046FFF757
:101910007FFF7D4890F8D300401C7B4981F8D300BD
:1019200000BF10BD10B504468021794804F027FEA1
:101930004021774804F023FE2146754804F062FDFB
:1019400000BF4021724804F00DFE0028F9D010BD00
:1019500070B505460E46002407E0285DFFF7E2FF5C
:101960000A20FFF7F1FA601CC4B2B442F5DB70BD87
:1019700010B540F22551664804F00AFE40B320211C
:10198000634804F0FCFD40F22551614804F03BFE41
:101990005F4804F03BFDC1B25B4890F8D6204C3064
:1019A00081544C3890F8D600401C574981F8D60035
:1019B000084690F8D60009280ADB002081F8D600F6
:1019C000084690F8640120F00800083081F86401AE
:1019D00010BD10B5044680214E4804F0D0FD4021D2
:1019E0004C4804F0CCFD21464A4804F00BFD00BFF2
:1019F0004021484804F0B6FD0028F9D010BD70B56C
:101A000005460E46002407E0285DFFF7E2FF64204C
:101A1000FFF752FA601CC4B2B442F5DB70BD10B5DA
:101A200040F225513B4804F0B3FD40B32021394832
:101A300004F0A5FD40F22551364804F0E4FD354898
:101A400004F0E4FCC1B2304890F8D8205E308154F4
:101A50005E3890F8D800401C2B4981F8D800084621
:101A600090F8D80009280ADB002081F8D800084641
:101A700090F8640120F01000103081F8640110BD6E
:101A800010B504468021244804F079FD4021224805
:101A900004F075FD2146204804F0B4FC00BF40214D
:101AA0001D4804F05FFD0028F9D010BD70B5054653
:101AB0000E46002407E0285DFFF7E2FF0A20FFF74B
:101AC00043FA601CC4B2B442F5DB70BD10B540F2FD
:101AD0002551114804F05CFDF0B320210E4804F0BC
:101AE0004EFD40F225510C4804F08DFD0A4804F0EB
:101AF0008DFCC1B2044811E0000C0240001401400A
:101B0000AC02404200804142DC0000200010014055
:101B10000044004000480040004C004090F8DA20AB
:101B200076308154763890F87600FF2818D17D48B9
:101B300090F8DA00401C7B4981F8DA00084690F8FA
:101B4000DA0009280CDB002081F8DA00084690F85A
:101B5000640120F0200000E002E0203081F8640100
:101B600010BD10B5044680216F4804F008FD4021E7
:101B70006D4804F004FD21466B4804F043FC00BFAF
:101B80004021694804F0EEFC0028F9D010BD70B582
:101B900005460E46002408E0285DFFF7E2FF4FF4FB
:101BA000FA70FFF789F9601CC4B2B442F4DB70BD6F
:101BB00010B540F225515C4804F0EAFC88B32021BE
:101BC000594804F0DCFC40F22551574804F01BFD55
:101BD000554804F01BFCC1B2524890F8DC20843018
:101BE0008154843890F8DC00401C4E4981F8DC00B8
:101BF000084690F88800DA2802D1002081F8DC003D
:101C0000484890F8DC0038280BDB0020454981F873
:101C1000DC00084690F8640120F04000403081F874
:101C2000640110BD10B504460020404908608021C1
:101C30003F4804F0A4FC40213D4804F0A0FC2146AC
:101C40003B4804F0DFFB00BF4021394804F08AFC28
:101C50000028F9D001203549086010BD70B505464F
:101C60000E46002408E0285DFFF7DCFF4FF4FA7011
:101C7000FFF722F9601CC4B2B442F4DB70BD10B5AA
:101C80000446284890F8E100264991F8E21088427D
:101C900005D1244890F8E11000F24F104454214837
:101CA00090F8E21000F24F1044541E4890F8E20001
:101CB000401C152190FBF1F201FB1200194981F83B
:101CC000E200084690F8E200401C152190FBF1F27A
:101CD00001FB1200134991F8E110884209D100205C
:101CE000104981F8E10081F8E2001521114804F063
:101CF000DFFC10BD10B540F225510D4804F048FC42
:101D000078B120210A4804F03AFC40F225510848F5
:101D100004F079FC064804F079FBC4B22046FFF7D2
:101D2000AEFF10BDDC00002000500040BC824142EC
:101D3000001401402B0200201CB50121022003F0F9
:101D400056FA4FF44070009001208DF804008DF891
:101D5000060002208DF8050001208DF80700694675
:101D6000C04802F0A5FF0120BF490860BF49C1F883
:101D7000A4020A20FFF7E8F81CBD002004E00021BF
:101D8000BB4A1154411C88B20A28F8DB704710B5D1
:101D9000B448006820F44020B24908600846006852
:101DA00040F4802008600120AF49091D0860AF4958
:101DB000C1F8A0020520FFF77FF80020AA49091DFD
:101DC00008600520FFF778F80020A849C1F8A002B4
:101DD0000520FFF771F810BD10B5A248006820F487
:101DE0004020A04908600846006840F48020086050
:101DF00000209D49091D08609C49C1F8A0020520EA
:101E0000FFF75AF80120984908600520FFF754F8B9
:101E100001209649C1F8A40210BD10B500249148D4
:101E2000006820F440208F49086008460068086078
:101E300001208D49091D0860FFF73EF801208B49FC
:101E4000C1F8A002FFF738F806E0601CC4B2FA2C13
:101E500002DDFFF7C1FF10BD83487C380068002811
:101E6000F3D18149086000BFF5E710B57D480068EF
:101E700020F440207B4908600846006840F4802038
:101E800008600020784908607849C1F8A40202205F
:101E9000FFF712F80120744908600220FFF70CF8E0
:101EA00000207249C1F8A00210BD10B56D4800684D
:101EB00020F440206B4908600846006840F4802008
:101EC000086000206849086001206849C1F8A40240
:101ED0000220FEF7F1FF0120634908600220FEF7AF
:101EE000EBFF00206149C1F8A00210BD70B50446A7
:101EF00080265C48006820F440205A490860084663
:101F0000006840F4802008600020574908600025E0
:101F10001FE004EA060020B900205349091D0860AB
:101F200003E001205049091D08606006040E0320EB
:101F3000FEF7C2FF01204C4908600320FEF7BCFFFA
:101F400000204A49C1F8A0020320FEF7B5FF681C33
:101F5000C5B2082DDDDB70BD70B5002441480068B6
:101F600020F440203F4908600846006808600025CA
:101F700019E001203C4908600320FEF79DFF012085
:101F80003A49C1F8A0026006040E37487C38006860
:101F900008B144F001040020334908600320FEF733
:101FA0008BFF681CC5B2082DE3DB2E48006820F4C7
:101FB00040202C4908600846006840F480200860F2
:101FC000204670BD70B505460C46FFF7E0FEEC20DC
:101FD000FFF78CFFFFF721FF2846FFF787FFFFF78A
:101FE0001CFF2046FFF782FFFFF717FFFFF7F4FE05
:101FF0000120FEF7A9FF70BD70B504460025FFF76C
:10200000C6FEEC20FFF772FFFFF707FF2046FFF741
:102010006DFFFFF702FFFFF7BAFEED20FFF766FF47
:10202000FFF7FBFEFFF798FF0546FFF73EFFFFF7C0
:10203000D3FE6420FEF740FF284670BD2DE9F04135
:1020400006460C4600253046FFF7D6FF07462046D9
:10205000FFF7D2FF8046380205B245EA0805284658
:10206000BDE8F08100040240A0824042008040426E
:10207000420200201CB50121052003F0B8F86720BA
:10208000009003208DF8040000208DF807006946B9
:10209000F74802F00DFE2020009003208DF8040088
:1020A00000208DF807006946F24802F001FE1CBDD1
:1020B00000B58FB00121880503F099F8EE4802F0D1
:1020C00015FB00200090ED480190ED4802900020A3
:1020D000039006200490002005904FF48060069045
:1020E00080000790400008904011099040020A903B
:1020F00000200B9001200C9000200D900E9069465E
:10210000DD4802F095FB0FB000BD10B50446214636
:10211000DA484C3802F009F910BD00B58BB0012146
:10212000080203F0BFF8FFF7A5FFFFF7C1FF012189
:10213000080203F00CF900214FF4807003F007F956
:10214000002001904FF480300290002003904FF463
:102150007060049001A802F0D1F8002005900120E1
:102160008DF818008DF8190000200790089009904C
:1021700006208DF8280005A9C0484C3802F08FF8D9
:102180000120FFF7C2FF0121BC484C3802F0B8F92A
:102190000121BA484C3802F0A8F90121B7484C385F
:1021A00002F0C3F80121B44802F07CFB06230122AF
:1021B0000021B2484C3802F0F8F80623022201212F
:1021C000AE484C3802F0F1F8062303220221AB4856
:1021D0004C3802F0EAF8072304220521A7484C38BE
:1021E00002F0E3F8072305220621A4484C3802F048
:1021F000DCF8072306220F21A0484C3802F0D5F85E
:102200009E484C3802F02DF90BB000BD9D48008867
:10221000282855DB00209B4908809B48007805282A
:102220003BDA9A480068C0F38F009949964A1278C1
:1022300021F8120095484068C0F38F009549924AF2
:10224000127821F8120091488068C0F38F019248FB
:102250008D4A127820F812108C48C068C0F38F01A4
:102260008E48894A127820F8121088480069C0F315
:102270008F008B49844A127821F812008348406904
:10228000C0F38F008749804A127821F812007E48F7
:102290000078401C7C49087009E000207A490870E9
:1022A0007A49086048608860C86008614861002019
:1022B0007349086048608860C860086148612EE022
:1022C000724800686E490968084470490860084609
:1022D00040686B49496808446C4948600846806812
:1022E000674989680844694988600846C068644944
:1022F000C96808446549C8600846006960490969B9
:10230000084462490861084640695D4949690844D2
:102310005E4948615B480088401C5A490880704704
:10232000F0B502460C4600230025002615881688C5
:102330001388002115E032F81100A84202D932F8C2
:10234000115005E032F81100B04201D232F81160AC
:1023500032F81100034432F81170481C22F8107052
:10236000C1B2601E8842E6DCA01EC1B2084601EB85
:10237000D077A3EB050CACEB060C0CEB6703B3FBBF
:10238000F1F398B2F0BD10B504460A4600210023CF
:1023900004E034F813000144581CC3B29342F8DB44
:1023A000B1FBF2F188B210BD2DE9F04105460C46B3
:1023B0001746069E1FFA86FCA54204DA0DB90021D5
:1023C0002DE019462BE0BD4201DD314627E09E425B
:1023D00001DBF11A00E0991BA54202DB281B82B247
:1023E00001E0601B82B25143A74202DB381B82B27C
:1023F00001E0E01B82B2002905DB104602EBD07839
:1024000001EB680104E0104602EBD078A1EB680113
:1024100091FBF2F19C4501DD194400E0591A08B224
:10242000BDE8F0812DE9F84307460D46164698466B
:10243000012406E035F81400B84200DB05E0601C1A
:10244000C4B2A8F10100A042F4DC00BF36F91400C8
:102450000090601E36F9103035F8142035F8101051
:102460003846FFF7A1FF81464846BDE8F8830000E3
:102470000000024000080240106402404C2001406D
:1024800068040020A40000209E00002034030020E7
:102490004C03002056030020600300206A03002044
:1024A000740300207E0300202DE9F84F0446002528
:1024B00000260027A846A946AA46AB460521834820
:1024C000FFF72EFF064605218148FFF729FF009000
:1024D00005218048FFF724FF074605217E48FFF7C6
:1024E0001FFF804605217D48FFF71AFF8146052121
:1024F0007B48FFF715FF824619237A4A7A490098EC
:10250000FFF790FF8346072C14D2DFE804F0130492
:1025100006080A0D100035B20DE05D460BE03DB235
:1025200009E00FFA88F506E00FFA89F503E00FFAE3
:102530008AF500E000BF00BFA8B2BDE8F88FF0B593
:10254000064600250027002408E03046FFF7ACFFD0
:1025500000B2664921F81400601CC4B20C2CF4DBF4
:10256000634800780C2813DA3046FFF79DFF01B26C
:102570005F4802780078401C5D4B18705B4820F87B
:102580001210184600780C2802D100201946087055
:10259000002405E0554830F914000544601CC4B21D
:1025A0000C2CF7DB0C2095FBF0F52FB2B8B2F0BD88
:1025B00010B500BF0120FFF7C2FF044640F6E4401B
:1025C00060434FF42041B0FBF1F44A49A1F86C405C
:1025D00010BD00B50220FFF7B2FF00B246490880E7
:1025E00000BD10B500BF0320FFF7A9FF044640F669
:1025F000E44060434FF42041B0FBF1F4A4F1140037
:102600003E4908803E480078642818DA0846008869
:1026100041F2883188420CDA384800883949384A12
:10262000127821F8120064213648FFF779FE334909
:10263000488033480078401C3149087008E0002089
:102640002F49087064212F48FFF76AFE2B49488004
:1026500010BD10B500BF0420FFF771FF044640F61F
:10266000E44060434FF42041B0FBF1F4214844853D
:1026700010BD10B500BF0520FFF761FF044640F60E
:10268000E44060434FF42041B0FBF1F41948C487A3
:1026900010BD10B500BF0620FFF751FF044640F6FD
:1026A000E44060434FF42041B0FBF1F41149A1F83C
:1026B000484010BD00B5FFF78CFFFFF792FFFFF712
:1026C000C8FFFFF7D6FFFFF7E4FF00BD4C03002073
:1026D00056030020600300206A03002074030020DA
:1026E0007E030020360000206800002088030020C0
:1026F000A600002080020020A20000209A000020F6
:10270000A7000020A003002070B504460025204645
:10271000FFF772FC0546284670BD70B505460024DB
:10272000691CC8B2FFF768FC0446200204B22846C0
:10273000FFF762FC0443204670BD10B58820FFF708
:10274000ECFFFE4988838A20FFF7E7FFFB49C88337
:102750008C20FFF7E2FFF94908848E20FFF7DDFFA8
:10276000F64948849020FFF7D8FFF44988849220E6
:10277000FFF7D3FFF149C8849420FFF7CEFFEF495C
:1027800008859620FFF7C9FFEC4948859820FFF798
:10279000C4FFEA4988859A20FFF7BFFFE749C8854B
:1027A0009C20FFF7BAFFE54908869E20FFF7B5FF9A
:1027B000E2494886A120FFF7A7FFE04981F83400ED
:1027C000E120FFF7AAFFDD49C886E320FFF79CFF61
:1027D000DA4981F83800E420FFF796FF0446E52047
:1027E000FFF792FF64F31F10D4494887E620FFF7F4
:1027F0008BFF0401E520FFF787FF44EA1010CF4963
:102800008887E720FFF780FFCC4981F83E0010BDA4
:1028100010B5B621E020FFF7D5FB0A20FEF794FBA8
:102820000721F220FFF7CEFB0A20FEF78DFBFF21E8
:10283000F420FFF7C7FB0A20FEF786FB1421F520E2
:10284000FFF7C0FB0A20FEF77FFBFFF776FF4FF490
:10285000FA70FEF779FBD020FFF7CEFBB74988610D
:1028600010BD2DE9F041FA20FFF7C6FB0446FB201E
:10287000FFF7C2FB0546FC20FFF7BEFB0646200320
:1028800040EA051040EA16173846BDE8F0812DE908
:10289000F041F720FFF7B0FB0446F820FFF7ACFB50
:1028A0000546F920FFF7A8FB0646200340EA05107D
:1028B00040EA16173846BDE8F08170B5FD20FFF7F5
:1028C0009BFB0546FE20FFF797FB06462C02344390
:1028D000204670BD30B501460020CC10974DAD8B21
:1028E000A4EB4504954DB5F91E506C43E212934C90
:1028F000A48BC4EB211464432413904DB5F92050EC
:102900006C43A313D4188E4D2C602C46246804EB22
:1029100084048034201230BD10B52DED108B84B0AE
:1029200004469FED880B8DED020B8449B1F91E0022
:1029300004F0ABF941EC1B0B8049888B04F0BCF927
:1029400041EC1E0B9FED810B53EC102B04F016F89D
:1029500041EC1A0B204604F098F941EC1E0B9FED58
:102960007D0B53EC102B04F009F841EC1D0B53ECDC
:102970001A2B04F031FB41EC1C0B53EC1B2B04F025
:10298000EBF941EC180B6D49B1F9200004F07DF929
:1029900041EC1A0B6949888B04F08EF941EC1F0B4E
:1029A0009FED6E0B53EC102B03F0E8FF41EC1D0B79
:1029B000204604F06AF941EC1F0B9FED6A0B53ECC3
:1029C000102B03F0DBFF41EC1E0B53EC1D2B04F02E
:1029D00003FB41EC1B0B5949888B04F06DF941EC6A
:1029E0001F0B9FED5E0B53EC102B03F0C7FF41EC68
:1029F0001D0B204604F049F941EC1F0B9FED590BCC
:102A000053EC102B03F0BAFF41EC1E0B53EC1D2BC3
:102A100004F0E2FA41EC1C0B53EC1B2B04F09CF984
:102A200053EC1A2BCDE900019DED000B51EC100B7E
:102A300004F092F941EC190B53EC192B51EC180BE3
:102A400003F0E8FE41EC1A0B04F0F0F83C49086092
:102A500053EC192B51EC180B03F0DCFE41EC1A0B74
:102A60009FED420B53EC102B03F088FFCDE90201E0
:102A70009DED020B51EC100B04F0D8F804B0BDEC46
:102A8000108B10BD30B504462D4800684FF47A45D0
:102A9000C5EB600188104043C012284DB5F92C5099
:102AA00000FB05F32548B0F92A00484303EB400337
:102AB0009810224D2D8D00EB0543881040434013A4
:102AC0001E4DB5F926506843C5101C48B0F92400C6
:102AD000484305EB6000811401F50040174D6D8CF3
:102AE0006843C11309B9002030BDC4F58010A0EBC4
:102AF000233040F6354500FB05F2B2F1004F03D21A
:102B00005000B0FBF1F202E0B2FBF1F04200D01055
:102B100040434013094DB5F93250684301139010FA
:102B2000064DB5F9305068434313C818034DB5F945
:102B30002E50284402EB20121046D5E780040020D6
:102B4000AC000020000000000000000000000000B9
:102B500000009040000000000000D0400000000095
:102B60000000C04000000000000000410000000024
:102B70000000B440F0B52DED108B83B00646FE4842
:102B8000006804F082F841EC1A0B9FEDFC0B53EC4B
:102B9000102B03F0F3FE41EC190B9FEDFA0B53ECF5
:102BA000102B04F019FA41EC180B04F03FF804461E
:102BB000F649B1F92C0004F068F841EC1A0B04FB5B
:102BC00004F004F062F841EC1B0B53EC1A2B04F0F8
:102BD000C3F841EC190B9FEDEE0B53EC102B03F0F7
:102BE000CDFE41EC180B04F021F80546E749B1F998
:102BF0002A0004F04AF841EC1C0B204604F045F88A
:102C000041EC1D0B53EC1C2B04F0A6F841EC1B0B04
:102C10009FEDDA0B53EC102B04F09EF841EC190BEE
:102C2000284604F032F841EC1A0B53EC192B03F050
:102C3000F1FD41EC180B03F0F9FF0546D349B1F95A
:102C4000280004F022F841EC1B0B9FEDD30B53EC52
:102C5000102B04F081F841EC190B284604F015F80C
:102C600041EC1B0B9FEDCE0B53EC102B03F086FEBB
:102C700041EC1A0B53EC192B03F0CCFD41EC180B73
:102C800003F0D4FF0546204603F0FFFF41EC1B0B89
:102C9000BE49B1F9240003F0F8FF41EC1C0B53ECE2
:102CA0001B2B04F059F8CDE90001204603F0EDFF9D
:102CB00041EC1C0B204603F0E8FF41EC1E0BB3492E
:102CC000B1F9260003F0E1FF41EC1F0B53EC1E2B82
:102CD00004F042F841EC1D0B53EC1C2B04F03CF8C3
:102CE00041EC1B0B9FEDB00B53EC102B03F046FE99
:102CF00041EC1A0B9DED000B53EC102B03F08AFDF9
:102D000041EC190B9FEDA80B53EC102B03F036FE92
:102D100041EC180B03F08AFF04469C49488C03F0F1
:102D2000CBFF41EC190B204603F0AFFF41EC1C0B2D
:102D30009FED970B53EC102B03F020FE41EC1B0B87
:102D40009FED9B0B53EC102B03F064FD41EC1A0B31
:102D500053EC192B04F000F841EC180B03F066FF5C
:102D60000446304603F091FF41EC190B9FED920BA6
:102D700053EC102B04F024F941EC180B03F056FF30
:102D80000746204603F081FF41EC190B284603F06B
:102D90007CFF41EC1E0B9FED8A0B53EC102B03F0D4
:102DA000EDFD41EC1C0B384603F06FFF41EC1D0BB1
:102DB00053EC1C2B04F010F941EC1B0B9FED820B24
:102DC00053EC102B03F0C8FF41EC1A0B53EC192BFA
:102DD00003F0D4FD41EC180B03F028FF07463846FA
:102DE00003F053FF41EC1A0B384603F04EFF41EC61
:102DF0001C0B6649B1F9320003F047FF41EC1D0B93
:102E000053EC1C2B03F0A8FF41EC1B0B53EC1A2BCB
:102E100003F0A2FF41EC190B9FED6D0B53EC102B4F
:102E200003F0ACFD41EC180B03F000FF04465749DA
:102E3000B1F9300003F029FF41EC1A0B384603F0DA
:102E400024FF41EC1B0B53EC1A2B03F085FF41ECE4
:102E5000190B9FED4F0B53EC102B03F08FFD41EC42
:102E6000180B03F0E3FE05464849B1F92E0003F0C4
:102E70000CFF41EC1C0B601903F007FF41EC1D0B2C
:102E800053EC1C2B03F0C6FC41EC1B0B9FED520BCB
:102E900053EC102B03F072FD41EC190B384603F094
:102EA000F4FE41EC1A0B53EC192B03F0B3FC41EC8C
:102EB000180B03F0BBFE0746384603B0BDEC108B81
:102EC000F0BD30B502462C480068A0F5963190035D
:102ED0002E4B5B8FA0EB03502C4BB3F93C3003FB24
:102EE000110000F58040C313284890F83E00484385
:102EF0008012264C94F838404C434FF4004505EBC3
:102F0000E4246043AC0104EBA020204CB4F936402B
:102F1000604300F50050801303FB00F1C8134043E9
:102F2000C0111A4B93F834305843A1EB20110029FB
:102F300001DA002000E008460146B1F1C85F02DD79
:102F40004FF0C85000E008460146081330BD10B5E8
:102F50002DED108B84B004460748006803F095FE01
:102F600041EC180B9FED1E0B53EC102B04F034F8C2
:102F70001D4A03C2054939E0AC00002000000000F2
:102F800000000040000000000040EF4080040020EE
:102F9000000000000000E040000000000000F040E1
:102FA0000000000000001040000000000000204170
:102FB000000000000000F03F000000000000304171
:102FC000000000000000B04000000000006AB840AF
:102FD000000000000000E041000000000000304060
:102FE0000000000000C0F240B000002091F838005E
:102FF00003F062FE41EC1F0B9FED960B53EC102B80
:1030000003F0BCFC41EC1E0B944890ED000B53EC1C
:10301000102B51EC1E0B03F09FFE41EC1D0B1FED1E
:103020001C0B53EC102B03F0F5FB41EC1B0B8C49F4
:1030300091F83E0003F040FE41EC1E0B9FED850B26
:1030400053EC102B03F09AFC41EC1D0B834890EDE0
:10305000000B53EC102B51EC1D0B03F07DFE41ECEB
:103060001C0B53EC1B2B03F077FE1FED2F0B53ECC7
:10307000102BCDE900019DED000B51EC100B03F07E
:10308000C9FB41EC190B7649B1F9360003F0FDFD9F
:1030900041EC1B0B1FED400B53EC102B03F06EFCAF
:1030A00041EC1A0B53EC192B03F056FE41EC180BB4
:1030B0006B49B1F93C0003F0E8FD41EC1E0B9FEDBC
:1030C000690B53EC102B03F059FC41EC1D0B6348CA
:1030D00090ED000B53EC102B51EC1D0B03F03CFE5C
:1030E00041EC190B5E49B1F93A0003F0CEFD41EC19
:1030F0001D0B9FED5E0B53EC102B03F02DFE41ECEE
:103100001A0B53EC192B03F085FB41EC1B0B2046EB
:1031100003F0BBFD41EC1C0B53EC1B2B03F05CFFDD
:1031200053EC182BCDE902019DED020B51EC100B75
:1031300003F012FE494A03C2494991F8340003F0F2
:10314000BBFD41EC1B0B454890ED000B53EC102BE5
:1031500051EC1B0B03F000FE41EC1A0B1FED6E0B44
:1031600053EC102B03F00AFC41EC190B1FED700B14
:1031700053EC102B03F024FF41EC180B374890ED73
:10318000000B53EC102B51EC180B03F0E5FD334A08
:1031900003C29FED380B53EC102B304890ED000B21
:1031A00051EC100B03F0D6FE05D29FED320B2B48ED
:1031B00080ED000B10E09FED310B53EC102B2748F6
:1031C00090ED000B51EC100B03F08AFD04D29FED43
:1031D0002B0B224880ED000B204890ED000B04B033
:1031E000BDEC108B10BD10B5FFF73BFB2549886087
:1031F0008868FFF76FFB2349C8600846C0680A214A
:1032000090FBF1F11F48C16010BD10B5FFF73FFB07
:103210001C4988618869FFF735FC0A2190FBF1F1B0
:103220001848C16110BD10B52DED028BFFF745FBAD
:10323000144908610869FFF78AFEB0EE408AF0EE93
:10324000608A51EC180B03F0F1FC0E494861BDECAB
:10325000028B10BD0000000000009041B000002073
:1032600080040020000000000000D04000000000AA
:103270000000504000000000000059400000000025
:10328000000000008002002010B502460B4600201E
:10329000002104E0545C0444E0B24C1CE1B25C1E2A
:1032A0008C42F7DC4442E0B210BD70B505460C46D6
:1032B0000026382C10DB22462946C24803F0B3F919
:1032C0002146284603F0F4F9BE488678601EBD49C1
:1032D000085CBD49087000E070BDBA480078162847
:1032E00062D1701F09285BD2DFE800F03B3C3D5AF9
:1032F0005A5A21053A00B3484078C01CB349487077
:10330000B048C0780875AF484078401E88700846BD
:103310004178AC48FFF7B8FFAB490870AB4840783C
:10332000401EA849085CA94981F84A0039E0A5482F
:103330004078C01CA5494870A2484078401E88705B
:10334000084641789F48FFF79FFF9F4908709F48B4
:103350004078401E9B49085C9C4981F84A0020E067
:103360001FE01EE01DE097484078C01C9749487058
:103370009448C07881F8490092484078401E88708F
:10338000084641788F48FFF77FFF8F4908708F48C4
:103390004078401E8B49085C8C4981F84A0000E067
:1033A00000BF00BF8948C67000BF95E710B504464E
:1033B0000B460021D81C904210DC642A0EDAE15C36
:1033C0000902581C205C01430902981C205C01433F
:1033D0000902D81C205C0143084610BD0020FCE710
:1033E00030B50024794890F84A0077490978884236
:1033F00053D17648C07807284CD00B284BD10025F4
:1034000007E07049E81C095C704815304155681C9C
:10341000C5B26E488078A842F3DC342200216B48A4
:103420001530FFF7C3FF044634B168484460808814
:1034300081B26748A0F86E10342204216348153029
:10344000FFF7B4FF044634B160488460008981B25C
:103450005F48A0F87010342208215C481530FFF74F
:10346000A5FF044634B15948C460808981B25848E8
:10347000A0F8721034220C2154481530FFF796FF43
:10348000044634B151480461008A81B25048A0F822
:10349000741001E000E000BF00BF30BD70B504460D
:1034A0000E46154611202070E81E60700C20A0709A
:1034B000E6701E20207129462046FFF7E5FE607168
:1034C00029462046FEF763FB70BD70B504460E46E4
:1034D000154611202070E81E60700B20A070E67069
:1034E00029462046FFF7D0FE207129462046FEF7E8
:1034F0004EFB70BD70B504460D4616461120207077
:10350000F01E60700D20A0702812E0702571314609
:103510002046FFF7B9FE607131462046FEF737FBC3
:1035200070BD70B504460D46164611202070F01E81
:1035300060700520A0702812E07025713146204689
:10354000FFF7A2FE607131462046FEF720FB70BDFA
:1035500070B504460E46154611202070E81E6070B6
:103560000620A070E67029462046FFF78DFE2071E8
:1035700029462046FEF70BFB70BD70B504460E468B
:10358000154611202070E81E60700720A070E670BC
:1035900029462046FFF778FE207129462046FEF78F
:1035A000F6FA70BD10B5062202210A48FFF776FF31
:1035B0004FF4FA70FDF7C8FC4FF4FA70FDF7C4FC45
:1035C00010BD000048050020B8000020C004002005
:1035D000800200204C01002010B502460B4600215D
:1035E0000020012104E0545C0444E0B24C1CE1B230
:1035F0005C1E8C42F7DCC443641CE0B210BD70B5A5
:1036000005460C460026092C0EDB2246294640487A
:1036100003F009F82146284603F04AF821463C48C1
:10362000FFF7DAFF064600E070BD39480078FF2852
:1036300008D1601E3649085CB04203D122463548A5
:1036400002F0F1FF00BFEFE710B53248603890F8A4
:103650006610A0F85810B0F858004FF6FF7101EA54
:1036600000212C486038A0F85810B0F8581090F895
:103670006700014327486038A0F8581009216030DE
:1036800003F038F810BD70B504460D46FF202070D9
:10369000012060708620A0700020E07020716071B1
:1036A000A071E0717920207229462046FEF750F97A
:1036B00070BD70B504460D46FF202070012060707B
:1036C0007820A0704020E070002020716071A0710F
:1036D000E0714720207229462046FEF739F970BD77
:1036E00070B504460D46FF202070012060707820E0
:1036F000A0704120E070002020716071A071E07125
:103700004620207229462046FEF722F970BD0000AF
:1037100080050020E00200202DE9F04788B08146B6
:103720000D461C2101A802F0E5FF2A46494601A8E2
:1037300002F079FF4FF6FF74002617E001A8805DC4
:1037400044404FF0000A0CE004F0010020B14AF2BE
:10375000010080EA640400E064100AF101001FFA2D
:1037600080FABAF1080FEFDB701C86B2AE42E5DBDF
:1037700004F0FF082412274644464FF6FF7000EA83
:1037800004243C43204608B0BDE8F08710B502464B
:103790000B4600201078012104E00002545C204315
:1037A0004C1CE1B29942F8DB10BD30B5044613461B
:1037B00000205D1E485D9D1EEAB204E000028D5CA3
:1037C0002843551EEAB2A242F8DC12B900020D7875
:1037D000284330BD30B50446134600205D1E485DC9
:1037E0009D1EEAB204E000028D5C2843551EEAB239
:1037F000A242F8DC042A02D100020D79284330BD30
:1038000070B506460D461446F84890F86401C0F3BA
:103810004000002843D02A463146204602F003FFEC
:103820002946304602F044FF2078F1490978884261
:1038300035D1F048007820F010001030ED490870C4
:10384000EA4890F8640120F00200E84981F8640138
:103850002078E949087060784870A0784880084668
:1038600040884FF6FF7101EA0020E349488008468E
:103870004088E1780843E0494880281F205C888020
:10388000084680884FF6FF7101EA0020DA498880F7
:1038900008468088E91E615C0843D749888070BD6E
:1038A00030B5022B04DB04128C54541C085500E084
:1038B00030BD00BFFCE7F0B589B005460C460027D7
:1038C000202101A802F016FF287820706878607027
:1038D00068886080A888A0806788A08801286ED149
:1038E0000C2F77D2DFE807F0060F18212A333C456A
:1038F0004E58626DC149898888B20A230022A11DF1
:10390000FFF7CEFF67E0BD49898A88B20A2300220B
:10391000A11DFFF7C5FF5EE0B849898B88B20A2375
:103920000022A11DFFF7BCFF55E0B449B1F86E00BD
:103930000A230022A11DFFF7B3FF4CE0AF49B1F805
:1039400070000A230022A11DFFF7AAFF43E0AB4944
:10395000B1F872000A230022A11DFFF7A1FF3AE08F
:10396000A649B1F874000A230022A11DFFF798FFB1
:1039700031E0A249098E88B20A230022A11DFFF777
:103980008FFF28E09D49B1F8501088B20A23002229
:10399000A11DFFF785FF1EE09849B1F8441088B2D9
:1039A0000A230022A11DFFF77BFF14E09349B1F821
:1039B000AE000A230022A11DFFF772FF0BE035E0E5
:1039C00008E08E49B1F858000A230022A11DFFF734
:1039D00067FF00E000BF00BF20788DF8040060782A
:1039E0008DF80500608800128DF80600A0788DF82B
:1039F0000700A08800128DF8080020798DF80900D2
:103A0000A0798DF80A00E0798DF80B00082101A853
:103A1000FFF782FEE083E08B0A230222A11DFFF75D
:103A20003FFF0A20754981F8B0008DE0A088032887
:103A3000FBD0A0880428F8D0A0880B2802D0A0884A
:103A40000C28F2D16D49898988B218230022A11D62
:103A5000FFF726FF6949898A88B218230222A11D2F
:103A6000FFF71EFF6549898B88B218230422A11D28
:103A7000FFF716FF6149B1F86E0018230622A11D59
:103A8000FFF70EFF5D49B1F8700018230822A11D51
:103A9000FFF706FF5949B1F8720018230A22A11D49
:103AA000FFF7FEFE5649888818230C22A11DFFF758
:103AB000F7FE5349C88818230E22A11DFFF7F0FE18
:103AC0004F49088918231022A11DFFF7E9FE4B4931
:103AD000B1F8441088B218231222A11DFFF7E0FEAE
:103AE0004649B1F8AE0018231422A11DFFF7D8FEF5
:103AF0004249B1F8580018231622A11DFFF7D0FE45
:103B000020788DF8040060788DF805002079400653
:103B1000000E8DF80600002606E0A01D815D01AABA
:103B2000F01C1154701CC6B2182EF6DB1B2101A824
:103B3000FFF7F2FDE0831D20304981F8B00000203E
:103B40002F498880C880088109B0F0BD30B5134680
:103B500004780C7044784C7004796406240E8C70E0
:103B6000012B09D184798C71C479CC71C48B241256
:103B70000C72847F4C7212E00C2B01D00B2B0ED1F7
:103B8000002205E0841DA55CD41C0D55541CE2B236
:103B9000182AF7DBC48B2412CC76847F0C7730BDD7
:103BA00070B504460D4613480078C0F30010E0B12C
:103BB0001048007820F010000E49087011490E4896
:103BC000FFF779FE0C48027921460E48FFF7BEFF49
:103BD00029462046FDF70AFE044890F8650120F0CA
:103BE0000400001D014981F8650170BDDC00002062
:103BF000C400002026000020BA000020800200201F
:103C00002E070020400700202DE9F04707460C460C
:103C10004FF0000800250026A94600BF6BE04FF0DA
:103C200000092E4607E0BA5D4846411C01F0FF0935
:103C30002254701CC6B205F108008642F3DB2078DE
:103C400082490978884254D180480078002850D0B1
:103C500006212046FFF760FD8046A079B0EB282FB3
:103C600047D1E07908F0FF01884242D120787849B5
:103C7000087060784870A0784880084640884FF601
:103C8000FF7101EA00207249488008464088E178C7
:103C900008436F49488020798880084680884FF61D
:103CA000FF7101EA00206A498880084680886179AE
:103CB0000843674988806748007820F0100010307A
:103CC00064490870644890F8640120F00100401CC9
:103CD000614981F8640165215F48EA3002F0E8FC3F
:103CE00000205D4981F8DF0081F8E00081F8D30011
:103CF00003E0681CC5B25D2D91DB00BFBDE8F08715
:103D00002DE9F04780468A4614460025002696E0B5
:103D10004FF00009374608E018F807204846411CD4
:103D200001F0FF092254781CC7B2F01D8742F3DB73
:103D30002078072828D105212046FFF7EDFC05460D
:103D40006079B0EB252F78D1A079E9B2884274D19F
:103D5000E07842498880084680884FF6FF7101EA82
:103D600000203E49888008468088217908433B49E5
:103D7000888015213A4802F09BFC0020364981F8E2
:103D8000E10081F8E2005DE02078082828D10521D3
:103D90002046FFF7C1FC05466079B0EB252F4CD1DA
:103DA000A079E9B2884248D1E0782C49C880084619
:103DB000C0884FF6FF7101EA00202849C8800846F4
:103DC000C088217908432549C8801521244802F07C
:103DD0006FFC0020204981F8E10081F8E20031E029
:103DE0002078092829D105212046FFF795FC0546B2
:103DF0006079B0EB252F20D1A079E9B288421CD19F
:103E0000E07816490881084600894FF6FF7101EAFB
:103E100000201249088108460089217908430F498A
:103E2000088115210E4802F043FC00200A4981F860
:103E3000E10081F8E20005E0FFE7701CC6B20E2E3B
:103E4000FFF666AF00BFBDE8F0870000C4000020A9
:103E5000BA00002026000020DC0000202E070020F1
:103E60002B0200201CB50121102001F0C0F94FF4F5
:103E70004050009001208DF8040000208DF80600CD
:103E800002208DF805006946074800F011FF002068
:103E9000064908601CBD0548006808B9012000E01B
:103EA000002002490860704700040240B48240428A
:103EB0001CB50121102001F09AF93C20009000204F
:103EC0008DF8040001208DF8070002208DF8050010
:103ED00069462A4800F0ECFE2848006980B227496C
:103EE00008611CBD264800884FF6FA71884204DA42
:103EF00023480088401C22490880704710B50024E0
:103F00001E4800F040FFC0F383040A20FDF71CF8B0
:103F10001C48047010BD10B5FFF7F0FF1948017878
:103F20000F2088431849087010BD10B5FFF7F3FF44
:103F30001548007807281DD2DFE800F01C04080CA3
:103F40001014180001201149087014E002200F49D4
:103F5000087010E003200D4908700CE004200B49A4
:103F6000087008E005200949087004E006200749A8
:103F7000087000E000BF00BF10BD0000001002404C
:103F8000C8000020C6000020C5000020C40000209A
:103F900010B502460B4600210020012104E0545CCC
:103FA0000444E0B24C1CE1B25C1E8C42F7DCC4431A
:103FB000641CE0B210BD70B505460C460026092C05
:103FC0000EDC22462946314802F02DFB21462846C8
:103FD00002F06EFB21462D48FFF7DAFF064600E0AF
:103FE00070BD2A480078FF2808D1601E2749085C68
:103FF000B04203D12246264802F015FB00BFEFE78E
:1040000010B52348343890F836104164406C0102F2
:104010001F4834384164406C1D49343991F83710D9
:1040200008431B49343948640921194802F062FBEE
:1040300010BD70B504460D46FF2020700120607051
:104040008620A0700020E07020716071A071E07186
:104050007920207229462046FDF7D1FC70BD70B54D
:1040600004460D46FF202070012060707820A0706B
:104070004020E070002020716071A071E071472045
:10408000207229462046FDF7BAFC70BD600700206B
:10409000B402002070B504460D46072020700420AD
:1040A00060700020A070E0702071012060713120EC
:1040B000A071AC20E07129462046FDF7CFFD70BD10
:1040C00070B504460D460820207004206070002062
:1040D000A070E0702071012060713120A071532028
:1040E000E07129462046FDF7B9FD70BD70B5044664
:1040F0000D4609202070042060700020A070E07040
:104100002071012060713020A0718220E071294669
:104110002046FDF7A3FD70BD70B504460D4607208F
:104120002070042060700020A0700B20E070002040
:104130002071012060714020A0716E20E07129463D
:104140002046FDF78BFD70BD70B504460D46082076
:104150002070042060700020A0700B20E070002010
:104160002071012060714020A0719120E0712946EA
:104170002046FDF773FD70BD70B504460D4609205D
:104180002070042060700020A0700B20E0700020E0
:104190002071012060714120A0714020E07129460A
:1041A0002046FDF75BFD70BD32490143324A116084
:1041B000704770B5002100230F22C4781CB32E4C29
:1041C000246804F4E064C4F5E064C4F30721C1F199
:1041D0000404E3B20A4144789C40E1B2847814407C
:1041E00021430C07210E254C05786155047804F015
:1041F0001F050124AC4005786D11AD0005F1E025E7
:10420000C5F8004109E0047804F01F050124AC4022
:104210001B4D0678761145F8264070BD194A0A40B4
:104220000243154B1B1F1A60704739B1124A121D09
:1042300012680243104B1B1D1A6006E00E4A121D45
:10424000126882430C4B1B1D1A607047042808D16A
:104250004FF0E021096941F004014FF0E0221161C3
:1042600007E04FF0E021096921F004014FF0E0225E
:10427000116170470000FA050CED00E000E400E079
:1042800080E100E080FFFF1F10B50121080201F06E
:104290005EF800214FF4807001F059F810BD30B580
:1042A0000246002000235068F84C20400D790C682D
:1042B00044EA0524204350609068F54C2040D1E941
:1042C00003542C438D682C434D7944EA4504204324
:1042D0009060D06A20F470000C7D641EE4B2234329
:1042E00040EA0350D06230BD00210160017141718C
:1042F0008160C16001610121017570470021E54ABB
:104300001168E54A1140D0E900231A4383681A4333
:10431000C3681A431143E14AC2F8041370470021ED
:10432000016041608160C160704721B1826842F0E4
:104330000102826003E0826822F00102826070471D
:104340000A4600214168D64B19401143416070472D
:104350004162826270470A460021416821F01F01D4
:1043600011434160704738B1CA49096841F40001FE
:10437000CA4AC2F8041306E0C649096821F40001DC
:10438000C64AC2F80413704738B1C249096841F4FB
:104390008001C24AC2F8041306E0BE49096821F44C
:1043A0008001BE4AC2F804137047F0B504460D46BA
:1043B00000200021092D11DDE068A5F10A0606EBB9
:1043C0004607072606FA07F18843A5F10A0606EB19
:1043D000460603FA06F10843E0600CE0206905EBAD
:1043E0004507072606FA07F1884305EB450603FA59
:1043F00006F108432061072A0FDA606B561E06EBB0
:1044000086071F2606FA07F18843561E06EB860626
:1044100005FA06F10843606322E00D2A0FDA206BEB
:10442000D61F06EB86071F2606FA07F18843D61F1C
:1044300006EB860605FA06F10843206310E0E06A01
:10444000A2F10D0606EB86071F2606FA07F1884340
:10445000A2F10D0606EB860605FA06F10843E062B6
:10446000F0BD816841F080418160704701460020C5
:104470008A6802F080420AB1012000E00020704703
:1044800021B1826842F48062826003E0826822F493
:1044900080628260704721B1826842F002028260CD
:1044A00003E0826822F002028260704710B50A467B
:1044B00000210023416821F46041531E41EA433149
:1044C000416010BD21B1426842F40062426003E0E5
:1044D000426822F40062426070470146C86C80B2B4
:1044E00070476C48001D0068704721B1826842F433
:1044F0008072826003E0826822F48072826070477A
:1045000021B1826842F40072826003E0826822F482
:1045100000728260704738B15E49096841F4005109
:104520005E4AC2F8041306E05A49096821F40051B2
:104530005A4AC2F804137047F0B5044615460020E5
:1045400000220026092911DDE068A1F10A0707EB26
:10455000470C072707FA0CF29043A1F10A0707EB73
:10456000470703FA07F21043E0600CE0206901EB13
:10457000410C072707FA0CF2904301EB410703FABD
:1045800007F210432061A06BC0F30156EF1C06F147
:10459000010CA7EB0C0707EB870C1F2707FA0CF29F
:1045A0009043EF1C06F1010CA7EB0C0707EB870704
:1045B00001FA07F21043A063F0BD10B50A460021CE
:1045C0000023816B21F44011531E41EA03518163A2
:1045D00010BD08B5002300930090009B0B4400938E
:1045E000009B1A6008BD0A460021816821F47021F1
:1045F0001143816070470A460021816821F440110F
:10460000114381607047816841F480018160704787
:10461000014600208A6802F480020AB1012000E00D
:104620000020704721B1426842F48062426003E09A
:10463000426822F480624260704721B1426842F4CD
:104640008052426003E0426822F480524260704728
:1046500008B5024600200090009201F12800009B5E
:10466000184400900098006880B208BD10B50B4651
:104670000021D9B2012404FA01F11AB144680C43B3
:10468000446002E044688C43446010BDFFFEFFFCC0
:10469000FDF7FFC004230140E030FCFF0020014093
:1046A000FFFD3FFF0246002013680B400BB10120C5
:1046B00000E000207047CA430260704770B50246B0
:1046C0000020002300240B12556801268E4005EAC5
:1046D000060415681D4015B10CB1012000E0002052
:1046E00070BD00220A12D34303607047016821F0B5
:1046F000010101600021016041608160C1600161D0
:1047000021214161DB49884204D13D21D94A103A37
:1047100091608CE0D7491831884205D14FF474611B
:10472000D44A103A916082E0D2493031884205D1B2
:104730004FF47411CF4A103A916078E0CD49483176
:10474000884205D14FF07461CA4A103A91606EE018
:10475000C8496031884204D1C749C64A103AD1607D
:1047600065E0C4497831884204D1C449C14A103A4D
:10477000D1605CE0BF499031884204D1C049BD4A54
:10478000103AD16053E0BB49A831884205D14FF0BF
:104790003D51B84A103AD16049E0BA49884204D143
:1047A0003D21B84A083A116041E0B64918318842C3
:1047B00005D14FF47461B34A083A116037E0B1494A
:1047C0003031884205D14FF47411AE4A083A116075
:1047D0002DE0AC494831884205D14FF07461A94AB7
:1047E000083A116023E0A7496031884204D1A24908
:1047F000A44A121F11601AE0A2497831884204D1FC
:104800009E49A04A121F116011E09E4990318842D2
:1048100004D19B499B4A121F116008E09949A831B5
:10482000884204D14FF03D51964A121F11607047E3
:1048300010B500220268944B1A40CC680B682343E1
:104840004C6923438C692343CC6923430C6A23437B
:104850004C6A23438C6A23434C6B23438C6B234366
:104860001A430260426922F00702D1E90B34234364
:104870001A4342610B6943604B6883608B68C36075
:1048800010BD0021016041608160C1600161416132
:104890008161C161016241628162C1620163416300
:1048A0008163704721B1026842F00102026003E0B7
:1048B000026822F001020260704721B1026842F4EE
:1048C0000042026003E0026822F400420260704786
:1048D00021B1026842F02002026003E0026822F087
:1048E000200202607047416070470146486880B20C
:1048F000704722B1036843F40023036003E00368B8
:1049000023F4002303600161704721B1026842F47F
:104910008022026003E0026822F480220260704775
:104920000AB1016100E0C1607047014600200A68D9
:1049300002F400220AB1012000E000207047014685
:1049400000200A6802F001020AB1012000E0002004
:104950007047014600204A6902F03800704730B5C0
:1049600003460A4600200024464DAB4202D241498C
:10497000103901E04349103902F000550DB14C687F
:1049800000E00C68414D2C4004EA02050DB1012005
:1049900000E0002030BD02463A4B9A4202D2354830
:1049A000103801E03748103801F000531BB1374B85
:1049B0000B40C36002E0354B0B408360704710B57D
:1049C00001F080034BB122B1436943F0800343619E
:1049D00003E0436923F08003436180290BD02AB1AF
:1049E000036801F01E042343036004E0036801F040
:1049F0001E04A343036010BD70B5024600200024CE
:104A00000025204EB24202D21A4B103B01E01D4B52
:104A1000103B1F4E0E4036B11E2606EAD124166802
:104A200006EA040502E0566906F0800501F000562A
:104A30000EB15C6800E01C68144E344004EA0106C4
:104A400016B10DB1012000E0002070BD02460D4BF3
:104A50009A4202D20748103801E00A48103801F0A3
:104A600000531BB1094B0B40C36002E0074B0B40E6
:104A700083607047106002403D000020400F00201E
:104A800000003D20106402403F801CF07D0F7D0F30
:104A90003C0F3C0F002041490860091D0860091DBA
:104AA0000860091D08603E483C49143108607047A1
:104AB00000213A498279002A3AD00A4612680368EE
:104AC0009A430B461A600A1D126803689A430B1D2D
:104AD0001A60027911440A6803681A430A602F4A6F
:104AE0000832126803689A432C4B08331A601A1D67
:104AF000126803689A43294B0C331A604279102AD2
:104B00000ED11A1F126803681A43244B08331A6027
:104B10001A1D126803681A43204B0C331A600DE00B
:104B20001E49427911440A6803681A430A6005E085
:104B3000027911440A6803689A430A6070470021A9
:104B4000016001710C21417100218171704713498D
:104B5000103109680143114A103211607047014653
:104B600000200E4A143212680A400AB1012000E007
:104B70000020704709491431086070470146002041
:104B8000064A143212680A400AB1012000E00020EF
:104B9000704702491431086070470000003C014032
:104BA000FFFF7F0010B504469848844208D10121D8
:104BB000084600F088FB0021012000F084FB76E02D
:104BC0009348844208D10121022000F07CFB00219F
:104BD000022000F078FB6AE08E48844208D101216F
:104BE000042000F070FB0021042000F06CFB5EE06C
:104BF0008948844208D10121082000F064FB00218B
:104C0000082000F060FB52E08448844208D1012172
:104C1000102000F058FB0021102000F054FB46E06B
:104C20007F48844208D10121202000F04CFB002164
:104C3000202000F048FB3AE07A48844208D1012164
:104C4000402000F040FB0021402000F03CFB2EE023
:104C50007548844208D10121802000F034FB0021F6
:104C6000802000F030FB22E07048844208D101210E
:104C7000801500F028FB0021A01500F024FB16E0B1
:104C80006B48844208D10121401500F01CFB002133
:104C9000601500F018FB0AE06648844207D1012144
:104CA000001500F010FB0021201500F00CFB10BDDA
:104CB000F0B50A4600210023002400BF3DE0012595
:104CC00005FA01F3156805EA03049C4234D105682E
:104CD0004F000326BE40B543056015794E00B54030
:104CE0000668354305601579012D02D01579022D2E
:104CF00016D185684F000326BE40B54385605579BF
:104D00004E00B540866835438560456801268E4073
:104D1000B5434560456896798E40B6B235434560E7
:104D2000C5684F000326BE40B543C560D5794E0027
:104D3000B540C6683543C560491C1029BFD3F0BDD6
:104D40004FF6FF7101600021017141718171C171E4
:104D5000704708B54FF480320092009A0A430092DF
:104D6000009AC261C161009AC261C2690092C269BF
:104D7000009208BD0246002013690B400BB10120D0
:104D800000E0002070470146086980B27047024683
:104D9000002053690B400BB1012000E00020704758
:104DA0000146486980B2704701837047418370476C
:104DB0000AB1018300E04183704741617047426955
:104DC0004A4042617047F0B5002300244D07ED0EC4
:104DD00002FA05F3CE1000F1200555F826504E07D3
:104DE000F70E0F26BE40B543CF1000F1200646F85F
:104DF0002750CE1000F1200555F8265045EA03044F
:104E0000CE1000F1200545F82640F0BD000002401C
:104E10000004024000080240000C02400010024062
:104E20000014024000180240001C02400020024012
:104E30000024024000280240FA48006840F00100C7
:104E4000F84908600020F74908310860F548006813
:104E5000F5490840F3490860F448091D0860F44822
:104E6000F04984310860F1481038091D0860ED48A8
:104E7000006820F48020EB4908600020E9490C31EB
:104E80000860E8498C31086070470021E54A921CAF
:104E9000117011460870704710B5014600220023BA
:104EA00000204A11012A02D1DE4C236808E0022AC0
:104EB00003D1DC4C7034236802E0DA4C743423688C
:104EC00001F01F02012494401C400CB1012000E0BD
:104ED000002010BD38B5002000900024002500BF40
:104EE0003120FFF7D9FF05460098401C00904FF68F
:104EF000FF710098884201D0002DF1D03120FFF7DA
:104F0000CBFF08B1012400E00024204638BD014653
:104F10000020C44A106820F0F80040EAC100106088
:104F20007047C449086070470021BE4A7032117052
:104F30001170012802D004280AD104E00121B94AE5
:104F40007032117005E00521B64A7032117000E030
:104F500000BF00BF7047B8490860704770B5049C37
:104F600041EA82150126C6EB530645EA064505438C
:104F700045EA0465AB4E361D356070BDAD49086627
:104F80007047820142EA0172A64B84331A6070476F
:104F9000A8498866704710B5830143EA016343EA74
:104FA0000273A04C8834236010BDA2490867704783
:104FB000A049C8647047024600209A4B083318681D
:104FC00020F0EC6042EA01031843964B0833186066
:104FD000704702460020934B0833186820F0784051
:104FE00042EA010318438F4B0833186070470146AB
:104FF00000208C4A0832106820F00300084310603B
:10500000704788480830006800F00C00704701467F
:105010000020844A0832106820F0F0000843106035
:105020007047014600207F4A0832106820F4E050A3
:10503000084310607047014600207A4A0832106821
:1050400020F4604040EAC10010607047F0B50021D4
:1050500000220024022500260223724F08373F68F1
:1050600007F00C0121B1042905D0082937D105E04A
:10507000724F076036E0724F076033E0694F3F1DA3
:105080003F68C7F38056674F3F1D3F6807F03F03F7
:105090006EB16B4FB7FBF3F7DFF888C10CF1040C6E
:1050A000DCF800C0CCF3881C07FB0CF40CE0634F69
:1050B000B7FBF3F7DFF86CC10CF1040CDCF800C0AF
:1050C000CCF3881C07FB0CF4564F3F1D3F68C7F319
:1050D00001477F1C7D00B4FBF5F7076002E0574FE6
:1050E000076000BF00BF4F4F08373F6807F0F0016F
:1050F0000909544F7A5C0768D7404760494F083721
:105100003F6807F4E051890A4E4F7A5C4768D74000
:105110008760444F08373F6807F46041490B494FA7
:105120007A5C4768D740C760F0BD002100F4407248
:10513000B2F5407F0AD13B4A0832116821F4F811D8
:10514000414A02401143374A08321160354A7032F1
:105150001268C0F30B031A43324B70331A60704766
:105160003549443908607047334940390860704711
:10517000364908607047014600202A4A8C32106880
:1051800020F01F004A1E1043264A8C3210607047E0
:1051900001460020234A8C32106820F4F8504A1E41
:1051A00040EA02201F4A8C321060704701460020FE
:1051B0001C4A8C32106820F440100843106070477D
:1051C00001460020174A8C32106820F44000084342
:1051D0001060704701460020124A8C32106820F49B
:1051E000403008431060704719490860704739B172
:1051F0000C4A3032126802430A4B30331A6006E020
:10520000084A303212688243064B30331A607047C6
:1052100039B1044A343212680243024B34331A6003
:105220001DE017E000380240FFFFF6EA10300024CE
:105230000030002000004742800E47420024F40066
:1052400000127A00CA000020FFFCFF0F5C014742F9
:10525000E01147428F4A126882438E4B1A607047B2
:1052600039B18C4A121D126802438A4B1B1D1A6009
:1052700006E0884A121D12688243864B1B1D1A6085
:10528000704739B1834A0C3212680243814B0C33A8
:105290001A6006E07F4A0C32126882437D4B0C3361
:1052A0001A60704739B17B4A103212680243794B59
:1052B00010331A6006E0774A103212688243754B49
:1052C00010331A60704739B1724A243A12680243A7
:1052D000704B243B1A6006E06E4A243A12688243FF
:1052E0006C4B243B1A60704739B16A4A203A126805
:1052F0000243684B203B1A6006E0664A203A126877
:105300008243644B203B1A60704739B1614A1C3AB2
:10531000126802435F4B1C3B1A6006E05D4A1C3A70
:10532000126882435B4B1C3B1A60704739B1594A83
:10533000143A12680243574B143B1A6006E0554A70
:10534000143A12688243534B143B1A60704739B1C8
:10535000504A103A126802434E4B103B1A6006E066
:105360004C4A103A126882434A4B103B1A6070470D
:1053700039B1484A1C3212680243464B1C331A604A
:1053800006E0444A1C3212688243424B1C331A60C6
:10539000704739B13F4A2032126802433D4B2033F7
:1053A0001A6006E03B4A203212688243394B2033B0
:1053B0001A60704739B1374A243212680243354BBC
:1053C00024331A6006E0334A243212688243314B98
:1053D00024331A60704739B12E4A2C3212680243C6
:1053E0002C4B2C331A6006E02A4A2C321268824376
:1053F000284B2C331A60704739B1264A3032126874
:105400000243244B30331A6006E0224A30321268DD
:105410008243204B30331A607047012808D11D4960
:105420003C31096841F008011A4A3C32116007E03A
:1054300018493C31096821F00801164A3C321160D4
:10544000704739B1134A273A12780243114B273B70
:105450001A7006E00F4A273A127882430D4B273B19
:105460001A7070470B484030006840F0807009495E
:1054700040310860704701460020064A283A126809
:105480000A400AB1012000E0002070470149263996
:10549000087070473438024010B501218803FFF7C7
:1054A00056FF00214FF48040FFF751FF10BD1C490B
:1054B000086070471B490862704730B500228B07AF
:1054C0001C0F0F2303FA04F2154B08338C1053F80A
:1054D00024309343124C08348D1044F82530234671
:1054E0008C1053F824308C07240F00FA04F4234363
:1054F0000B4C08348D1044F8253030BD0949DC319F
:10550000086070470849086070470020044920314E
:10551000096801F4807109B1012000E000207047A2
:1055200000380140000027420004274210B504461D
:10553000FE48844208D101210846FFF708FF0021F8
:105540000120FFF704FF9DE0B4F1804F08D1012155
:105550000846FFF7EBFE00210120FFF7E7FE91E090
:10556000F348844208D101210220FFF7DFFE002129
:105570000220FFF7DBFE85E0EE48844208D10121DE
:105580000420FFF7D3FE00210420FFF7CFFE79E0CF
:10559000E948844208D101210820FFF7C7FE002115
:1055A0000820FFF7C3FE6DE0E448844208D10121E2
:1055B0001020FFF7BBFE00211020FFF7B7FE61E0CF
:1055C000DF48844208D101212020FFF7AFFE0021EF
:1055D0002020FFF7ABFE55E0DA48844208D10121D4
:1055E0000220FFF7B4FE00210220FFF7B0FE49E0E1
:1055F000D548844209D101210804FFF7A8FE002103
:105600004FF48030FFF7A3FE3CE0D048844209D13C
:1056100001214804FFF79BFE00214FF40030FFF703
:1056200096FE2FE0CA48844209D101218804FFF781
:105630008EFE00214FF48020FFF789FE22E0C5484E
:10564000844208D101214020FFF770FE0021402054
:10565000FFF76CFE16E0C048844208D1012180208B
:10566000FFF764FE00218020FFF760FE0AE0BB48E0
:10567000844207D101218015FFF758FE0021A015B3
:10568000FFF754FE10BD00220288A84B98420ED0AE
:10569000AC4B98420BD0B0F1804F08D0A44B98424D
:1056A00005D0A44B984202D0A34B984204D14FF6A8
:1056B0008F731A404B881A43A04B984207D0A04BD7
:1056C000984204D04FF6FF431A400B891A430280D8
:1056D0004B68C3620B880385944B984202D0994B68
:1056E000984201D18B7A03860123838270474FF061
:1056F000FF3141600021018001814180817270474A
:105700000185828270470A46002101884FF68F7317
:10571000194011430180704741627047C162704770
:105720000146486A70470146088D704721B10288DA
:1057300042F00202028004E002884FF6FD731A4034
:105740000280704721B1028842F00402028004E026
:1057500002884FF6FB731A400280704721B102881D
:1057600042F08002028004E002884FF67F731A4004
:105770000280704702884FF6F7731A400280028851
:105780000A430280704702884FF6FF431A400280A6
:1057900002880A430280704721B1028842F0010268
:1057A000028004E002884FF6FE731A4002807047C0
:1057B00070B5002400220023058C4FF6FE7635409C
:1057C0000584028C8388048B4FF68F752C40B51EA0
:1057D0002C400D882C43751E2A408D892A434D8804
:1057E0002A43524DA84202D0564DA84213D14FF63B
:1057F000F7752A40CD892A434FF6FB752A408D88DC
:105800002A434FF6FF652B404FF6FF552B400D8A7C
:105810002B434D8A2B43838004838D684563028428
:1058200070BD70B5002400220023058C4FF6EF7682
:1058300035400584028C8388048B48F6FF752C4024
:105840004FF6FF452C400D884FF6FF7606EA0525FA
:105850002C434FF6DF752A408D8906EA05152A4349
:105860004D8806EA05152A43304DA84202D0354D31
:10587000A8421DD14FF67F752A40CD894FF6FF769D
:1058800006EA05152A434FF6BF752A408D8806EAB9
:1058900005152A434FF6FF352B404FF2FF752B407D
:1058A0000D8A06EA85052B434D8A06EA85052B43BA
:1058B000838004838D688563028470BD70B5002485
:1058C00000220023058C4FF6FF6635400584028CCC
:1058D0008388848B4FF68F752C404FF6FC752C40D7
:1058E0000D882C434FF6FF552A408D894FF6FF76E1
:1058F00006EA05252A434D8806EA05252A430B4D6D
:10590000A84202D00F4DA84238D14FF2FF752A406D
:10591000CD894FF6FF7606EA05252A434FF6FF3577
:105920002A408D8806EA05252A4319E00000014037
:105930000004004000080040000C0040001000403F
:1059400000140040000401400040014000440140B8
:105950000048014000180040001C004000200040AA
:105960004EF6FF752B404DF6FF752B400D8A06EA6B
:1059700005152B434D8A06EA05152B438380848346
:105980008D68C563028470BD70B5002200230024B9
:10599000058C4EF6FF7635400584038C8488828B17
:1059A00048F6FF752A404FF6FF452A400D884FF60E
:1059B000FF7606EA05252A434DF6FF752B408D89B3
:1059C00006EA05352B434D8806EA05352B43FE4D87
:1059D000A84202D0FD4DA84208D14BF6FF752C40DD
:1059E0000D8A4FF6FF7606EA85152C438480828364
:1059F0008D680564038470BD002101804180818031
:105A000081608181C18101824182704770B5034606
:105A1000002000241846183001258D40ACB21D8CA2
:105A2000A5431D8409B108290AD100EB610005686E
:105A30004FF68F76354005600568154305600FE029
:105A40000D1FC5F34E052844056848F6FF7635401E
:105A5000056005684FF6FF7606EA022635430560C5
:105A600070BD4163704781637047C16370470164D3
:105A700070470A460021018B4FF68F73194011437E
:105A8000018370470A460021018B48F6FF731940D5
:105A90004FF6FF7303EA02231943018370470A4656
:105AA0000021818B4FF68F7319401143818370471A
:105AB0000A460021818B48F6FF7319404FF6FF73A9
:105AC00003EA02231943818370470A460021018BB0
:105AD0004FF6F77319401143018370470A460021BE
