:020000040800F2
:1000000038130020290200080D0700080F07000818
:1000100013070008170700081B070008000000006E
:100020000000000000000000000000001F070008A2
:1000300021070008000000003F02000841020008FC
:10004000430200084302000843020008430200087C
:10005000430200084302000843020008DD080008CC
:10006000430200084302000843020008430200085C
:10007000430200084302000843020008430200084C
:10008000430200084302000843020008430200083C
:100090004302000843020008430200082F12000830
:1000A000430200084302000843020008430200081C
:1000B000230700085D1100084302000843020008FE
:1000C00043020008430200084302000843020008FC
:1000D00043020008FF170008DD1800089719000800
:1000E00043020008430200084302000843020008DC
:1000F00043020008430200084302000843020008CC
:1001000043020008430200084302000843020008BB
:100110004F1A0008371B000843020008430200087A
:10012000430200084302000843020008430200089B
:10013000430200084302000843020008430200088B
:10014000430200084302000843020008430200087B
:10015000430200084302000843020008F31B0008A2
:10016000430200084302000843020008430200085B
:10017000430200084302000843020008430200084B
:10018000430200084302000800F002F800F03CF8C7
:100190000AA090E8000C82448344AAF10107DA45E2
:1001A00001D100F031F8AFF2090EBAE80F0013F0F8
:1001B000010F18BFFB1A43F001031847FC6D000044
:1001C0001C6E0000103A24BF78C878C1FAD85207D4
:1001D00024BF30C830C144BF04680C6070470000C1
:1001E0000023002400250026103A28BF78C1FBD840
:1001F000520728BF30C148BF0B6070471FB506F0DB
:10020000D5FE1FBD10B510BD06F0D1F91146FFF7A0
:10021000F5FF00F05AFA06F0EFF903B4FFF7F2FF2A
:1002200003BC01F045F80000094880470948004731
:10023000FEE7FEE7FEE7FEE7FEE7FEE7FEE7FEE796
:10024000FEE7FEE704480549054A064B70470000F3
:1002500047030008890100083807002038130020F0
:10026000380B0020380B00200CB5002001900090C6
:100270007648006840F480307449086000BF7348D5
:10028000006800F4003000900198401C0190009834
:1002900020B94FF6FF7101988842F0D16B48006891
:1002A00000F4003010B10120009001E00020009027
:1002B0000098012846D165484030006840F08050E1
:1002C0006249403108606248006840F4404060493B
:1002D00008605E48083000685C49083108600846DC
:1002E000006840F4004008600846006840F4A050F0
:1002F00008605848091F0860081F006840F08070B7
:10030000091F086000BF5148006800F00070002815
:10031000F9D040F20570504908604C480830006838
:1003200020F003004949083108600846006840F0A1
:100330000200086000BF45480830006800F00C006B
:100340000828F8D10CBD10B54448006840F470008E
:10035000424908603D48006840F001003B490860A0
:1003600000203A4908310860384800683C49084094
:10037000364908603B48091D0860081F006820F4E2
:100380008020091F0860002030490C310860FFF709
:100390006BFF4FF0006031498039086010BD70B5C7
:1003A00000200022022300240221284D08352D6858
:1003B00005F00C0020B1042806D0082834D107E04D
:1003C000294D2A4E356033E0294D284E35602FE007
:1003D0001E4D2D1D2D68C5F380541C4D2D1D2D68FF
:1003E00005F03F0154B1224DB5FBF1F5174E361D16
:1003F0003668C6F3881605FB06F209E01A4DB5FB10
:10040000F1F5124E361D3668C6F3881605FB06F266
:100410000E4D2D1D2D68C5F301456D1C6B00B2FB03
:10042000F3F5124E356003E00F4D104E356000BFFE
:1004300000BF064D08352D68C5F303150D4E705DE0
:100440000A4D2D68C540094E356070BD0038024028
:100450000070004008544007003C024088ED00E076
:10046000FFFFF6FE103000240024F40000000020FE
:1004700000127A0004000020A048007800F001007B
:1004800028B19E48007820F001009C490870704710
:1004900010B59A480078C0F3C00038B1974800788A
:1004A00020F008009549087000F086FE10BD10B5D8
:1004B00092480078C0F3801058B19048007820F03E
:1004C00040008E4908708E4A0721A2F1080003F00F
:1004D0006DF910BD10B5894800780121B1EBD01F2E
:1004E0005CD18648007820F08000844908708448F8
:1004F000283890F8D40000F0010000284ED0814840
:100500000068401C7F4908600868C11700EB9171C2
:100510008910A0EB8101012904D10821784883309A
:1005200003F06AFC77490868C11700EB91718910E4
:10053000A0EB8101022904D108217148833003F026
:1005400073FC70490868C11700EB91718910A0EB2A
:100550008101032904D108216948833003F07CFC20
:1005600068490868C11700EB91718910A0EB8101FF
:10057000A1B90020634908606148283890F8D40088
:1005800020F001005E49283981F8D400084690F82F
:10059000D40020F00200801C81F8D40010BD10B5FA
:1005A0005648407800F0010090B15448407820F05F
:1005B00001005249487002F0CAFD02F0DAFD02F073
:1005C000E6FD514890F8A8104D48283803F0EAFAA3
:1005D00010BD10B549484078C0F3400038B14748D5
:1005E000407820F002004549487003F024FB10BD1C
:1005F00010B542484078C0F38000C8B13F48407809
:1006000020F004003D49487002F0CEFF03F0C6FB25
:10061000022207213A487B3002F00BFF02F094FEE1
:10062000374A0821A2F1080003F070F801F0F6FF44
:1006300010BD32484078C0F3C00028B12F48407840
:1006400020F008002D494870704710B52B484078BD
:10065000C0F3001078B12948407820F010002749F5
:100660004870042126481E3002F0B8FF09212448B2
:10067000263003F0A7FB10BD10B500F0C9FCFFF752
:1006800062FEA82000F0FCFB00F095F900F034F9C0
:1006900001F0F7FC4FF4FA7000F054FC01F058F848
:1006A00003F0D6FA01F0FCFA4FF4FA7000F04AFCBD
:1006B00003F0A8FA4FF4FA7000F044FC02F05CF882
:1006C00002F024FF00F044FD10BDFFF7D5FF03F05A
:1006D000FAFA11E0FFF7D0FEFFF7DAFEFFF7E7FEC8
:1006E000FFF7F8FEFFF75BFFFFF773FFFFF780FFF1
:1006F000FFF79FFFFFF7A9FFECE7000028000020AD
:100700000C0100201C000020F8010020704700BFF1
:10071000FEE700BFFEE700BFFEE700BFFEE7704751
:10072000704710B50121880705F065FB00287DD0D2
:100730000121880705F070FB69480088401C684962
:1007400008806848007820F00100401C6549087066
:1007500063480088052190FBF1F201FB120040B9CB
:100760006048007820F00400001D5E49087001F028
:1007700001FD5B4800880A2190FBF1F201FB1200A9
:1007800030B95848007820F0080008305549087002
:1007900053480088142190FBF1F201FB120030B99C
:1007A0005048007820F0100010304E4908704C4836
:1007B0000088322190FBF1F201FB120030B9494868
:1007C000007820F0400040304649087044480088D6
:1007D000642190FBF1F201FB120030B9414800782E
:1007E00020F0800080303F4908703D480088C821D3
:1007F00090FBF1F201FB120030B93A48407820F04A
:100800000100401C37494870354800884FF4FA71A0
:1008100090FBF1F201FB120030B93248407820F031
:100820000200801C2F4948702D4800E055E00088E8
:10083000B0F57A7F42D12B48407820F00400001DAB
:100840002849487028480078401C2749087004212E
:10085000264802F084FE092124480D3003F079FA7D
:10086000062122485B3002F0D4FC1F4800780521A5
:1008700090FBF1F201FB120048B900201A49087000
:100880001848407820F0100010301649487015487C
:100890004078C0F3401088B115480078401C1449D6
:1008A000087008460078032808DB0020087011480B
:1008B000007820F00100401C0E49087008480088AC
:1008C000B0F5966F09D100200549088005484078A9
:1008D00020F0080008300349487010BD7047000040
:1008E0002400002028000020260000202E010020E7
:1008F000270000202E0000201FB50121084604F02B
:10090000C0FB4FF0804004F011FD40F2E730029050
:100910005320ADF804000020ADF80600ADF80C003F
:1009200001A94FF0804004F0AEFD0122412188076B
:1009300005F04AFA1C208DF8000001208DF8010016
:100940008DF802008DF80300684603F032FB0121A8
:10095000880704F021FE1FBD1FB50121082004F007
:1009600090FBFE4804F0E2FC312002905320ADF8E9
:1009700004000020ADF80600ADF80C0001A9F7480E
:1009800004F081FD01221146F44805F01DFA3220E1
:100990008DF8000001208DF8010003208DF8020081
:1009A00001208DF80300684603F003FB0121EB48AA
:1009B00004F0F2FD1FBD38B504F03EF9012004F04B
:1009C00064F904F087F9044600BF012CFDD12CD155
:1009D000002004F0D3F9E248006840F44040E049C8
:1009E0000860002004F013FA200304F024FA4FF406
:1009F000A05004F016FA042002234FF4A872082134
:100A00000090000504F0AAF9012004F0B7F900BF36
:100A1000392004F041F90028FAD0022004F0E7F967
:100A200000BF04F0EEF90828FBD138BD2DE9FF4FD7
:100A300003460C4600250027AC46A846A946C949EE
:100A400002264FF0010A062003904FF0050B00200C
:100A5000029001900090012B0ED149105E044FF4DA
:100A6000803A042003904FF0030B012002900420F1
:100A700001900005009005E0022B03D0072004B090
:100A8000BDE8F08F192C71D2DFE804F00D17212B8F
:100A9000353F49535D67717B858F99A3ADB7C1CB56
:100AA000D5DFE9F5FF00B048B1FBF0F74FF0600C7F
:100AB0004FF008084FF00209FBE0AB48B1FBF0F73C
:100AC0004FF0600C4FF006084FF00209F1E0A74824
:100AD000B1FBF0F74FF0480C4FF008084FF0030956
:100AE000E7E0A248B1FBF0F74FF0600C4FF00808C8
:100AF0004FF00409DDE09D48B1FBF0F74FF0780CB2
:100B00004FF008084FF00509D3E09848B1FBF0F723
:100B10004FF0600C4FF006084FF00409C9E093480D
:100B2000B1FBF0F74FF0900C4FF008084FF00609BA
:100B3000BFE08E48B1FBF0F74FF0780C4FF006089D
:100B40004FF00509B5E08948B1FBF0F74FF0A80C6C
:100B50004FF008084FF00709ABE08448B1FBF0F70D
:100B60004FF0C00C4FF00808C146A2E097E07F4864
:100B7000B1FBF0F74FF0D80C4FF008084FF009091F
:100B800097E07A48B1FBF0F74FF0A80C4FF0060859
:100B90004FF007098DE07548B1FBF0F74FF0780C86
:100BA0004FF004084FF0050983E07048B1FBF0F7FF
:100BB0004FF0C00C4FF006084FF0080979E06B4881
:100BC000B1FBF0F74FF0900C4FF004084FF006091E
:100BD0006FE06648B1FBF0F74FF0F00C4FF00608FD
:100BE0004FF00A0965E06148B1FBF0F74FF0A80C3F
:100BF0004FF004084FF007095BE05C48B1FBF0F7E9
:100C00004FF0C00C4FF004084FF0080951E057486E
:100C1000B1FBF0F74FF0D80C4FF004084FF0090982
:100C200047E05248B1FBF0F74FF0780C4FF0020864
:100C30004FF005093DE04D48B1FBF0F74FF0900C47
:100C40004FF002084FF0060933E04848B1FBF0F7D7
:100C50004FF0A80C4FF002084FF0070929E0434875
:100C6000B1FBF0F74FF0C00C4FF002084FF008094D
:100C70001FE00AE0FFE73D48B1FBF0F74FF0D80C6A
:100C80004FF002084FF0090913E03848B1FBF0F7C4
:100C90004FF0F00C4FF002084FF00A0909E033481A
:100CA000B1FBF0F74FF0F00C4FF002084FF00A09DB
:100CB00000BF00BF2E48006800EA0602A2B92C4817
:100CC000006840EA0A00DFF8A8E0CEF8000000BFA4
:100CD0002748006800EA06026D1C12B9B5F5C06F1E
:100CE000F6D30AB90398CAE621480830006820F014
:100CF0000300DFF87CE00EF1080ECEF8000070462D
:100D00000068DDF808E040EA0E00DFF864E00EF16C
:100D1000080ECEF8000000BF15480830006800F04B
:100D20000C0E01988645F7D11148006820F08070BC
:100D3000DFF83CE0CEF800007046006820F08060EC
:100D4000CEF8000047EA8C104FF0010ECEEB580EA3
:100D500040EA0E4040EA09600CE00000000C004050
:100D6000007000400024F40040420F0080841E0008
:100D700000380240DDF800E040EA0E00DFF8F4E061
:100D8000CEF80000AEF10400006840F08070AEF1D3
:100D9000040ECEF8000000BF3648001F006800F0C7
:100DA00000700028F8D03348001F006840F08060D1
:100DB000DFF8C0E0AEF1040ECEF8000000BF2D4811
:100DC000001F006800F000600028F8D02948001DCE
:100DD000006820F00300DFF89CE00EF1040ECEF86E
:100DE00000007046006840F00200CEF8000000BF2E
:100DF0002048001D006800F00C000828F8D10BF016
:100E0000FF003CE610B50021002200230024194811
:100E1000001D006800F00C00042801D1164810BD28
:100E20001448001D006800F00C0008B91348F6E7EC
:100E30001048006800F03F010E480068C0F38812B7
:100E40000C480068C0F30140401C4300094800689A
:100E500000F4800434B909485043B0FBF1F0B0FB12
:100E6000F3F0DCE704485043B0FBF1F0B0FBF3F0E3
:100E7000D5E700000438024000127A000024F40094
:100E800010B504466FF0040003F0E0F8E11704EB3E
:100E90005171C1F3C701394A11701046007800EB57
:100EA0004001C1EBC0104FF6FF7101EAC0003449A8
:100EB000088010BD0146314A12784A434FF0E023C2
:100EC0005A6100229A611A46126942F001021A61BF
:100ED00000BF4FF0E022106900F001021AB100F4E7
:100EE0008032002AF5D04FF0E022126922F0010290
:100EF0004FF0E0231A6100229A6170470146204AB0
:100F000012884A434FF0E0235A6100229A611A4640
:100F1000126942F001021A6100BF4FF0E02210692D
:100F200000F001021AB100F48032002AF5D04FF02F
:100F3000E022126922F001024FF0E0231A61002240
:100F40009A61704770B504464FF4077094FBF0F057
:100F5000C6B24FF4077094FBF0F100FB114085B26C
:100F600005E04FF40770FFF7C9FF701EC6B2002EF0
:100F7000F7D115B12846FFF7C1FF70BD2A00002048
:100F80002C00002010B503F057FE10BD10B5212035
:100F9000FFF7D8FF00E010BDFDE738B503F04CFEC9
:100FA000012003F072FE03F095FE044600BF012C01
:100FB000FDD12CD1002003F0E1FE1848006840F478
:100FC000404016490860002003F021FF200303F091
:100FD00032FF4FF4A05003F024FF042002234FF40B
:100FE000A87208210090000503F0B8FE012003F06C
:100FF000C5FE00BF392003F04FFE0028FAD00220C2
:1010000003F0F5FE00BF03F0FCFE0828FBD138BD5D
:1010100010B54FF4A06002F0C7FF10BD0070004093
:101020001CB50121042003F0E2FF4FF48070009012
:1010300002208DF8040000208DF8060002208DF8B3
:1010400007008DF805006946904803F031FD1CBD8E
:1010500000B587B00121022004F013F88C4804F099
:1010600065F940F2E73005905320ADF810000020FC
:10107000ADF81200ADF8180004A9854804F003FA91
:101080000820ADF804000220ADF806000120ADF8FC
:1010900008000020ADF80A00ADF80C0001A97C485A
:1010A00004F0C8FD02220821784803F08CFD1D20C1
:1010B0008DF8000000208DF8010001208DF802005D
:1010C0008DF80300684602F074FF01220821704881
:1010D00004F07AFE01216E4804F05EFA6D48407813
:1010E00020F0200020306B49487007B000BD0EB5DD
:1010F0000121880303F0D6FF0821022004F0DDF867
:101100004FF4807003F045FC00208DF808000C209F
:101110008DF809004FF48070019001208DF80A00CD
:1011200001A803F0C5FB17208DF8000001208DF801
:1011300001008DF802008DF80300684602F039FFC7
:101140005448407820F020002030524948700EBDAD
:1011500010B5FFF765FFFFF77BFF10BD10B5082145
:101160004B4804F048FE30B30821494804F054FECF
:1011700048484078C0F3401020B147480088401CE0
:10118000454908804548007800F0010098B1424880
:1011900000884349088000203F4908803D48407846
:1011A00020F020003B4948703C48007820F00200C5
:1011B000801C3A49087010BD38480078C0F34000E0
:1011C00028B33648007820F00100344908703448CC
:1011D000008800EB80004FF6FF7101EA8000304983
:1011E0004880084640882F49A1F8A6002B4800787F
:1011F00020F00200294908702648407820F020009D
:101200002030244948700020274908600EE0264815
:101210000068401C2449086008460068322805D947
:1012200000202049A1F8A6001F490860704710B5AA
:101230004FF4807003F0A2FB38B34FF4807003F0DA
:1012400099FB4FF4807003F0A4FB12484078C0F380
:10125000401020B115480088401C144908800F48F0
:10126000007800F0010080B1104800880C49088027
:101270000848407820F02000064948700748007868
:1012800020F00200801C0549087010BD00080240D3
:101290000004004028000020340000202E00002020
:1012A00030000020F8010020380000203C00002021
:1012B00000BF704700BF704700BFFE4A128802F0AF
:1012C0004002002AF9D0C2B2FB4B9A80704710B599
:1012D00088B004460121084603F089FE0121102050
:1012E00003F0E0FE07220921F44803F06CFC07221A
:1012F0000A21F24803F067FC4FF4C0600690022018
:101300008DF81C0003208DF81D0000208DF81E00B4
:1013100001208DF81F0006A9E84803F0C9FB4FF42F
:101320000060069001208DF81C0002208DF81D0041
:1013300000208DF81E0001208DF81F0006A9DF484F
:1013400003F0B6FB02944FF48050ADF80C0000207F
:10135000ADF80E004FF48060ADF810000020ADF83D
:1013600014000C20ADF8120002A9D24804F097FE38
:101370000121D04804F01BFF012240F22551CD4845
:1013800004F0CBFF25208DF8040001208DF8050026
:1013900003208DF8060001208DF8070001A802F057
:1013A00008FE08B010BD10B588B004460121082021
:1013B00003F01DFE0121480403F063FE072205210E
:1013C000BF4803F000FC07220621BD4803F0FBFBE9
:1013D0006020069002208DF81C0003208DF81D006F
:1013E00000208DF81E0001208DF81F0006A9B448CA
:1013F00003F05EFB02940020ADF80C00ADF80E0087
:10140000ADF81000ADF814000C20ADF8120002A9E0
:10141000AC4804F044FE0121AA4804F0C8FE0122B1
:1014200040F22551A74804F078FF26208DF80400EB
:1014300003208DF805008DF8060001208DF80700C7
:1014400001A802F0B6FD08B010BD10B588B0044682
:101450000121022003F0CBFD0121880403F011FEDD
:1014600007220A21984803F0AEFB07220B21964879
:1014700003F0A9FB4FF44060069002208DF81C0099
:1014800003208DF81D0000208DF81E0001208DF82E
:101490001F0006A98C4803F00BFB02940020ADF856
:1014A0000C00ADF80E00ADF81000ADF814000C20E3
:1014B000ADF8120002A9854804F0F1FD012183482E
:1014C00004F075FE012240F22551804804F025FF0A
:1014D00027208DF8040003208DF805008DF8060004
:1014E00001208DF8070001A802F063FD08B010BDCF
:1014F00010B588B004460121042003F078FD0121D5
:10150000C80403F0BEFD08220A21714803F05BFB0A
:1015100008220B216E4803F056FB4FF44060069002
:1015200002208DF81C008DF81D0000208DF81E0093
:1015300001208DF81F0006A9654803F0B9FA02944E
:101540000020ADF80C00ADF80E00ADF81000ADF8BD
:1015500014000C20ADF8120002A95E4804F09FFDB3
:1015600001215C4804F023FE012240F22551594834
:1015700004F0D3FE34208DF8040001208DF805001E
:101580008DF806008DF8070001A802F012FD08B0E2
:1015900010BD10B588B0044601210C2003F027FDD2
:1015A0000121080503F06DFD08220C21484803F0D5
:1015B0000AFB08220221424803F005FB4FF4805049
:1015C000069002208DF81C008DF81D0000208DF87B
:1015D0001E0001208DF81F0006A93D4803F068FA9F
:1015E0000420069002208DF81C008DF81D000020BC
:1015F0008DF81E0001208DF81F0006A9304803F069
:1016000057FA02940020ADF80C00ADF80E00ADF8CA
:101610001000ADF814000C20ADF8120002A9264805
:1016200004F03DFD0121244804F0C1FD012240F2F7
:101630002551214804F071FE35208DF80400032067
:101640008DF805008DF8060001208DF8070001A82F
:1016500002F0AFFC08B010BD10B588B004460121FF
:101660000C2003F0C4FC0121202003F01BFD082204
:101670000621174803F0A7FA08220721144803F0AF
:10168000A2FAC020069002208DF81C008DF81D00E3
:1016900000208DF81E0001208DF81F0006A90C48BF
:1016A00003F006FA4FF40040069001208DF81C006C
:1016B000022011E0001001400050004000000240F4
:1016C000000C02400044004000040240004800407A
:1016D00000080240004C00408DF81D0000208DF8ED
:1016E0001E0001208DF81F0006A9FE4803F0E0F956
:1016F00002944FF48050ADF80C000020ADF80E00BD
:101700004FF48060ADF810000020ADF814000C20FC
:10171000ADF8120002A9F44804F0C1FC0121F2481E
:1017200004F045FD012240F22551EF4804F0F5FD9B
:1017300047208DF8040003208DF8050001208DF866
:1017400006008DF8070001A802F033FC08B010BDB8
:1017500010B54FF49640FFF7BAFD4FF41650FFF75F
:1017600022FE4FF41650FFF770FE4FF41650FFF7AD
:10177000BFFE4FF41650FFF70CFF4FF49640FFF7F3
:101780006BFF0120D9490860D949C1F8BC02D9488A
:1017900090F8D50020F00400001DD64981F8D5004E
:1017A00010BD10B504460020D04908608021D24801
:1017B00004F0E5FD4021D04804F0E1FD2146CE488B
:1017C00004F020FD00BF4021CB4804F0CBFD0028F1
:1017D000F9D00120C549086010BD70B505460E4618
:1017E000002400BF08E0285DFFF7DBFF4FF4FA702C
:1017F000FFF760FB601CC4B2B442F4DB70BD10B5EF
:1018000040F22551BC4804F0C3FD00283FD0202100
:10181000B94804F0B4FD40F22551B74804F0F3FD97
:10182000B54804F0F3FCC1B2B24890F8C2202030B1
:101830008154203890F82000B0490978884226D198
:10184000AE48007818B3AB4890F8C200401CA949D4
:1018500081F8C200084690F8C20008280ADB002080
:1018600081F8C200084690F8D40020F00100401C26
:1018700081F8D4009F4890F8C200022807DB9D48F9
:1018800090F8210018B900209A4981F8C20010BDD3
:1018900010B5044680219A4804F071FD4021984813
:1018A00004F06DFD2146964804F0ACFC00BF4021D9
:1018B000934804F057FD0028F9D010BD70B50546D7
:1018C0000E46002407E0285DFFF7E2FF0A20FFF73D
:1018D00039FB601CC4B2B442F5DB70BD10B540F2F8
:1018E0002551874804F054FD68B32021844804F052
:1018F00046FD40F22551824804F085FD804804F001
:1019000085FCC1B27B4890F8C4204A3081544A38E3
:1019100090F84A005F2816D1764890F8C400401C21
:10192000744981F8C400084690F8C40004280ADB12
:10193000002081F8C400084690F8D40020F004008C
:10194000001D81F8D40010BD10B5044680216D48FB
:1019500004F015FD40216B4804F011FD2146694853
:1019600004F050FC00BF4021664804F0FBFC002856
:10197000F9D010BD70B505460E46002408E0285D7C
:10198000FFF7E2FF4FF49670FFF794FA601CC4B2C1
:10199000B442F4DB70BD10B540F22551594804F053
:1019A000F7FC68B32021574804F0E9FC40F22551C8
:1019B000544804F028FD534804F028FCC1B24D48B7
:1019C00090F8C62057308154573890F85700FF28B8
:1019D00016D1484890F8C600401C464981F8C60018
:1019E000084690F8C60009280ADB002081F8C600E6
:1019F000084690F8D40020F00800083081F8D400A0
:101A000010BD10B5044680213F4804F0B8FC4021C9
:101A10003D4804F0B4FC21463B4804F0F3FB00BF12
:101A20004021394804F09EFC0028F9D010BD70B563
:101A300005460E46002407E0285DFFF7E2FF0A2076
:101A4000FFF780FA601CC4B2B442F5DB70BD10B57C
:101A500040F225512C4804F09BFC68B320212A4811
:101A600004F08DFC40F22551274804F0CCFC2648B8
:101A700004F0CCFBC1B21F4890F8C8206B308154F1
:101A80006B3890F86B00162816D11A4890F8C800E9
:101A9000401C184981F8C800084690F8C80038284A
:101AA0000ADB002081F8C800084690F8D40020F036
:101AB0001000103081F8D40010BD10B5044680210C
:101AC000124804F05CFC4021104804F058FC214608
:101AD0000E4804F097FB00BF40210C4804F042FC84
:101AE000002815E0000C024000140140AC02404206
:101AF00000804142E400002000100140CC000020A2
:101B00000044004000480040004C004000500040AD
:101B1000E2D010BD70B505460E46002408E0285DF1
:101B2000FFF7CBFF4FF4FA70FFF7C4F9601CC4B2A3
:101B3000B442F4DB70BD10B540F22551544804F0B6
:101B400027FC40B32021524804F019FC40F22551F3
:101B50004F4804F058FC4E4804F058FBC1B24D48C1
:101B600090F8CA20A5308154A53890F8CA00401CCE
:101B7000484981F8CA00084690F8CA0006280ADBDE
:101B8000002081F8CA00084690F8D40020F0200018
:101B9000203081F8D40010BD10B5044600203E4925
:101BA000086080213D4804F0EAFB40213B4804F0F6
:101BB000E6FB2146394804F025FB00BF40213748A9
:101BC00004F0D0FB0028F9D001203349086010BD93
:101BD00070B505460E46002408E0285DFFF7DCFFDF
:101BE0004FF4FA70FFF766F9601CC4B2B442F4DB3C
:101BF00070BD10B540F22551284804F0C9FB0028FB
:101C000044D02021254804F0BAFB40F22551234856
:101C100004F0F9FB214804F0F9FAC1B21D4890F82C
:101C2000CC20B3308154B33890F8B300072809D0E2
:101C3000184890F8B300082804D0164890F8B3006C
:101C4000092823D1134890F8CC00401C114981F891
:101C5000CC00084690F8CC0007280ADB002081F869
:101C6000CC00084690F8D40020F04000403081F8C5
:101C7000D400084890F8CC00022807DB054890F80B
:101C8000B40018B90020034981F8CC0010BD000051
:101C900000500040E4000020BC824142001401409A
:101CA0001CB50121022003F0A2F94FF4407000900E
:101CB00001208DF804008DF8060002208DF8050043
:101CC00001208DF807006946C04802F0F1FE0120AE
:101CD000BF490860BF49C1F8A4020A20FFF732F9E2
:101CE0001CBD002004E00021BB4A1154411C88B2F5
:101CF0000A28F8DB704710B5B448006820F440208B
:101D0000B24908600846006840F48020086001205D
:101D1000AF49091D0860AF49C1F8A0020520FFF7CF
:101D2000C9F80020AA49091D08600520FFF7C2F87C
:101D30000020A849C1F8A0020520FFF7BBF810BD9C
:101D400010B5A248006820F44020A0490860084669
:101D5000006840F48020086000209D49091D08604B
:101D60009C49C1F8A0020520FFF7A4F8012098497A
:101D700008600520FFF79EF801209649C1F8A402EB
:101D800010BD10B500249148006820F440208F4910
:101D9000086008460068086001208D49091D086038
:101DA000FFF788F801208B49C1F8A002FFF782F8FD
:101DB00006E0601CC4B2FA2C02DDFFF7C1FF10BDC3
:101DC00083487C3800680028F3D18149086000BF4F
:101DD000F5E710B57D48006820F440207B49086095
:101DE0000846006840F480200860002078490860B8
:101DF0007849C1F8A4020220FFF75CF80120744979
:101E000008600220FFF756F800207249C1F8A002CE
:101E100010BD10B56D48006820F440206B49086083
:101E20000846006840F48020086000206849086087
:101E300001206849C1F8A4020220FFF73BF8012005
:101E4000634908600220FFF735F800206149C1F8B6
:101E5000A00210BD70B5044680265C48006820F4DE
:101E600040205A4908600846006840F48020086015
:101E700000205749086000251FE004EA060020B949
:101E800000205349091D086003E001205049091D45
:101E900008606006040E0320FFF70CF801204C498F
:101EA00008600320FFF706F800204A49C1F8A002A5
:101EB0000320FEF7FFFF681CC5B2082DDDDB70BDF7
:101EC00070B500244148006820F440203F49086074
:101ED000084600680860002519E001203C490860B8
:101EE0000320FEF7E7FF01203A49C1F8A00260068F
:101EF000040E37487C38006808B144F00104002023
:101F0000334908600320FEF7D5FF681CC5B2082DD1
:101F1000E3DB2E48006820F440202C490860084686
:101F2000006840F480200860204670BD70B505460A
:101F30000C46FFF7E0FEEC20FFF78CFFFFF721FFD8
:101F40002846FFF787FFFFF71CFF2046FFF782FFB9
:101F5000FFF717FFFFF7F4FE0120FEF7F3FF70BD58
:101F600070B504460025FFF7C6FEEC20FFF772FFB0
:101F7000FFF707FF2046FFF76DFFFFF702FFFFF7B0
:101F8000BAFEED20FFF766FFFFF7FBFEFFF798FFB5
:101F90000546FFF73EFFFFF7D3FE6420FEF78AFFFA
:101FA000284670BD2DE9F04106460C460025304616
:101FB000FFF7D6FF07462046FFF7D2FF80463802DC
:101FC00005B245EA08052846BDE8F0810004024054
:101FD000A082404200804042BA0100201CB501218D
:101FE000052003F004F86720009003208DF804001A
:101FF00000208DF807006946F74802F059FD2020BF
:10200000009003208DF8040000208DF80700694639
:10201000F24802F04DFD1CBD00B58FB001218805CE
:1020200002F0E5FFEE4802F061FA00200090ED4872
:102030000190ED48029000200390062004900020BB
:1020400005904FF480600690800007904000089053
:102050004011099040020A9000200B9001200C9042
:1020600000200D900E906946DD4802F0E1FA0FB0B5
:1020700000BD10B504462146DA484C3802F055F848
:1020800010BD00B58BB00121080203F00BF8FFF77B
:10209000A5FFFFF7C1FF0121080203F058F8002156
:1020A0004FF4807003F053F8002001904FF480301B
:1020B0000290002003904FF47060049001A802F099
:1020C0001DF80020059001208DF818008DF81900EA
:1020D000002007900890099006208DF8280005A997
:1020E000C0484C3801F0DBFF0120FFF7C2FF01219F
:1020F000BC484C3802F004F90121BA484C3802F0CF
:10210000F4F80121B7484C3802F00FF80121B44827
:1021100002F0C8FA062301220021B2484C3802F02E
:1021200044F8062302220121AE484C3802F03DF863
:10213000062303220221AB484C3802F036F807236D
:1021400004220521A7484C3802F02FF80723052266
:102150000621A4484C3802F028F8072306220F2154
:10216000A0484C3802F021F89E484C3802F079F82B
:102170000BB000BD9D480088282855DB00209B49F6
:1021800008809B48007805283BDA9A480068C0F32D
:102190008F009949964A127821F8120095484068B4
:1021A000C0F38F009549924A127821F812009148A5
:1021B0008068C0F38F0192488D4A127820F812107F
:1021C0008C48C068C0F38F018E48894A127820F885
:1021D000121088480069C0F38F008B49844A127836
:1021E00021F8120083484069C0F38F008749804A74
:1021F000127821F812007E480078401C7C49087053
:1022000009E000207A4908707A49086048608860CF
:10221000C8600861486100207349086048608860B0
:10222000C860086148612EE0724800686E4909681C
:10223000084470490860084640686B49496808448A
:102240006C4948600846806867498968084469495C
:1022500088600846C0686449C96808446549C86020
:1022600008460069604909690844624908610846EE
:1022700040695D49496908445E4948615B48008896
:10228000401C5A4908807047F0B502460C460023AE
:1022900000250026158816881388002115E032F8DD
:1022A0001100A84202D932F8115005E032F81100AD
:1022B000B04201D232F8116032F81100034432F812
:1022C0001170481C22F81070C1B2601E8842E6DC12
:1022D000A01EC1B2084601EBD077A3EB050CACEB16
:1022E000060C0CEB6703B3FBF1F398B2F0BD10B52D
:1022F00004460A460021002304E034F81300014498
:10230000581CC3B29342F8DBB1FBF2F188B210BDA6
:102310002DE9F04105460C461746069E1FFA86FC3D
:10232000A54204DA0DB900212DE019462BE0BD428B
:1023300001DD314627E09E4201DBF11A00E0991BE6
:10234000A54202DB281B82B201E0601B82B251432E
:10235000A74202DB381B82B201E0E01B82B20029F7
:1023600005DB104602EBD07801EB680104E0104673
:1023700002EBD078A1EB680191FBF2F19C4501DD05
:10238000194400E0591A08B2BDE8F0812DE9F8437C
:1023900007460D4616469846012406E035F8140017
:1023A000B84200DB05E0601CC4B2A8F10100A04205
:1023B000F4DC00BF36F914000090601E36F91030CE
:1023C00035F8142035F810103846FFF7A1FF814684
:1023D0004846BDE8F88300000000024000080240C3
:1023E000106402404C200140D8030020AC000020C3
:1023F000A6000020A4020020BC020020C60200208B
:10240000D0020020DA020020E4020020EE020020C8
:102410002DE9F84F0446002500260027A846A946C6
:10242000AA46AB4605218348FFF72EFF0646052145
:102430008148FFF729FF009005218048FFF724FF1E
:10244000074605217E48FFF71FFF804605217D488E
:10245000FFF71AFF814605217B48FFF715FF8246EB
:1024600019237A4A7A490098FFF790FF8346072C90
:1024700014D2DFE804F0130406080A0D100035B288
:102480000DE05D460BE03DB209E00FFA88F506E08D
:102490000FFA89F503E00FFA8AF500E000BF00BFEC
:1024A000A8B2BDE8F88FF0B5064600250027002445
:1024B00008E03046FFF7ACFF00B2664921F814008F
:1024C000601CC4B20C2CF4DB634800780C2813DACF
:1024D0003046FFF79DFF01B25F4802780078401C4C
:1024E0005D4B18705B4820F81210184600780C28D5
:1024F00002D1002019460870002405E0554830F943
:1025000014000544601CC4B20C2CF7DB0C2095FBB6
:10251000F0F52FB2B8B2F0BD10B500BF0120FFF743
:10252000C2FF044640F6E44060434FF42041B0FB54
:10253000F1F44A49A1F8644010BD00B50220FFF74C
:10254000B2FF00B24649088000BD10B500BF0320AD
:10255000FFF7A9FF044640F6E44060434FF42041F2
:10256000B0FBF1F4A4F114003E4908803E48007825
:10257000642818DA0846008841F2883188420CDA6B
:10258000384800883949384A127821F81200642105
:102590003648FFF779FE3349488033480078401CBD
:1025A0003149087008E000202F49087064212F4845
:1025B000FFF76AFE2B49488010BD10B500BF04200C
:1025C000FFF771FF044640F6E44060434FF42041BA
:1025D000B0FBF1F421490C8410BD10B500BF0520FB
:1025E000FFF761FF044640F6E44060434FF42041AA
:1025F000B0FBF1F41948C48610BD10B500BF062029
:10260000FFF751FF044640F6E44060434FF4204199
:10261000B0FBF1F41149A1F8404010BD00B5FFF73F
:102620008CFFFFF792FFFFF7C8FFFFF7D6FFFFF71A
:10263000E4FF00BDBC020020C6020020D002002042
:10264000DA020020E4020020EE0200203E0000201A
:1026500070000020F8020020AE000020F8010020E9
:10266000AA000020A2000020AF00002010030020DC
:1026700070B5044600252046FFF772FC0546284643
:1026800070BD70B505460024691CC8B2FFF768FC30
:102690000446200204B22846FFF762FC04432046A9
:1026A00070BD10B58820FFF7ECFFFE4988838A20B3
:1026B000FFF7E7FFFB49C8838C20FFF7E2FFF949EA
:1026C00008848E20FFF7DDFFF64948849020FFF74D
:1026D000D8FFF44988849220FFF7D3FFF149C884DA
:1026E0009420FFF7CEFFEF4908859620FFF7C9FF3A
:1026F000EC4948859820FFF7C4FFEA4988859A206D
:10270000FFF7BFFFE749C8859C20FFF7BAFFE549FF
:1027100008869E20FFF7B5FFE2494886A120FFF713
:10272000A7FFE04981F83400E120FFF7AAFFDD4967
:10273000C886E320FFF79CFFDA4981F83800E420DF
:10274000FFF796FF0446E520FFF792FF64F31F10A2
:10275000D4494887E620FFF78BFF0401E520FFF707
:1027600087FF44EA1010CF498887E720FFF780FFF2
:10277000CC4981F83E0010BD10B5B621E020FFF72E
:10278000D5FB0A20FEF7DEFB0721F220FFF7CEFB88
:102790000A20FEF7D7FBFF21F420FFF7C7FB0A2032
:1027A000FEF7D0FB1421F520FFF7C0FB0A20FEF74F
:1027B000C9FBFFF776FF4FF4FA70FEF7C3FBD0209A
:1027C000FFF7CEFBB749886110BD2DE9F041FA2033
:1027D000FFF7C6FB0446FB20FFF7C2FB0546FC20C3
:1027E000FFF7BEFB0646200340EA051040EA161735
:1027F0003846BDE8F0812DE9F041F720FFF7B0FB46
:102800000446F820FFF7ACFB0546F920FFF7A8FBCC
:102810000646200340EA051040EA16173846BDE890
:10282000F08170B5FD20FFF79BFB0546FE20FFF70A
:1028300097FB06462C023443204670BD30B5014656
:102840000020CC10974DAD8BA4EB4504954DB5F908
:102850001E506C43E212934CA48BC4EB21146443CE
:102860002413904DB5F920506C43A313D4188E4D0A
:102870002C602C46246804EB84048034201230BD84
:1028800010B52DED108B84B004469FED880B8DEDB7
:10289000020B8449B1F91E0004F0F7F841EC1B0B60
:1028A0008049888B04F008F941EC1E0B9FED810BE9
:1028B00053EC102B03F062FF41EC1A0B204604F09E
:1028C000E4F841EC1E0B9FED7D0B53EC102B03F055
:1028D00055FF41EC1D0B53EC1A2B04F07DFA41EC33
:1028E0001C0B53EC1B2B04F037F941EC180B6D4912
:1028F000B1F9200004F0C9F841EC1A0B6949888B42
:1029000004F0DAF841EC1F0B9FED6E0B53EC102B2B
:1029100003F034FF41EC1D0B204604F0B6F841EC07
:102920001F0B9FED6A0B53EC102B03F027FF41ECBC
:102930001E0B53EC1D2B04F04FFA41EC1B0B5949B5
:10294000888B04F0B9F841EC1F0B9FED5E0B53EC44
:10295000102B03F013FF41EC1D0B204604F095F8FB
:1029600041EC1F0B9FED590B53EC102B03F006FFAE
:1029700041EC1E0B53EC1D2B04F02EFA41EC1C0B0A
:1029800053EC1B2B04F0E8F853EC1A2BCDE90001B3
:102990009DED000B51EC100B04F0DEF841EC190B2F
:1029A00053EC192B51EC180B03F034FE41EC1A0BCD
:1029B00004F03CF83C49086053EC192B51EC180B1F
:1029C00003F028FE41EC1A0B9FED420B53EC102B49
:1029D00003F0D4FECDE902019DED020B51EC100B8A
:1029E00004F024F804B0BDEC108B10BD30B50446E3
:1029F0002D4800684FF47A45C5EB600188104043CC
:102A0000C012284DB5F92C5000FB05F32548B0F94C
:102A10002A00484303EB40039810224D2D8D00EB14
:102A200005438810404340131E4DB5F926506843B6
:102A3000C5101C48B0F92400484305EB6000811420
:102A400001F50040174D6D8C6843C11309B9002092
:102A500030BDC4F58010A0EB233040F6354500FBB7
:102A600005F2B2F1004F03D25000B0FBF1F202E0E8
:102A7000B2FBF1F04200D01040434013094DB5F9CC
:102A80003250684301139010064DB5F93050684339
:102A90004313C818034DB5F92E50284402EB2012F9
:102AA0001046D5E7F0030020B4000020000000002D
:102AB0000000000000000000000090400000000046
:102AC0000000D040000000000000C04000000000F6
:102AD00000000041000000000000B440F0B52DED02
:102AE000108B83B00646FE48006803F0CEFF41EC31
:102AF0001A0B9FEDFC0B53EC102B03F03FFE41EC47
:102B0000190B9FEDFA0B53EC102B04F065F941EC17
:102B1000180B03F08BFF0446F649B1F92C0003F0C3
:102B2000B4FF41EC1A0B04FB04F003F0AEFF41ECE0
:102B30001B0B53EC1A2B04F00FF841EC190B9FED13
:102B4000EE0B53EC102B03F019FE41EC180B03F0C5
:102B50006DFF0546E749B1F92A0003F096FF41EC05
:102B60001C0B204603F091FF41EC1D0B53EC1C2B7A
:102B700003F0F2FF41EC1B0B9FEDDA0B53EC102B33
:102B800003F0EAFF41EC190B284603F07EFF41EC0D
:102B90001A0B53EC192B03F03DFD41EC180B03F01D
:102BA00045FF0546D349B1F9280003F06EFF41EC1B
:102BB0001B0B9FEDD30B53EC102B03F0CDFF41EC1F
:102BC000190B284603F061FF41EC1B0B9FEDCE0B68
:102BD00053EC102B03F0D2FD41EC1A0B53EC192BE4
:102BE00003F018FD41EC180B03F020FF05462046CA
:102BF00003F04BFF41EC1B0BBE49B1F9240003F07D
:102C000044FF41EC1C0B53EC1B2B03F0A5FFCDE95B
:102C10000001204603F039FF41EC1C0B204603F075
:102C200034FF41EC1E0BB349B1F9260003F02DFF30
:102C300041EC1F0B53EC1E2B03F08EFF41EC1D0BE0
:102C400053EC1C2B03F088FF41EC1B0B9FEDB00BEA
:102C500053EC102B03F092FD41EC1A0B9DED000B91
:102C600053EC102B03F0D6FC41EC190B9FEDA80B95
:102C700053EC102B03F082FD41EC180B03F0D6FE51
:102C800004469C49488C03F017FF41EC190B204681
:102C900003F0FBFE41EC1C0B9FED970B53EC102B4C
:102CA00003F06CFD41EC1B0B9FED9B0B53EC102BC9
:102CB00003F0B0FC41EC1A0B53EC192B03F04CFF62
:102CC00041EC180B03F0B2FE0446304603F0DDFE83
:102CD00041EC190B9FED920B53EC102B04F070F8A4
:102CE00041EC180B03F0A2FE0746204603F0CDFE90
:102CF00041EC190B284603F0C8FE41EC1E0B9FED7A
:102D00008A0B53EC102B03F039FD41EC1C0B3846B9
:102D100003F0BBFE41EC1D0B53EC1C2B04F05CF8E4
:102D200041EC1B0B9FED820B53EC102B03F014FFB7
:102D300041EC1A0B53EC192B03F020FD41EC180B5E
:102D400003F074FE0746384603F09FFE41EC1A0B71
:102D5000384603F09AFE41EC1C0B6649B1F932008B
:102D600003F093FE41EC1D0B53EC1C2B03F0F4FE1F
:102D700041EC1B0B53EC1A2B03F0EEFE41EC190B4C
:102D80009FED6D0B53EC102B03F0F8FC41EC180B8E
:102D900003F04CFE04465749B1F9300003F075FECC
:102DA00041EC1A0B384603F070FE41EC1B0B53EC60
:102DB0001A2B03F0D1FE41EC190B9FED4F0B53EC96
:102DC000102B03F0DBFC41EC180B03F02FFE054643
:102DD0004849B1F92E0003F058FE41EC1C0B601974
:102DE00003F053FE41EC1D0B53EC1C2B03F012FCC3
:102DF00041EC1B0B9FED520B53EC102B03F0BEFC70
:102E000041EC190B384603F040FE41EC1A0B53EC31
:102E1000192B03F0FFFB41EC180B03F007FE0746EC
:102E2000384603B0BDEC108BF0BD30B502462C48DF
:102E30000068A0F5963190032E4B5B8FA0EB0350FA
:102E40002C4BB3F93C3003FB110000F58040C31359
:102E5000284890F83E0048438012264C94F83840A9
:102E60004C434FF4004505EBE4246043AC0104EB14
:102E7000A020204CB4F93640604300F50050801388
:102E800003FB00F1C8134043C0111A4B93F83430D0
:102E90005843A1EB2011002901DA002000E0084688
:102EA0000146B1F1C85F02DD4FF0C85000E00846AE
:102EB0000146081330BD10B52DED108B84B00446CB
:102EC0000748006803F0E1FD41EC180B9FED1E0B75
:102ED00053EC102B03F080FF1D4A03C2054939E073
:102EE000B4000020000000000000004000000000CE
:102EF0000040EF40F0030020000000000000E04030
:102F0000000000000000F040000000000000104041
:102F10000000000000002041000000000000F03F21
:102F20000000000000003041000000000000B04040
:102F300000000000006AB840000000000000E0410E
:102F400000000000000030400000000000C0F2401F
:102F5000B800002091F8380003F0AEFD41EC1F0BE3
:102F60009FED960B53EC102B03F008FC41EC1E0B6D
:102F7000944890ED000B53EC102B51EC1E0B03F01A
:102F8000EBFD41EC1D0B1FED1C0B53EC102B03F064
:102F900041FB41EC1B0B8C4991F83E0003F08CFD8A
:102FA00041EC1E0B9FED850B53EC102B03F0E6FB61
:102FB00041EC1D0B834890ED000B53EC102B51ECB2
:102FC0001D0B03F0C9FD41EC1C0B53EC1B2B03F054
:102FD000C3FD1FED2F0B53EC102BCDE900019DED30
:102FE000000B51EC100B03F015FB41EC190B76496B
:102FF000B1F9360003F049FD41EC1B0B1FED400B0E
:1030000053EC102B03F0BAFB41EC1A0B53EC192BC9
:1030100003F0A2FD41EC180B6B49B1F93C0003F041
:1030200034FD41EC1E0B9FED690B53EC102B03F0AC
:10303000A5FB41EC1D0B634890ED000B53EC102BEE
:1030400051EC1D0B03F088FD41EC190B5E49B1F901
:103050003A0003F01AFD41EC1D0B9FED5E0B53ECA3
:10306000102B03F079FD41EC1A0B53EC192B03F0F4
:10307000D1FA41EC1B0B204603F007FD41EC1C0B81
:1030800053EC1B2B03F0A8FE53EC182BCDE90201E7
:103090009DED020B51EC100B03F05EFD494A03C29B
:1030A000494991F8340003F007FD41EC1B0B4548FA
:1030B00090ED000B53EC102B51EC1B0B03F04CFD6F
:1030C00041EC1A0B1FED6E0B53EC102B03F056FB6B
:1030D00041EC190B1FED700B53EC102B03F070FE3D
:1030E00041EC180B374890ED000B53EC102B51ECD2
:1030F000180B03F031FD334A03C29FED380B53EC3C
:10310000102B304890ED000B51EC100B03F022FE19
:1031100005D29FED320B2B4880ED000B10E09FEDA8
:10312000310B53EC102B274890ED000B51EC100B9A
:1031300003F0D6FC04D29FED2B0B224880ED000B50
:10314000204890ED000B04B0BDEC108B10BD10B505
:10315000FFF73BFB254988608868FFF76FFB234931
:10316000C8600846C0680A2190FBF1F11F48C160A1
:1031700010BD10B5FFF73FFB1C4988618869FFF758
:1031800035FC0A2190FBF1F11848C16110BD10B562
:103190002DED028BFFF745FB144908610869FFF725
:1031A0008AFEB0EE408AF0EE608A51EC180B03F014
:1031B0003DFC0E494861BDEC028B10BD00000000D3
:1031C00000009041B8000020F00300200000000043
:1031D0000000D0400000000000005040000000004F
:1031E000000059400000000000000000F80100202D
:1031F00010B502460B460020002104E0545C044454
:10320000E0B24C1CE1B25C1E8C42F7DC4442E0B2FE
:1032100010BD70B505460C460026382C10DB224642
:103220002946C24803F0FFF82146284603F040F93A
:10323000BE488678601EBD49085CBD49087000E044
:1032400070BDBA480078162862D1701F09285BD279
:10325000DFE800F03B3C3D5A5A5A21053A00B3489A
:103260004078C01CB3494870B048C0780875AF4872
:103270004078401E887008464178AC48FFF7B8FF98
:10328000AB490870AB484078401EA849085CA94982
:1032900081F84A0039E0A5484078C01CA54948702B
:1032A000A2484078401E8870084641789F48FFF742
:1032B0009FFF9F4908709F484078401E9B49085CCB
:1032C0009C4981F84A0020E01FE01EE01DE097487D
:1032D0004078C01C974948709448C07881F84900EC
:1032E00092484078401E8870084641788F48FFF722
:1032F0007FFF8F4908708F484078401E8B49085CDB
:103300008C4981F84A0000E000BF00BF8948C670C0
:1033100000BF95E710B504460B460021D81C90422B
:1033200010DC642A0EDAE15C0902581C205C0143BF
:103330000902981C205C01430902D81C205C01434F
:10334000084610BD0020FCE730B50024794890F80D
:103350004A0077490978884253D17648C0780728CF
:103360004CD00B284BD1002507E07049E81C095CC4
:10337000704815304155681CC5B26E488078A84227
:10338000F3DC342200216B481530FFF7C3FF0446FD
:1033900034B168484460808881B26748A0F86610FC
:1033A0003422042163481530FFF7B4FF044634B1DA
:1033B00060488460008981B25F48A0F868103422B8
:1033C00008215C481530FFF7A5FF044634B1594881
:1033D000C460808981B25848A0F86A1034220C2158
:1033E00054481530FFF796FF044634B15148046144
:1033F000008A81B25048A0F86C1001E000E000BFE4
:1034000000BF30BD70B504460E4615461120207031
:10341000E81E60700C20A070E6701E202071294606
:103420002046FFF7E5FE607129462046FEF772FB55
:1034300070BD70B504460E46154611202070E81E7A
:1034400060700B20A070E67029462046FFF7D0FE82
:10345000207129462046FEF75DFB70BD70B504461D
:103460000D46164611202070F01E60700D20A070D1
:103470002812E070257131462046FFF7B9FE6071D1
:1034800031462046FEF746FB70BD70B504460D463A
:10349000164611202070F01E60700520A0702812C2
:1034A000E070257131462046FFF7A2FE607131467B
:1034B0002046FEF72FFB70BD70B504460E4615463C
:1034C00011202070E81E60700620A070E67029466A
:1034D0002046FFF78DFE207129462046FEF71AFB95
:1034E00070BD70B504460E46154611202070E81ECA
:1034F00060700720A070E67029462046FFF778FE2E
:10350000207129462046FEF705FB70BD10B5062246
:1035100002210A48FFF776FF4FF4FA70FDF712FD1B
:103520004FF4FA70FDF70EFD10BD0000B804002046
:10353000C000002030040020F801002049010020D4
:1035400010B502460B460020002104E0545C044400
:10355000E0B24C1CE1B25C1E8C42F7DC10BD70B5D1
:1035600005460C460026092C0EDB224629462B4830
:1035700002F059FF2146284602F09AFF21462748CB
:10358000FFF7DEFF064600E070BD244800785F28A4
:1035900008D1601E2149085CB04203D12246204870
:1035A00002F041FF00BFEFE71D48583890F859106E
:1035B000A0F85010B0F850004FF6FF7101EA00215A
:1035C00017485838A0F85010B0F8501090F85A002A
:1035D000014313485838A0F85010704770B504469E
:1035E0000D46F5202070F02060703020A07015206E
:1035F000E07029462046FEF761F970BD70B50446BB
:103600000D46F5202070F02060703120A07016204B
:10361000E07029462046FEF751F970BDF004002005
:10362000500200202DE9F04788B005460E462021C3
:10363000684602F05FFF32462946684602F0F3FE14
:103640004FF6FF74002716E0E85D44404FF0000A93
:103650000CE004F0010020B14AF2010080EA6404A9
:1036600000E064100AF101001FFA80FABAF1080FB5
:10367000EFDB781C87B2B742E6DB04F0FF092412C7
:10368000A0464C464FF6FF7000EA042444EA0804C2
:10369000204608B0BDE8F08710B502460B46002072
:1036A0001078012104E00002545C20434C1CE1B27C
:1036B0009942F8DB10BD30B50446134600205D1E6C
:1036C000485D9D1EEAB204E000028D5C2843551E51
:1036D000EAB2A242F8DC12B900020D78284330BDEC
:1036E00030B50446134600205D1E485D9D1EEAB2BB
:1036F00004E000028D5C2843551EEAB2A242F8DCC9
:10370000042A02D100020D79284330BD70B5064667
:103710000D461446FB4890F8D400C0F34000002842
:1037200043D02A463146204602F07DFE29463046E7
:1037300002F0BEFE2078F4490978884235D1F3487A
:10374000007820F010001030F0490870ED4890F833
:10375000D40020F00200EB4981F8D4002078EC4935
:10376000087060784870A0784880084640884FF616
:10377000FF7101EA0020E649488008464088E17868
:103780000843E3494880281F205C888008468088D9
:103790004FF6FF7101EA0020DD49888008468088E5
:1037A000E91E615C0843DA49888070BD70B5054642
:1037B0000E461446D34890F8D400C0F38010002879
:1037C0005CD032462946204602F02DFE314628467E
:1037D00002F06EFE2078072818D1CA4890F8D4006D
:1037E00020F04000C74981F8D400E078C9498880BA
:1037F000084680884FF6FF7101EA0020C54988809D
:103800000846808821790843C249888020780828A2
:1038100018D1BC4890F8D40020F04000B94981F894
:10382000D400E078BB49C8800846C0884FF6FF71D5
:1038300001EA0020B749C8800846C08821790843BA
:10384000B449C8802078092818D1AE4890F8D4002F
:1038500020F04000AB4981F8D400E078AD49088100
:10386000084600894FF6FF7101EA0020A949088146
:103870000846008921790843A649088170BD30B502
:10388000022B04DB04128C54541C085500E030BD9C
:1038900000BFFCE7F0B589B005460C4600272021A3
:1038A00001A802F027FE2878207068786070688888
:1038B0006080A888A0806788A088012876D10C2F16
:1038C00076D2DFE807F0060F18212A333C454E5820
:1038D000616A9149898888B20A230022A11DFFF7F5
:1038E000CEFF66E08C49898A88B20A230022A11D96
:1038F000FFF7C5FF5DE08849898B88B20A23002263
:10390000A11DFFF7BCFF54E08349B1F866000A230C
:103910000022A11DFFF7B3FF4BE07F49B1F868001B
:103920000A230022A11DFFF7AAFF42E07A49B1F85D
:103930006A000A230022A11DFFF7A1FF39E07649A2
:10394000B1F86C000A230022A11DFFF798FF30E0B8
:103950007149098D88B20A230022A11DFFF78FFF4C
:1039600027E06D49B1F8481088B20A230022A11D52
:10397000FFF785FF1DE06849898F88B20A2300227E
:10398000A11DFFF77CFF14E06349B1F8A6000A23EC
:103990000022A11DFFF773FF0BE05F49B1F8500053
:1039A0000A230022A11DFFF76AFF02E02CE0FFE7D7
:1039B00000BF00BF20788DF8040060788DF8050006
:1039C000608800128DF80600A0788DF80700A088A6
:1039D00000128DF8080020798DF80900A0798DF883
:1039E0000A00E0798DF80B00082101A8FFF71AFE04
:1039F000E083E08B0A230222A11DFFF740FF0A208B
:103A0000454981F8A8009BE0A0880328FBD0A08846
:103A10000428F8D0A0880B2802D0A0880C28F2D166
:103A20003D49898988B218230022A11DFFF727FF8D
:103A30003949898A88B218230222A11DFFF71FFF86
:103A40003549898B88B218230422A11DFFF717FF7F
:103A50003149B1F8680018230622A11DFFF70FFFB6
:103A60002C49888818230822A11DFFF708FF29493F
:103A7000C88818230A22A11DFFF701FF25490889DC
:103A800018230C22A11DFFF7FAFE2349488C1823A6
:103A90000E22A11DFFF7F3FE1F49B1F842001823C3
:103AA0001022A11DFFF7EBFE1B49088F18231222DD
:103AB000A11DFFF7E4FE1849B1F8A600182314224F
:103AC000A11DFFF7DCFE1449B1F85000182316229F
:103AD000A11DFFF7D4FE20788DF8040060788DF8E2
:103AE0000500608800128DF80600A0788DF80700A8
:103AF000A08800128DF8080020798DF809000026B2
:103B000013E00000E4000020CC0000202E00002084
:103B1000C20000209E060020F8010020A01D815D4B
:103B200001AAB01D1154701CC6B2182EF6DB1E215E
:103B300001A8FFF777FDE08320202D4981F8A80038
:103B400009B0F0BD30B5134604780C7044784C7061
:103B5000448824128C708478CC70848824120C7170
:103B600004794C71012B09D184798C71C479CC71A1
:103B7000C48B24120C72847F4C7212E00C2B01D087
:103B80000B2B0ED1002205E0841DA55C941D0D5564
:103B9000541CE2B2182AF7DBC48B24128C77847F82
:103BA000CC7730BD70B504460D4612480078C0F39E
:103BB0000010E0B10F48007820F010000D490870A7
:103BC0000D490E48FFF766FE0C48027921460A4867
:103BD000FFF7B8FF29462046FDF7FFFD084890F89B
:103BE000D50020F00200801C054981F8D50070BD89
:103BF000F80100202E000020AA060020C2000020AC
:103C0000E40000201CB50121102001F0F0F94FF470
:103C10004050009001208DF8040000208DF806002F
:103C200002208DF805006946074800F041FF00209A
:103C3000064908601CBD0548006808B9012000E07D
:103C4000002002490860704700040240B4824042EC
:103C50001CB50121102001F0CAF93C200090002081
:103C60008DF8040001208DF8070002208DF8050072
:103C70006946294800F01CFF2748006980B22649A0
:103C800008611CBD254800884FF6FA71884204DAA5
:103C900022480088401C21490880704710B5002444
:103CA0001D4800F070FFC0F383040A20FDF74AF9B5
:103CB0001B48047010BD10B5FFF7F0FF18480078DE
:103CC0001849087010BD10B5FFF7F5FF15480078CA
:103CD00007281DD2DFE800F01C04080C101418009F
:103CE00001201149087014E002200F49087010E00B
:103CF00003200D4908700CE004200B49087008E00F
:103D000005200949087004E006200749087000E012
:103D100000BF00BF10BD000000100240D000002016
:103D2000CE000020CD000020CC00002010B50246BF
:103D30000B4600210020012104E0545C0444E0B261
:103D40004C1CE1B29C1E8C42F7DCC443641CE0B204
:103D500010BD70B505460C460026092C0EDC224627
:103D60002946234802F05FFB2146284602F0A0FBCB
:103D700021461F48FFF7DAFF064600E070BD1C48E9
:103D80000078FF2808D1601E1949085CB04203D1B1
:103D90002246184802F047FB00BFEFE715482C38D1
:103DA00090F82E10C163C06B010212482C38C16319
:103DB000C06B10492C3991F82F1008430D492C394C
:103DC000C863704770B504460D46FF20207001207F
:103DD00060708620A0700020E07020716071A0717A
:103DE000E0717920207229462046FDF7C3FD70BDA1
:103DF000CA0600202402002070B504460D460720A4
:103E0000207004206070D020A0701020E07000208E
:103E10002071012060710820A071A920E07129465D
:103E20002046FDF7D5FE70BD70B504460D4608204E
:103E3000207004206070D020A0701020E07000205E
:103E40002071012060710820A0715620E071294680
:103E50002046FDF7BDFE70BD70B504460D46092035
:103E6000207004206070D020A0701020E07000202E
:103E70002071012060710920A0718720E07129461E
:103E80002046FDF7A5FE70BD70B504460D4607201F
:103E9000207004206070D020A0701120E0700020FD
:103EA0002071012060715920A0716920E0712946BC
:103EB0002046FDF78DFE70BD70B504460D46082006
:103EC000207004206070D020A0701120E0700020CD
:103ED0002071012060715920A0719620E07129465F
:103EE0002046FDF775FE70BD70B504460D460920ED
:103EF000207004206070D020A0701120E07000209D
:103F00002071012060715820A0714720E07129467E
:103F10002046FDF75DFE70BD70B504460D460720D6
:103F2000207004206070D020A0701220E07000206B
:103F3000207101206071A920A0716920E0712946DB
:103F40002046FDF745FE70BD70B504460D460820BD
:103F5000207004206070D020A0701220E07000203B
:103F6000207101206071A920A0719620E07129467E
:103F70002046FDF72DFE70BD70B504460D460920A4
:103F8000207004206070D020A0701220E07000200B
:103F9000207101206071A820A0714720E07129469E
:103FA0002046FDF715FE70BD32490143324A1160CB
:103FB000704770B5002100230F22C4781CB32E4C2B
:103FC000246804F4E064C4F5E064C4F30721C1F19B
:103FD0000404E3B20A4144789C40E1B2847814407E
:103FE00021430C07210E254C05786155047804F017
:103FF0001F050124AC4005786D11AD0005F1E025E9
:10400000C5F8004109E0047804F01F050124AC4024
:104010001B4D0678761145F8264070BD194A0A40B6
:104020000243154B1B1F1A60704739B1124A121D0B
:1040300012680243104B1B1D1A6006E00E4A121D47
:10404000126882430C4B1B1D1A607047042808D16C
:104050004FF0E021096941F004014FF0E0221161C5
:1040600007E04FF0E021096921F004014FF0E02260
:10407000116170470000FA050CED00E000E400E07B
:1040800080E100E080FFFF1F10B50121080201F070
:104090005EF800214FF4807001F059F810BD30B582
:1040A0000246002000235068F84C20400D790C682F
:1040B00044EA0524204350609068F54C2040D1E943
:1040C00003542C438D682C434D7944EA4504204326
:1040D0009060D06A20F470000C7D641EE4B223432B
:1040E00040EA0350D06230BD00210160017141718E
:1040F0008160C16001610121017570470021E54ABD
:104100001168E54A1140D0E900231A4383681A4335
:10411000C3681A431143E14AC2F8041370470021EF
:10412000016041608160C160704721B1826842F0E6
:104130000102826003E0826822F00102826070471F
:104140000A4600214168D64B19401143416070472F
:104150004162826270470A460021416821F01F01D6
:1041600011434160704738B1CA49096841F4000100
:10417000CA4AC2F8041306E0C649096821F40001DE
:10418000C64AC2F80413704738B1C249096841F4FD
:104190008001C24AC2F8041306E0BE49096821F44E
:1041A0008001BE4AC2F804137047F0B504460D46BC
:1041B00000200021092D11DDE068A5F10A0606EBBB
:1041C0004607072606FA07F18843A5F10A0606EB1B
:1041D000460603FA06F10843E0600CE0206905EBAF
:1041E0004507072606FA07F1884305EB450603FA5B
:1041F00006F108432061072A0FDA606B561E06EBB2
:1042000086071F2606FA07F18843561E06EB860628
:1042100005FA06F10843606322E00D2A0FDA206BED
:10422000D61F06EB86071F2606FA07F18843D61F1E
:1042300006EB860605FA06F10843206310E0E06A03
:10424000A2F10D0606EB86071F2606FA07F1884342
:10425000A2F10D0606EB860605FA06F10843E062B8
:10426000F0BD816841F080418160704701460020C7
:104270008A6802F080420AB1012000E00020704705
:1042800021B1826842F48062826003E0826822F495
:1042900080628260704721B1826842F002028260CF
:1042A00003E0826822F002028260704710B50A467D
:1042B00000210023416821F46041531E41EA43314B
:1042C000416010BD21B1426842F40062426003E0E7
:1042D000426822F40062426070470146C86C80B2B6
:1042E00070476C48001D0068704721B1826842F435
:1042F0008072826003E0826822F48072826070477C
:1043000021B1826842F40072826003E0826822F484
:1043100000728260704738B15E49096841F400510B
:104320005E4AC2F8041306E05A49096821F40051B4
:104330005A4AC2F804137047F0B5044615460020E7
:1043400000220026092911DDE068A1F10A0707EB28
:10435000470C072707FA0CF29043A1F10A0707EB75
:10436000470703FA07F21043E0600CE0206901EB15
:10437000410C072707FA0CF2904301EB410703FABF
:1043800007F210432061A06BC0F30156EF1C06F149
:10439000010CA7EB0C0707EB870C1F2707FA0CF2A1
:1043A0009043EF1C06F1010CA7EB0C0707EB870706
:1043B00001FA07F21043A063F0BD10B50A460021D0
:1043C0000023816B21F44011531E41EA03518163A4
:1043D00010BD08B5002300930090009B0B44009390
:1043E000009B1A6008BD0A460021816821F47021F3
:1043F0001143816070470A460021816821F4401111
:10440000114381607047816841F480018160704789
:10441000014600208A6802F480020AB1012000E00F
:104420000020704721B1426842F48062426003E09C
:10443000426822F480624260704721B1426842F4CF
:104440008052426003E0426822F48052426070472A
:1044500008B5024600200090009201F12800009B60
:10446000184400900098006880B208BD10B50B4653
:104470000021D9B2012404FA01F11AB144680C43B5
:10448000446002E044688C43446010BDFFFEFFFCC2
:10449000FDF7FFC004230140E030FCFF0020014095
:1044A000FFFD3FFF0246002013680B400BB10120C7
:1044B00000E000207047CA430260704770B50246B2
:1044C0000020002300240B12556801268E4005EAC7
:1044D000060415681D4015B10CB1012000E0002054
:1044E00070BD00220A12D34303607047016821F0B7
:1044F000010101600021016041608160C1600161D2
:1045000021214161DB49884204D13D21D94A103A39
:1045100091608CE0D7491831884205D14FF474611D
:10452000D44A103A916082E0D2493031884205D1B4
:104530004FF47411CF4A103A916078E0CD49483178
:10454000884205D14FF07461CA4A103A91606EE01A
:10455000C8496031884204D1C749C64A103AD1607F
:1045600065E0C4497831884204D1C449C14A103A4F
:10457000D1605CE0BF499031884204D1C049BD4A56
:10458000103AD16053E0BB49A831884205D14FF0C1
:104590003D51B84A103AD16049E0BA49884204D145
:1045A0003D21B84A083A116041E0B64918318842C5
:1045B00005D14FF47461B34A083A116037E0B1494C
:1045C0003031884205D14FF47411AE4A083A116077
:1045D0002DE0AC494831884205D14FF07461A94AB9
:1045E000083A116023E0A7496031884204D1A2490A
:1045F000A44A121F11601AE0A2497831884204D1FE
:104600009E49A04A121F116011E09E4990318842D4
:1046100004D19B499B4A121F116008E09949A831B7
:10462000884204D14FF03D51964A121F11607047E5
:1046300010B500220268944B1A40CC680B682343E3
:104640004C6923438C692343CC6923430C6A23437D
:104650004C6A23438C6A23434C6B23438C6B234368
:104660001A430260426922F00702D1E90B34234366
:104670001A4342610B6943604B6883608B68C36077
:1046800010BD0021016041608160C1600161416134
:104690008161C161016241628162C1620163416302
:1046A0008163704721B1026842F00102026003E0B9
:1046B000026822F001020260704721B1026842F4F0
:1046C0000042026003E0026822F400420260704788
:1046D00021B1026842F02002026003E0026822F089
:1046E000200202607047416070470146486880B20E
:1046F000704722B1036843F40023036003E00368BA
:1047000023F4002303600161704721B1026842F481
:104710008022026003E0026822F480220260704777
:104720000AB1016100E0C1607047014600200A68DB
:1047300002F400220AB1012000E000207047014687
:1047400000200A6802F001020AB1012000E0002006
:104750007047014600204A6902F03800704730B5C2
:1047600003460A4600200024464DAB4202D241498E
:10477000103901E04349103902F000550DB14C6881
:1047800000E00C68414D2C4004EA02050DB1012007
:1047900000E0002030BD02463A4B9A4202D2354832
:1047A000103801E03748103801F000531BB1374B87
:1047B0000B40C36002E0354B0B408360704710B57F
:1047C00001F080034BB122B1436943F080034361A0
:1047D00003E0436923F08003436180290BD02AB1B1
:1047E000036801F01E042343036004E0036801F042
:1047F0001E04A343036010BD70B5024600200024D0
:104800000025204EB24202D21A4B103B01E01D4B54
:10481000103B1F4E0E4036B11E2606EAD124166804
:1048200006EA040502E0566906F0800501F000562C
:104830000EB15C6800E01C68144E344004EA0106C6
:1048400016B10DB1012000E0002070BD02460D4BF5
:104850009A4202D20748103801E00A48103801F0A5
:1048600000531BB1094B0B40C36002E0074B0B40E8
:1048700083607047106002403D000020400F002020
:1048800000003D20106402403F801CF07D0F7D0F32
:104890003C0F3C0F002041490860091D0860091DBC
:1048A0000860091D08603E483C49143108607047A3
:1048B00000213A498279002A3AD00A4612680368F0
:1048C0009A430B461A600A1D126803689A430B1D2F
:1048D0001A60027911440A6803681A430A602F4A71
:1048E0000832126803689A432C4B08331A601A1D69
:1048F000126803689A43294B0C331A604279102AD4
:104900000ED11A1F126803681A43244B08331A6029
:104910001A1D126803681A43204B0C331A600DE00D
:104920001E49427911440A6803681A430A6005E087
:10493000027911440A6803689A430A6070470021AB
:10494000016001710C21417100218171704713498F
:10495000103109680143114A103211607047014655
:1049600000200E4A143212680A400AB1012000E009
:104970000020704709491431086070470146002043
:10498000064A143212680A400AB1012000E00020F1
:10499000704702491431086070470000003C014034
:1049A000FFFF7F0010B504469848844208D10121DA
:1049B000084600F088FB0021012000F084FB76E02F
:1049C0009348844208D10121022000F07CFB0021A1
:1049D000022000F078FB6AE08E48844208D1012171
:1049E000042000F070FB0021042000F06CFB5EE06E
:1049F0008948844208D10121082000F064FB00218D
:104A0000082000F060FB52E08448844208D1012174
:104A1000102000F058FB0021102000F054FB46E06D
:104A20007F48844208D10121202000F04CFB002166
:104A3000202000F048FB3AE07A48844208D1012166
:104A4000402000F040FB0021402000F03CFB2EE025
:104A50007548844208D10121802000F034FB0021F8
:104A6000802000F030FB22E07048844208D1012110
:104A7000801500F028FB0021A01500F024FB16E0B3
:104A80006B48844208D10121401500F01CFB002135
:104A9000601500F018FB0AE06648844207D1012146
:104AA000001500F010FB0021201500F00CFB10BDDC
:104AB000F0B50A4600210023002400BF3DE0012597
:104AC00005FA01F3156805EA03049C4234D1056830
:104AD0004F000326BE40B543056015794E00B54032
:104AE0000668354305601579012D02D01579022D30
:104AF00016D185684F000326BE40B54385605579C1
:104B00004E00B540866835438560456801268E4075
:104B1000B5434560456896798E40B6B235434560E9
:104B2000C5684F000326BE40B543C560D5794E0029
:104B3000B540C6683543C560491C1029BFD3F0BDD8
:104B40004FF6FF7101600021017141718171C171E6
:104B5000704708B54FF480320092009A0A430092E1
:104B6000009AC261C161009AC261C2690092C269C1
:104B7000009208BD0246002013690B400BB10120D2
:104B800000E0002070470146086980B27047024685
:104B9000002053690B400BB1012000E0002070475A
:104BA0000146486980B2704701837047418370476E
:104BB0000AB1018300E04183704741617047426957
:104BC0004A4042617047F0B5002300244D07ED0EC6
:104BD00002FA05F3CE1000F1200555F826504E07D5
:104BE000F70E0F26BE40B543CF1000F1200646F861
:104BF0002750CE1000F1200555F8265045EA030451
:104C0000CE1000F1200545F82640F0BD000002401E
:104C10000004024000080240000C02400010024064
:104C20000014024000180240001C02400020024014
:104C30000024024000280240FA48006840F00100C9
:104C4000F84908600020F74908310860F548006815
:104C5000F5490840F3490860F448091D0860F44824
:104C6000F04984310860F1481038091D0860ED48AA
:104C7000006820F48020EB4908600020E9490C31ED
:104C80000860E8498C31086070470021E54A921CB1
:104C9000117011460870704710B5014600220023BC
:104CA00000204A11012A02D1DE4C236808E0022AC2
:104CB00003D1DC4C7034236802E0DA4C743423688E
:104CC00001F01F02012494401C400CB1012000E0BF
:104CD000002010BD38B5002000900024002500BF42
:104CE0003120FFF7D9FF05460098401C00904FF691
:104CF000FF710098884201D0002DF1D03120FFF7DC
:104D0000CBFF08B1012400E00024204638BD014655
:104D10000020C44A106820F0F80040EAC10010608A
:104D20007047C449086070470021BE4A7032117054
:104D30001170012802D004280AD104E00121B94AE7
:104D40007032117005E00521B64A7032117000E032
:104D500000BF00BF7047B8490860704770B5049C39
:104D600041EA82150126C6EB530645EA064505438E
:104D700045EA0465AB4E361D356070BDAD49086629
:104D80007047820142EA0172A64B84331A60704771
:104D9000A8498866704710B5830143EA016343EA76
:104DA0000273A04C8834236010BDA2490867704785
:104DB000A049C8647047024600209A4B083318681F
:104DC00020F0EC6042EA01031843964B0833186068
:104DD000704702460020934B0833186820F0784053
:104DE00042EA010318438F4B0833186070470146AD
:104DF00000208C4A0832106820F00300084310603D
:104E0000704788480830006800F00C007047014681
:104E10000020844A0832106820F0F0000843106037
:104E20007047014600207F4A0832106820F4E050A5
:104E3000084310607047014600207A4A0832106823
:104E400020F4604040EAC10010607047F0B50021D6
:104E500000220024022500260223724F08373F68F3
:104E600007F00C0121B1042905D0082937D105E04C
:104E7000724F076036E0724F076033E0694F3F1DA5
:104E80003F68C7F38056674F3F1D3F6807F03F03F9
:104E90006EB16B4FB7FBF3F7DFF888C10CF1040C70
:104EA000DCF800C0CCF3881C07FB0CF40CE0634F6B
:104EB000B7FBF3F7DFF86CC10CF1040CDCF800C0B1
:104EC000CCF3881C07FB0CF4564F3F1D3F68C7F31B
:104ED00001477F1C7D00B4FBF5F7076002E0574FE8
:104EE000076000BF00BF4F4F08373F6807F0F00171
:104EF0000909544F7A5C0768D7404760494F083723
:104F00003F6807F4E051890A4E4F7A5C4768D74002
:104F10008760444F08373F6807F46041490B494FA9
:104F20007A5C4768D740C760F0BD002100F440724A
:104F3000B2F5407F0AD13B4A0832116821F4F811DA
:104F4000414A02401143374A08321160354A7032F3
:104F50001268C0F30B031A43324B70331A60704768
:104F60003549443908607047334940390860704713
:104F7000364908607047014600202A4A8C32106882
:104F800020F01F004A1E1043264A8C3210607047E2
:104F900001460020234A8C32106820F4F8504A1E43
:104FA00040EA02201F4A8C32106070470146002000
:104FB0001C4A8C32106820F440100843106070477F
:104FC00001460020174A8C32106820F44000084344
:104FD0001060704701460020124A8C32106820F49D
:104FE000403008431060704719490860704739B174
:104FF0000C4A3032126802430A4B30331A6006E022
:10500000084A303212688243064B30331A607047C8
:1050100039B1044A343212680243024B34331A6005
:105020001DE017E000380240FFFFF6EA10300024D0
:105030000030002000004742800E47420024F40068
:1050400000127A00D2000020FFFCFF0F5C014742F3
:10505000E01147428F4A126882438E4B1A607047B4
:1050600039B18C4A121D126802438A4B1B1D1A600B
:1050700006E0884A121D12688243864B1B1D1A6087
:10508000704739B1834A0C3212680243814B0C33AA
:105090001A6006E07F4A0C32126882437D4B0C3363
:1050A0001A60704739B17B4A103212680243794B5B
:1050B00010331A6006E0774A103212688243754B4B
:1050C00010331A60704739B1724A243A12680243A9
:1050D000704B243B1A6006E06E4A243A1268824301
:1050E0006C4B243B1A60704739B16A4A203A126807
:1050F0000243684B203B1A6006E0664A203A126879
:105100008243644B203B1A60704739B1614A1C3AB4
:10511000126802435F4B1C3B1A6006E05D4A1C3A72
:10512000126882435B4B1C3B1A60704739B1594A85
:10513000143A12680243574B143B1A6006E0554A72
:10514000143A12688243534B143B1A60704739B1CA
:10515000504A103A126802434E4B103B1A6006E068
:105160004C4A103A126882434A4B103B1A6070470F
:1051700039B1484A1C3212680243464B1C331A604C
:1051800006E0444A1C3212688243424B1C331A60C8
:10519000704739B13F4A2032126802433D4B2033F9
:1051A0001A6006E03B4A203212688243394B2033B2
:1051B0001A60704739B1374A243212680243354BBE
:1051C00024331A6006E0334A243212688243314B9A
:1051D00024331A60704739B12E4A2C3212680243C8
:1051E0002C4B2C331A6006E02A4A2C321268824378
:1051F000284B2C331A60704739B1264A3032126876
:105200000243244B30331A6006E0224A30321268DF
:105210008243204B30331A607047012808D11D4962
:105220003C31096841F008011A4A3C32116007E03C
:1052300018493C31096821F00801164A3C321160D6
:10524000704739B1134A273A12780243114B273B72
:105250001A7006E00F4A273A127882430D4B273B1B
:105260001A7070470B484030006840F08070094960
:1052700040310860704701460020064A283A12680B
:105280000A400AB1012000E0002070470149263998
:10529000087070473438024010B501218803FFF7C9
:1052A00056FF00214FF48040FFF751FF10BD1C490D
:1052B000086070471B490862704730B500228B07B1
:1052C0001C0F0F2303FA04F2154B08338C1053F80C
:1052D00024309343124C08348D1044F82530234673
:1052E0008C1053F824308C07240F00FA04F4234365
:1052F0000B4C08348D1044F8253030BD0949DC31A1
:105300000860704708490860704700200449203150
:10531000096801F4807109B1012000E000207047A4
:1053200000380140000027420004274210B504461F
:10533000FE48844208D101210846FFF708FF0021FA
:105340000120FFF704FF9DE0B4F1804F08D1012157
:105350000846FFF7EBFE00210120FFF7E7FE91E092
:10536000F348844208D101210220FFF7DFFE00212B
:105370000220FFF7DBFE85E0EE48844208D10121E0
:105380000420FFF7D3FE00210420FFF7CFFE79E0D1
:10539000E948844208D101210820FFF7C7FE002117
:1053A0000820FFF7C3FE6DE0E448844208D10121E4
:1053B0001020FFF7BBFE00211020FFF7B7FE61E0D1
:1053C000DF48844208D101212020FFF7AFFE0021F1
:1053D0002020FFF7ABFE55E0DA48844208D10121D6
:1053E0000220FFF7B4FE00210220FFF7B0FE49E0E3
:1053F000D548844209D101210804FFF7A8FE002105
:105400004FF48030FFF7A3FE3CE0D048844209D13E
:1054100001214804FFF79BFE00214FF40030FFF705
:1054200096FE2FE0CA48844209D101218804FFF783
:105430008EFE00214FF48020FFF789FE22E0C54850
:10544000844208D101214020FFF770FE0021402056
:10545000FFF76CFE16E0C048844208D1012180208D
:10546000FFF764FE00218020FFF760FE0AE0BB48E2
:10547000844207D101218015FFF758FE0021A015B5
:10548000FFF754FE10BD00220288A84B98420ED0B0
:10549000AC4B98420BD0B0F1804F08D0A44B98424F
:1054A00005D0A44B984202D0A34B984204D14FF6AA
:1054B0008F731A404B881A43A04B984207D0A04BD9
:1054C000984204D04FF6FF431A400B891A430280DA
:1054D0004B68C3620B880385944B984202D0994B6A
:1054E000984201D18B7A03860123838270474FF063
:1054F000FF3141600021018001814180817270474C
:105500000185828270470A46002101884FF68F7319
:10551000194011430180704741627047C162704772
:105520000146486A70470146088D704721B10288DC
:1055300042F00202028004E002884FF6FD731A4036
:105540000280704721B1028842F00402028004E028
:1055500002884FF6FB731A400280704721B102881F
:1055600042F08002028004E002884FF67F731A4006
:105570000280704702884FF6F7731A400280028853
:105580000A430280704702884FF6FF431A400280A8
:1055900002880A430280704721B1028842F001026A
:1055A000028004E002884FF6FE731A4002807047C2
:1055B00070B5002400220023058C4FF6FE7635409E
:1055C0000584028C8388048B4FF68F752C40B51EA2
:1055D0002C400D882C43751E2A408D892A434D8806
:1055E0002A43524DA84202D0564DA84213D14FF63D
:1055F000F7752A40CD892A434FF6FB752A408D88DE
:105600002A434FF6FF652B404FF6FF552B400D8A7E
:105610002B434D8A2B43838004838D68456302842A
:1056200070BD70B5002400220023058C4FF6EF7684
:1056300035400584028C8388048B48F6FF752C4026
:105640004FF6FF452C400D884FF6FF7606EA0525FC
:105650002C434FF6DF752A408D8906EA05152A434B
:105660004D8806EA05152A43304DA84202D0354D33
:10567000A8421DD14FF67F752A40CD894FF6FF769F
:1056800006EA05152A434FF6BF752A408D8806EABB
:1056900005152A434FF6FF352B404FF2FF752B407F
:1056A0000D8A06EA85052B434D8A06EA85052B43BC
:1056B000838004838D688563028470BD70B5002487
:1056C00000220023058C4FF6FF6635400584028CCE
:1056D0008388848B4FF68F752C404FF6FC752C40D9
:1056E0000D882C434FF6FF552A408D894FF6FF76E3
:1056F00006EA05252A434D8806EA05252A430B4D6F
:10570000A84202D00F4DA84238D14FF2FF752A406F
:10571000CD894FF6FF7606EA05252A434FF6FF3579
:105720002A408D8806EA05252A4319E00000014039
:105730000004004000080040000C00400010004041
:1057400000140040000401400040014000440140BA
:105750000048014000180040001C004000200040AC
:105760004EF6FF752B404DF6FF752B400D8A06EA6D
:1057700005152B434D8A06EA05152B438380848348
:105780008D68C563028470BD70B5002200230024BB
:10579000058C4EF6FF7635400584038C8488828B19
:1057A00048F6FF752A404FF6FF452A400D884FF610
:1057B000FF7606EA05252A434DF6FF752B408D89B5
:1057C00006EA05352B434D8806EA05352B43FE4D89
:1057D000A84202D0FD4DA84208D14BF6FF752C40DF
:1057E0000D8A4FF6FF7606EA85152C438480828366
:1057F0008D680564038470BD002101804180818033
:1058000081608181C18101824182704770B5034608
:10581000002000241846183001258D40ACB21D8CA4
:10582000A5431D8409B108290AD100EB6100056870
:105830004FF68F76354005600568154305600FE02B
:105840000D1FC5F34E052844056848F6FF76354020
:10585000056005684FF6FF7606EA022635430560C7
:1058600070BD4163704781637047C16370470164D5
:1058700070470A460021018B4FF68F731940114380
:10588000018370470A460021018B48F6FF731940D7
:105890004FF6FF7303EA02231943018370470A4658
:1058A0000021818B4FF68F7319401143818370471C
:1058B0000A460021818B48F6FF7319404FF6FF73AB
:1058C00003EA02231943818370470A460021018BB2
:1058D0004FF6F77319401143018370470A460021C0
:1058E000018B4FF2FF7319404FF6FF7303EA022357
:1058F0001943018370470A460021818B4FF6F773E5
:1059000019401143818370470A460021818B4FF271
:10591000FF7319404FF6FF7303EA02231943818393
:1059200070470A460021018B4FF6FB731940114363
:10593000018370470A460021018B4FF6FF3319405F
:105940004FF6FF7303EA02231943018370470A46A7
:105950000021818B4FF6FB731940114381837047FF
:105960000A460021818B4FF6FF3319404FF6FF7333
:1059700003EA02231943818370470A460021018B01
:105980004FF67F7319401143018370470A46002187
:10599000018BC1F30E014FF6FF7303EA0223194393
:1059A000018370470A460021818B4FF67F731940AF
:1059B0001143818370470A460021818BC1F30E0198
:1059C0004FF6FF7303EA02231943818370470A46A7
:1059D0000021018C4FF6FD7319401143018470477B
:1059E0000A460021018C4FF6F773194011430184D8
:1059F00070470A460021018C4FF6DF7319404FF6BD
:105A0000FF7303EA02131943018470470A46002119
:105A1000018C4FF67F7319404FF6FF7303EA0213B0
:105A20001943018470470A460021018C4FF6FF5349
:105A300019404FF6FF7303EA0223194301847047AC
:105A40000A460021018C4FF2FF7319404FF6FF7395
:105A500003EA02231943018470470A460021018C9E
:105A60004DF6FF7319404FF6FF7303EA02331943F3
:105A70000184704730B5002301248C40A3B2048C0C
:105A80009C430484048C02FA01F5ADB22C430484D7
:105A900030BD30B5002304248C40A3B2048C9C4359
:105AA0000484048C02FA01F5ADB22C43048430BDA9
:105AB000828B4FF2FF331A408283828B4FF6FF7343
:105AC00003EA01231A4382837047F0B50C4615465A
:105AD000002100220026078C4EF6FF7C07EA0C0707
